{
  "contractName": "bytesSwap",
  "abi": [
    {
      "inputs": [
        {
          "internalType": "bytes32",
          "name": "_bytes32",
          "type": "bytes32"
        }
      ],
      "name": "bytes32ToString",
      "outputs": [
        {
          "internalType": "string",
          "name": "",
          "type": "string"
        }
      ],
      "stateMutability": "pure",
      "type": "function"
    },
    {
      "inputs": [
        {
          "internalType": "string",
          "name": "source",
          "type": "string"
        }
      ],
      "name": "stringToBytes32",
      "outputs": [
        {
          "internalType": "bytes32",
          "name": "result",
          "type": "bytes32"
        }
      ],
      "stateMutability": "pure",
      "type": "function"
    }
  ],
  "bytecode": "0x61038d610026600b82828239805160001a60731461001957fe5b30600052607381538281f3fe73000000000000000000000000000000000000000030146080604052600436106100405760003560e01c80639201de5514610045578063cfb51928146100ec575b600080fd5b6100716004803603602081101561005b57600080fd5b81019080803590602001909291905050506101bb565b6040518080602001828103825283818151815260200191508051906020019080838360005b838110156100b1578082015181840152602081019050610096565b50505050905090810190601f1680156100de5780820380516001836020036101000a031916815260200191505b509250505060405180910390f35b6101a56004803603602081101561010257600080fd5b810190808035906020019064010000000081111561011f57600080fd5b82018360208201111561013157600080fd5b8035906020019184600183028401116401000000008311171561015357600080fd5b91908080601f016020809104026020016040519081016040528093929190818152602001838380828437600081840152601f19601f82011690508083019250505050505050919291929050505061032c565b6040518082815260200191505060405180910390f35b606060005b60208160ff1610801561020b5750600060f81b838260ff16602081106101e257fe5b1a60f81b7effffffffffffffffffffffffffffffffffffffffffffffffffffffffffffff191614155b1561021d5780806001019150506101c0565b60608160ff1667ffffffffffffffff8111801561023957600080fd5b506040519080825280601f01601f19166020018201604052801561026c5781602001600182028036833780820191505090505b509050600091505b60208260ff161080156102bf5750600060f81b848360ff166020811061029657fe5b1a60f81b7effffffffffffffffffffffffffffffffffffffffffffffffffffffffffffff191614155b1561032257838260ff16602081106102d357fe5b1a60f81b818360ff16815181106102e657fe5b60200101907effffffffffffffffffffffffffffffffffffffffffffffffffffffffffffff1916908160001a9053508180600101925050610274565b8092505050919050565b60006060829050600081511415610349576000801b915050610352565b60208301519150505b91905056fea2646970667358221220b2f28d3d5f1de24c0dce035045c5d4fdffae45e416a8b87f25070e4aaad0a3dd64736f6c634300060c0033",
  "immutableReferences": {},
  "source": "pragma solidity >=0.4.21 <0.7.0;\r\n\r\nimport \"./ContractRegistry.sol\";\r\nimport \"./PolicyManagement.sol\";\r\nimport \"@chainlink/contracts/src/v0.6/ChainlinkClient.sol\";\r\n\r\nlibrary bytesSwap {\r\n    function bytes32ToString(bytes32 _bytes32)\r\n        public\r\n        pure\r\n        returns (string memory)\r\n    {\r\n        uint8 i = 0;\r\n        while (i < 32 && _bytes32[i] != 0) {\r\n            i++;\r\n        }\r\n        bytes memory bytesArray = new bytes(i);\r\n        for (i = 0; i < 32 && _bytes32[i] != 0; i++) {\r\n            bytesArray[i] = _bytes32[i];\r\n        }\r\n        return string(bytesArray);\r\n    }\r\n\r\n    function stringToBytes32(string memory source)\r\n        public\r\n        pure\r\n        returns (bytes32 result)\r\n    {\r\n        bytes memory tempEmptyStringTest = bytes(source);\r\n        if (tempEmptyStringTest.length == 0) {\r\n            return 0x0;\r\n        }\r\n\r\n        assembly {\r\n            // solhint-disable-line no-inline-assembly\r\n            result := mload(add(source, 32))\r\n        }\r\n    }\r\n}\r\n\r\ncontract ClaimsManagement2 is ChainlinkClient {\r\n    using bytesSwap for *;\r\n\r\n    // interfaces & contract instantiations\r\n\r\n    ContractRegistry public contractRegistry;\r\n    PolicyManagement public policyManagement;\r\n\r\n    // events\r\n\r\n    event ContractRegistryInitiated(address _contractRegistryAddress);\r\n\r\n    event FailedOracleCall(uint256 date, bytes32 _policyIDhash);\r\n    event OracleCallSent(uint256 date, bytes32 _policyIDhash, string _APIcall);\r\n    event OracleAnswerReceived(\r\n        uint256 date,\r\n        bytes32 _requestID,\r\n        string _result\r\n    );\r\n\r\n    // contract variables in storage\r\n\r\n    address public contractOwner;\r\n    address private oracle; // to be set in constructor\r\n    bytes32 private jobId; // to be set in constructor\r\n    uint256 private fee; // to be set in constructor\r\n    mapping(bytes32 => bytes32) public requestIDregister;\r\n    string public lastOracleResult; // for debugging\r\n\r\n    // modifiers\r\n\r\n    modifier onlyOwner() {\r\n        require(\r\n            msg.sender == contractOwner,\r\n            \"Only the contract owner can call this function\"\r\n        );\r\n        _;\r\n    }\r\n\r\n    // constructor function\r\n\r\n    constructor() public {\r\n        setPublicChainlinkToken(); // set manually the LINK token address if this function fails\r\n        contractOwner = msg.sender;\r\n    }\r\n\r\n    // oracle functions\r\n\r\n    function getOracleConfirmation(\r\n        bytes32 _policyIDhash,\r\n        string calldata _KYCidentifier\r\n    ) public {\r\n        require(\r\n            msg.sender == contractRegistry.policyManagementContract(),\r\n            \"Only the policy management contract can call this function\"\r\n        );\r\n\r\n        Chainlink.Request memory request =\r\n            buildChainlinkRequest(\r\n                jobId,\r\n                address(this),\r\n                this.__callback.selector\r\n            );\r\n        // Set the URL to perform the GET request on\r\n        string memory s1 =\r\n            \"https://firestore.googleapis.com/v1/projects/cherishdb-10aa5/databases/(default)/documents/RNIPP/\";\r\n        string memory s2 = _KYCidentifier;\r\n        string memory APIcall = string(abi.encodePacked(s1, s2));\r\n        request.add(\"get\", APIcall);\r\n        // Set the path to find the desired data in the API response, where the response format is:\r\n        request.add(\"path\", \"fields.status.stringValue\");\r\n        bytes32 _requestId = sendChainlinkRequestTo(oracle, request, fee);\r\n        requestIDregister[_requestId] = _policyIDhash;\r\n    }\r\n\r\n    function __callback(bytes32 _requestId, bytes32 _result) public {\r\n        require(msg.sender == oracle, \"Only the oracle can call this function\");\r\n        emit OracleAnswerReceived(\r\n            now,\r\n            _requestId,\r\n            bytesSwap.bytes32ToString(_result)\r\n        );\r\n\r\n        bytes32 _policyIDhash = requestIDregister[_requestId];\r\n        // to delete\r\n        lastOracleResult = bytesSwap.bytes32ToString(_result);\r\n\r\n        policyManagement.finalizeClaim(\r\n            bytesSwap.bytes32ToString(_result),\r\n            _policyIDhash\r\n        );\r\n\r\n        delete requestIDregister[_requestId];\r\n    }\r\n\r\n    // public functions\r\n\r\n    function setContractRegistryAndAddresses(address _contractRegistry)\r\n        public\r\n        onlyOwner\r\n    {\r\n        require(\r\n            _contractRegistry != address(0),\r\n            \"Contract Registry address must be a valid address\"\r\n        );\r\n        _setContractRegistryAndAddresses(_contractRegistry);\r\n    }\r\n\r\n    // private functions\r\n\r\n    function _setContractRegistryAndAddresses(address _contractRegistry)\r\n        private\r\n    {\r\n        contractRegistry = ContractRegistry(_contractRegistry);\r\n        policyManagement = PolicyManagement(\r\n            contractRegistry.policyManagementContract()\r\n        );\r\n        emit ContractRegistryInitiated(_contractRegistry);\r\n    }\r\n}\r\n",
  "sourcePath": "/home/damas/cherish/contracts/ClaimsManagement2.sol",
  "compiler": {
    "name": "solc",
    "version": "0.6.12+commit.27d51765.Emscripten.clang"
  },
  "schemaVersion": "3.3.3",
  "updatedAt": "2021-05-22T03:51:13.399Z",
  "devdoc": {
    "kind": "dev",
    "methods": {},
    "version": 1
  },
  "userdoc": {
    "kind": "user",
    "methods": {},
    "version": 1
  }
}