{
  "contractName": "ClaimsManagement",
  "abi": [
    {
      "inputs": [],
      "stateMutability": "nonpayable",
      "type": "constructor"
    },
    {
      "anonymous": false,
      "inputs": [
        {
          "indexed": false,
          "internalType": "address",
          "name": "_contractRegistryAddress",
          "type": "address"
        }
      ],
      "name": "ContractRegistryInitiated",
      "type": "event"
    },
    {
      "anonymous": false,
      "inputs": [
        {
          "indexed": false,
          "internalType": "uint256",
          "name": "date",
          "type": "uint256"
        },
        {
          "indexed": false,
          "internalType": "bytes32",
          "name": "_policyIDhash",
          "type": "bytes32"
        }
      ],
      "name": "FailedOracleCall",
      "type": "event"
    },
    {
      "anonymous": false,
      "inputs": [
        {
          "indexed": false,
          "internalType": "uint256",
          "name": "date",
          "type": "uint256"
        },
        {
          "indexed": false,
          "internalType": "bytes32",
          "name": "_queryID",
          "type": "bytes32"
        },
        {
          "indexed": false,
          "internalType": "string",
          "name": "_result",
          "type": "string"
        }
      ],
      "name": "OracleAnswerReceived",
      "type": "event"
    },
    {
      "anonymous": false,
      "inputs": [
        {
          "indexed": false,
          "internalType": "uint256",
          "name": "date",
          "type": "uint256"
        },
        {
          "indexed": false,
          "internalType": "bytes32",
          "name": "_policyIDhash",
          "type": "bytes32"
        },
        {
          "indexed": false,
          "internalType": "string",
          "name": "_APIcall",
          "type": "string"
        }
      ],
      "name": "OracleCallSent",
      "type": "event"
    },
    {
      "inputs": [],
      "name": "contractOwner",
      "outputs": [
        {
          "internalType": "address",
          "name": "",
          "type": "address"
        }
      ],
      "stateMutability": "view",
      "type": "function"
    },
    {
      "inputs": [],
      "name": "contractRegistry",
      "outputs": [
        {
          "internalType": "contract ContractRegistry",
          "name": "",
          "type": "address"
        }
      ],
      "stateMutability": "view",
      "type": "function"
    },
    {
      "inputs": [],
      "name": "lastOracleResult",
      "outputs": [
        {
          "internalType": "string",
          "name": "",
          "type": "string"
        }
      ],
      "stateMutability": "view",
      "type": "function"
    },
    {
      "inputs": [],
      "name": "policyManagement",
      "outputs": [
        {
          "internalType": "contract PolicyManagement",
          "name": "",
          "type": "address"
        }
      ],
      "stateMutability": "view",
      "type": "function"
    },
    {
      "inputs": [
        {
          "internalType": "bytes32",
          "name": "",
          "type": "bytes32"
        }
      ],
      "name": "queryIDregister",
      "outputs": [
        {
          "internalType": "bytes32",
          "name": "",
          "type": "bytes32"
        }
      ],
      "stateMutability": "view",
      "type": "function"
    },
    {
      "inputs": [
        {
          "internalType": "bytes32",
          "name": "_policyIDhash",
          "type": "bytes32"
        },
        {
          "internalType": "string",
          "name": "_KYCidentifier",
          "type": "string"
        }
      ],
      "name": "getOracleConfirmation",
      "outputs": [],
      "stateMutability": "nonpayable",
      "type": "function"
    },
    {
      "inputs": [
        {
          "internalType": "bytes32",
          "name": "_queryID",
          "type": "bytes32"
        },
        {
          "internalType": "string",
          "name": "_result",
          "type": "string"
        }
      ],
      "name": "__callback",
      "outputs": [],
      "stateMutability": "nonpayable",
      "type": "function"
    },
    {
      "inputs": [
        {
          "internalType": "bytes32",
          "name": "_myid",
          "type": "bytes32"
        },
        {
          "internalType": "string",
          "name": "_result",
          "type": "string"
        },
        {
          "internalType": "bytes",
          "name": "_proof",
          "type": "bytes"
        }
      ],
      "name": "__callback",
      "outputs": [],
      "stateMutability": "nonpayable",
      "type": "function"
    },
    {
      "inputs": [
        {
          "internalType": "address",
          "name": "_contractRegistry",
          "type": "address"
        }
      ],
      "name": "setContractRegistryAndAddresses",
      "outputs": [],
      "stateMutability": "nonpayable",
      "type": "function"
    }
  ],
  "bytecode": "0x608060405234801561001057600080fd5b5033600760006101000a81548173ffffffffffffffffffffffffffffffffffffffff021916908373ffffffffffffffffffffffffffffffffffffffff160217905550611781806100616000396000f3fe608060405234801561001057600080fd5b50600436106100935760003560e01c80637010cb81116100665780637010cb8114610370578063abf410e5146103b2578063c5016c69146103e6578063ce606ee01461042a578063da77a66d1461045e57610093565b806327dc297e146100985780632a3a8b9e1461015d57806331b66af9146101e057806338bbfa5014610214575b600080fd5b61015b600480360360408110156100ae57600080fd5b8101908080359060200190929190803590602001906401000000008111156100d557600080fd5b8201836020820111156100e757600080fd5b8035906020019184600183028401116401000000008311171561010957600080fd5b91908080601f016020809104026020016040519081016040528093929190818152602001838380828437600081840152601f19601f8201169050808301925050505050505091929192905050506104e1565b005b61016561075d565b6040518080602001828103825283818151815260200191508051906020019080838360005b838110156101a557808201518184015260208101905061018a565b50505050905090810190601f1680156101d25780820380516001836020036101000a031916815260200191505b509250505060405180910390f35b6101e86107fb565b604051808273ffffffffffffffffffffffffffffffffffffffff16815260200191505060405180910390f35b61036e6004803603606081101561022a57600080fd5b81019080803590602001909291908035906020019064010000000081111561025157600080fd5b82018360208201111561026357600080fd5b8035906020019184600183028401116401000000008311171561028557600080fd5b91908080601f016020809104026020016040519081016040528093929190818152602001838380828437600081840152601f19601f820116905080830192505050505050509192919290803590602001906401000000008111156102e857600080fd5b8201836020820111156102fa57600080fd5b8035906020019184600183028401116401000000008311171561031c57600080fd5b91908080601f016020809104026020016040519081016040528093929190818152602001838380828437600081840152601f19601f820116905080830192505050505050509192919290505050610821565b005b61039c6004803603602081101561038657600080fd5b8101908080359060200190929190505050610844565b6040518082815260200191505060405180910390f35b6103ba61085c565b604051808273ffffffffffffffffffffffffffffffffffffffff16815260200191505060405180910390f35b610428600480360360208110156103fc57600080fd5b81019080803573ffffffffffffffffffffffffffffffffffffffff169060200190929190505050610882565b005b6104326109ba565b604051808273ffffffffffffffffffffffffffffffffffffffff16815260200191505060405180910390f35b6104df6004803603604081101561047457600080fd5b81019080803590602001909291908035906020019064010000000081111561049b57600080fd5b8201836020820111156104ad57600080fd5b803590602001918460018302840111640100000000831117156104cf57600080fd5b90919293919293905050506109e0565b005b6104e9610bd1565b73ffffffffffffffffffffffffffffffffffffffff163373ffffffffffffffffffffffffffffffffffffffff161461056c576040517f08c379a00000000000000000000000000000000000000000000000000000000081526004018080602001828103825260268152602001806116bb6026913960400191505060405180910390fd5b7f0fb1c389fe00ac07c1ea588fd1c5c7e166eeeaa00f90858e82cdc3e36508bfdd4283836040518084815260200183815260200180602001828103825283818151815260200191508051906020019080838360005b838110156105dc5780820151818401526020810190506105c1565b50505050905090810190601f1680156106095780820380516001836020036101000a031916815260200191505b5094505050505060405180910390a160006008600084815260200190815260200160002054905081600990805190602001906106469291906115ef565b50600660009054906101000a900473ffffffffffffffffffffffffffffffffffffffff1673ffffffffffffffffffffffffffffffffffffffff16632ce9ac5383836040518363ffffffff1660e01b81526004018080602001838152602001828103825284818151815260200191508051906020019080838360005b838110156106dc5780820151818401526020810190506106c1565b50505050905090810190601f1680156107095780820380516001836020036101000a031916815260200191505b509350505050600060405180830381600087803b15801561072957600080fd5b505af115801561073d573d6000803e3d6000fd5b505050506008600084815260200190815260200160002060009055505050565b60098054600181600116156101000203166002900480601f0160208091040260200160405190810160405280929190818152602001828054600181600116156101000203166002900480156107f35780601f106107c8576101008083540402835291602001916107f3565b820191906000526020600020905b8154815290600101906020018083116107d657829003601f168201915b505050505081565b600660009054906101000a900473ffffffffffffffffffffffffffffffffffffffff1681565b6000801b600360008060001b815260200190815260200160002081905550505050565b60086020528060005260406000206000915090505481565b600560009054906101000a900473ffffffffffffffffffffffffffffffffffffffff1681565b600760009054906101000a900473ffffffffffffffffffffffffffffffffffffffff1673ffffffffffffffffffffffffffffffffffffffff163373ffffffffffffffffffffffffffffffffffffffff1614610928576040517f08c379a000000000000000000000000000000000000000000000000000000000815260040180806020018281038252602e81526020018061168d602e913960400191505060405180910390fd5b600073ffffffffffffffffffffffffffffffffffffffff168173ffffffffffffffffffffffffffffffffffffffff1614156109ae576040517f08c379a00000000000000000000000000000000000000000000000000000000081526004018080602001828103825260318152602001806116e16031913960400191505060405180910390fd5b6109b781610eee565b50565b600760009054906101000a900473ffffffffffffffffffffffffffffffffffffffff1681565b600560009054906101000a900473ffffffffffffffffffffffffffffffffffffffff1673ffffffffffffffffffffffffffffffffffffffff1663aa87a27f6040518163ffffffff1660e01b815260040160206040518083038186803b158015610a4857600080fd5b505afa158015610a5c573d6000803e3d6000fd5b505050506040513d6020811015610a7257600080fd5b810190808051906020019092919050505073ffffffffffffffffffffffffffffffffffffffff163373ffffffffffffffffffffffffffffffffffffffff1614610b06576040517f08c379a000000000000000000000000000000000000000000000000000000000815260040180806020018281038252603a815260200180611712603a913960400191505060405180910390fd5b600660009054906101000a900473ffffffffffffffffffffffffffffffffffffffff1673ffffffffffffffffffffffffffffffffffffffff16632ce9ac53846040518263ffffffff1660e01b81526004018080602001838152602001828103825260088152602001807f646563656173656400000000000000000000000000000000000000000000000081525060200192505050600060405180830381600087803b158015610bb457600080fd5b505af1158015610bc8573d6000803e3d6000fd5b50505050505050565b60008073ffffffffffffffffffffffffffffffffffffffff16600160009054906101000a900473ffffffffffffffffffffffffffffffffffffffff1673ffffffffffffffffffffffffffffffffffffffff161480610c5957506000610c57600160009054906101000a900473ffffffffffffffffffffffffffffffffffffffff16611062565b145b15610c6a57610c68600061106d565b505b600160009054906101000a900473ffffffffffffffffffffffffffffffffffffffff1673ffffffffffffffffffffffffffffffffffffffff166338cc48316040518163ffffffff1660e01b8152600401602060405180830381600087803b158015610cd457600080fd5b505af1158015610ce8573d6000803e3d6000fd5b505050506040513d6020811015610cfe57600080fd5b810190808051906020019092919050505073ffffffffffffffffffffffffffffffffffffffff1660008054906101000a900473ffffffffffffffffffffffffffffffffffffffff1673ffffffffffffffffffffffffffffffffffffffff1614610e4657600160009054906101000a900473ffffffffffffffffffffffffffffffffffffffff1673ffffffffffffffffffffffffffffffffffffffff166338cc48316040518163ffffffff1660e01b8152600401602060405180830381600087803b158015610dcb57600080fd5b505af1158015610ddf573d6000803e3d6000fd5b505050506040513d6020811015610df557600080fd5b81019080805190602001909291905050506000806101000a81548173ffffffffffffffffffffffffffffffffffffffff021916908373ffffffffffffffffffffffffffffffffffffffff1602179055505b60008054906101000a900473ffffffffffffffffffffffffffffffffffffffff1673ffffffffffffffffffffffffffffffffffffffff1663c281d19e6040518163ffffffff1660e01b8152600401602060405180830381600087803b158015610eae57600080fd5b505af1158015610ec2573d6000803e3d6000fd5b505050506040513d6020811015610ed857600080fd5b8101908080519060200190929190505050905090565b80600560006101000a81548173ffffffffffffffffffffffffffffffffffffffff021916908373ffffffffffffffffffffffffffffffffffffffff160217905550600560009054906101000a900473ffffffffffffffffffffffffffffffffffffffff1673ffffffffffffffffffffffffffffffffffffffff1663aa87a27f6040518163ffffffff1660e01b815260040160206040518083038186803b158015610f9757600080fd5b505afa158015610fab573d6000803e3d6000fd5b505050506040513d6020811015610fc157600080fd5b8101908080519060200190929190505050600660006101000a81548173ffffffffffffffffffffffffffffffffffffffff021916908373ffffffffffffffffffffffffffffffffffffffff1602179055507fabce6688c89344ab9c7d3a216cd2b8780277012b336fcd254769bab697cdfce281604051808273ffffffffffffffffffffffffffffffffffffffff16815260200191505060405180910390a150565b6000813b9050919050565b600061107761107e565b9050919050565b60008061109e731d3b2638a7cc9f2cb3d298a3da7a90b67e5506ed611062565b111561114057731d3b2638a7cc9f2cb3d298a3da7a90b67e5506ed600160006101000a81548173ffffffffffffffffffffffffffffffffffffffff021916908373ffffffffffffffffffffffffffffffffffffffff1602179055506111376040518060400160405280600b81526020017f6574685f6d61696e6e65740000000000000000000000000000000000000000008152506115d5565b600190506115d2565b600061115f73c03a2615d5efaf5f49f60b7bb6583eaec212fdf1611062565b11156112015773c03a2615d5efaf5f49f60b7bb6583eaec212fdf1600160006101000a81548173ffffffffffffffffffffffffffffffffffffffff021916908373ffffffffffffffffffffffffffffffffffffffff1602179055506111f86040518060400160405280600c81526020017f6574685f726f707374656e3300000000000000000000000000000000000000008152506115d5565b600190506115d2565b600061122073b7a07bcf2ba2f2703b24c0691b5278999c59ac7e611062565b11156112c25773b7a07bcf2ba2f2703b24c0691b5278999c59ac7e600160006101000a81548173ffffffffffffffffffffffffffffffffffffffff021916908373ffffffffffffffffffffffffffffffffffffffff1602179055506112b96040518060400160405280600981526020017f6574685f6b6f76616e00000000000000000000000000000000000000000000008152506115d5565b600190506115d2565b60006112e173146500cfd35b22e4a392fe0adc06de1a1368ed48611062565b11156113835773146500cfd35b22e4a392fe0adc06de1a1368ed48600160006101000a81548173ffffffffffffffffffffffffffffffffffffffff021916908373ffffffffffffffffffffffffffffffffffffffff16021790555061137a6040518060400160405280600b81526020017f6574685f72696e6b6562790000000000000000000000000000000000000000008152506115d5565b600190506115d2565b60006113a273a2998efd205fb9d4b4963afb70778d6354ad3a41611062565b11156114445773a2998efd205fb9d4b4963afb70778d6354ad3a41600160006101000a81548173ffffffffffffffffffffffffffffffffffffffff021916908373ffffffffffffffffffffffffffffffffffffffff16021790555061143b6040518060400160405280600a81526020017f6574685f676f65726c69000000000000000000000000000000000000000000008152506115d5565b600190506115d2565b6000611463736f485c8bf6fc43ea212e93bbf8ce046c7f1cb475611062565b11156114c757736f485c8bf6fc43ea212e93bbf8ce046c7f1cb475600160006101000a81548173ffffffffffffffffffffffffffffffffffffffff021916908373ffffffffffffffffffffffffffffffffffffffff160217905550600190506115d2565b60006114e67320e12a1f859b3feae5fb2a0a32c18f5a65555bbf611062565b111561154a577320e12a1f859b3feae5fb2a0a32c18f5a65555bbf600160006101000a81548173ffffffffffffffffffffffffffffffffffffffff021916908373ffffffffffffffffffffffffffffffffffffffff160217905550600190506115d2565b60006115697351efaf4c8b3c9afbd5ab9f4bbc82784ab6ef8faa611062565b11156115cd577351efaf4c8b3c9afbd5ab9f4bbc82784ab6ef8faa600160006101000a81548173ffffffffffffffffffffffffffffffffffffffff021916908373ffffffffffffffffffffffffffffffffffffffff160217905550600190506115d2565b600090505b90565b80600290805190602001906115eb9291906115ef565b5050565b828054600181600116156101000203166002900490600052602060002090601f016020900481019282601f1061163057805160ff191683800117855561165e565b8280016001018555821561165e579182015b8281111561165d578251825591602001919060010190611642565b5b50905061166b919061166f565b5090565b5b80821115611688576000816000905550600101611670565b509056fe4f6e6c792074686520636f6e7472616374206f776e65722063616e2063616c6c20746869732066756e6374696f6e4f6e6c7920746865206f7261636c652063616e2063616c6c20746869732066756e6374696f6e436f6e74726163742052656769737472792061646472657373206d75737420626520612076616c696420616464726573734f6e6c792074686520706f6c696379206d616e6167656d656e7420636f6e74726163742063616e2063616c6c20746869732066756e6374696f6ea2646970667358221220808d75aac963c279d1580046b42f4a6223ce7ac018faabdf9ff3c22a233de2b464736f6c634300060c0033",
  "immutableReferences": {},
  "source": "pragma solidity >=0.4.21 <0.7.0;\r\n\r\nimport \"./provableAPI_0.6.sol\";\r\nimport \"./ContractRegistry.sol\";\r\nimport \"./PolicyManagement.sol\";\r\n\r\ncontract ClaimsManagement is usingProvable {\r\n    // interfaces & contract instantiations\r\n\r\n    ContractRegistry public contractRegistry;\r\n    PolicyManagement public policyManagement;\r\n\r\n    // events\r\n\r\n    event ContractRegistryInitiated(address _contractRegistryAddress);\r\n\r\n    event FailedOracleCall(uint256 date, bytes32 _policyIDhash);\r\n    event OracleCallSent(uint256 date, bytes32 _policyIDhash, string _APIcall);\r\n    event OracleAnswerReceived(uint256 date, bytes32 _queryID, string _result);\r\n\r\n    // contract variables in storage\r\n\r\n    address public contractOwner;\r\n    mapping(bytes32 => bytes32) public queryIDregister;\r\n    string public lastOracleResult; // for debugging\r\n\r\n    // modifiers\r\n\r\n    modifier onlyOwner() {\r\n        require(\r\n            msg.sender == contractOwner,\r\n            \"Only the contract owner can call this function\"\r\n        );\r\n        _;\r\n    }\r\n\r\n    // constructor function\r\n\r\n    constructor() public {\r\n        contractOwner = msg.sender;\r\n    }\r\n\r\n    // oracle functions\r\n\r\n    function getOracleConfirmation(\r\n        bytes32 _policyIDhash,\r\n        string calldata _KYCidentifier\r\n    ) public {\r\n        require(\r\n            msg.sender == contractRegistry.policyManagementContract(),\r\n            \"Only the policy management contract can call this function\"\r\n        );\r\n\r\n        /* REMOVED FOR TESTING purposes\r\n        if (provable_getPrice(\"URL\") > address(this).balance) {\r\n            emit FailedOracleCall(now, _policyIDhash);\r\n        } else {\r\n            string memory s1 =\r\n                \"json(https://firestore.googleapis.com/v1/projects/cherishdb-10aa5/databases/(default)/documents/RNIPP/\";\r\n            string memory s2 = _KYCidentifier;\r\n            string memory s3 = \").fields.status.stringValue\";\r\n            string memory APIcall = string(abi.encodePacked(s1, s2, s3));\r\n\r\n            bytes32 queryID = provable_query(\"URL\", APIcall);\r\n            queryIDregister[queryID] = _policyIDhash;\r\n            emit OracleCallSent(now, _policyIDhash, APIcall);\r\n        } */\r\n        // TO DELETE\r\n        policyManagement.finalizeClaim(\"deceased\", _policyIDhash);\r\n    }\r\n\r\n    function __callback(bytes32 _queryID, string memory _result)\r\n        public\r\n        override\r\n    {\r\n        require(\r\n            msg.sender == provable_cbAddress(),\r\n            \"Only the oracle can call this function\"\r\n        );\r\n        emit OracleAnswerReceived(now, _queryID, _result);\r\n\r\n        bytes32 _policyIDhash = queryIDregister[_queryID];\r\n        // to delete\r\n        lastOracleResult = _result;\r\n\r\n        policyManagement.finalizeClaim(_result, _policyIDhash);\r\n\r\n        delete queryIDregister[_queryID];\r\n    }\r\n\r\n    // public functions\r\n\r\n    function setContractRegistryAndAddresses(address _contractRegistry)\r\n        public\r\n        onlyOwner\r\n    {\r\n        require(\r\n            _contractRegistry != address(0),\r\n            \"Contract Registry address must be a valid address\"\r\n        );\r\n        _setContractRegistryAndAddresses(_contractRegistry);\r\n    }\r\n\r\n    // private functions\r\n\r\n    function _setContractRegistryAndAddresses(address _contractRegistry)\r\n        private\r\n    {\r\n        contractRegistry = ContractRegistry(_contractRegistry);\r\n        policyManagement = PolicyManagement(\r\n            contractRegistry.policyManagementContract()\r\n        );\r\n        emit ContractRegistryInitiated(_contractRegistry);\r\n    }\r\n}\r\n",
  "sourcePath": "/home/damas/cherish/contracts/ClaimsManagement.sol",
  "compiler": {
    "name": "solc",
    "version": "0.6.12+commit.27d51765.Emscripten.clang"
  },
  "schemaVersion": "3.3.3",
  "updatedAt": "2021-05-22T03:51:13.387Z",
  "devdoc": {
    "kind": "dev",
    "methods": {},
    "version": 1
  },
  "userdoc": {
    "kind": "user",
    "methods": {},
    "version": 1
  }
}