{
  "contractName": "ClaimsManagement2",
  "abi": [
    {
      "inputs": [],
      "stateMutability": "nonpayable",
      "type": "constructor"
    },
    {
      "anonymous": false,
      "inputs": [
        {
          "indexed": true,
          "internalType": "bytes32",
          "name": "id",
          "type": "bytes32"
        }
      ],
      "name": "ChainlinkCancelled",
      "type": "event"
    },
    {
      "anonymous": false,
      "inputs": [
        {
          "indexed": true,
          "internalType": "bytes32",
          "name": "id",
          "type": "bytes32"
        }
      ],
      "name": "ChainlinkFulfilled",
      "type": "event"
    },
    {
      "anonymous": false,
      "inputs": [
        {
          "indexed": true,
          "internalType": "bytes32",
          "name": "id",
          "type": "bytes32"
        }
      ],
      "name": "ChainlinkRequested",
      "type": "event"
    },
    {
      "anonymous": false,
      "inputs": [
        {
          "indexed": false,
          "internalType": "address",
          "name": "_contractRegistryAddress",
          "type": "address"
        }
      ],
      "name": "ContractRegistryInitiated",
      "type": "event"
    },
    {
      "anonymous": false,
      "inputs": [
        {
          "indexed": false,
          "internalType": "uint256",
          "name": "date",
          "type": "uint256"
        },
        {
          "indexed": false,
          "internalType": "bytes32",
          "name": "_policyIDhash",
          "type": "bytes32"
        }
      ],
      "name": "FailedOracleCall",
      "type": "event"
    },
    {
      "anonymous": false,
      "inputs": [
        {
          "indexed": false,
          "internalType": "uint256",
          "name": "date",
          "type": "uint256"
        },
        {
          "indexed": false,
          "internalType": "bytes32",
          "name": "_requestID",
          "type": "bytes32"
        },
        {
          "indexed": false,
          "internalType": "string",
          "name": "_result",
          "type": "string"
        }
      ],
      "name": "OracleAnswerReceived",
      "type": "event"
    },
    {
      "anonymous": false,
      "inputs": [
        {
          "indexed": false,
          "internalType": "uint256",
          "name": "date",
          "type": "uint256"
        },
        {
          "indexed": false,
          "internalType": "bytes32",
          "name": "_policyIDhash",
          "type": "bytes32"
        },
        {
          "indexed": false,
          "internalType": "string",
          "name": "_APIcall",
          "type": "string"
        }
      ],
      "name": "OracleCallSent",
      "type": "event"
    },
    {
      "inputs": [],
      "name": "contractOwner",
      "outputs": [
        {
          "internalType": "address",
          "name": "",
          "type": "address"
        }
      ],
      "stateMutability": "view",
      "type": "function"
    },
    {
      "inputs": [],
      "name": "contractRegistry",
      "outputs": [
        {
          "internalType": "contract ContractRegistry",
          "name": "",
          "type": "address"
        }
      ],
      "stateMutability": "view",
      "type": "function"
    },
    {
      "inputs": [],
      "name": "lastOracleResult",
      "outputs": [
        {
          "internalType": "string",
          "name": "",
          "type": "string"
        }
      ],
      "stateMutability": "view",
      "type": "function"
    },
    {
      "inputs": [],
      "name": "policyManagement",
      "outputs": [
        {
          "internalType": "contract PolicyManagement",
          "name": "",
          "type": "address"
        }
      ],
      "stateMutability": "view",
      "type": "function"
    },
    {
      "inputs": [
        {
          "internalType": "bytes32",
          "name": "",
          "type": "bytes32"
        }
      ],
      "name": "requestIDregister",
      "outputs": [
        {
          "internalType": "bytes32",
          "name": "",
          "type": "bytes32"
        }
      ],
      "stateMutability": "view",
      "type": "function"
    },
    {
      "inputs": [
        {
          "internalType": "bytes32",
          "name": "_policyIDhash",
          "type": "bytes32"
        },
        {
          "internalType": "string",
          "name": "_KYCidentifier",
          "type": "string"
        }
      ],
      "name": "getOracleConfirmation",
      "outputs": [],
      "stateMutability": "nonpayable",
      "type": "function"
    },
    {
      "inputs": [
        {
          "internalType": "bytes32",
          "name": "_requestId",
          "type": "bytes32"
        },
        {
          "internalType": "bytes32",
          "name": "_result",
          "type": "bytes32"
        }
      ],
      "name": "__callback",
      "outputs": [],
      "stateMutability": "nonpayable",
      "type": "function"
    },
    {
      "inputs": [
        {
          "internalType": "address",
          "name": "_contractRegistry",
          "type": "address"
        }
      ],
      "name": "setContractRegistryAndAddresses",
      "outputs": [],
      "stateMutability": "nonpayable",
      "type": "function"
    }
  ],
  "bytecode": "0x608060405260016004553480156200001657600080fd5b50620000276200006e60201b60201c565b33600860006101000a81548173ffffffffffffffffffffffffffffffffffffffff021916908373ffffffffffffffffffffffffffffffffffffffff1602179055506200015c565b6200011673c89bd4e1632d3a43cb03aaad5262cbe4038bc57173ffffffffffffffffffffffffffffffffffffffff166338cc48316040518163ffffffff1660e01b815260040160206040518083038186803b158015620000cd57600080fd5b505afa158015620000e2573d6000803e3d6000fd5b505050506040513d6020811015620000f957600080fd5b81019080805190602001909291905050506200011860201b60201c565b565b80600260006101000a81548173ffffffffffffffffffffffffffffffffffffffff021916908373ffffffffffffffffffffffffffffffffffffffff16021790555050565b611c3c806200016c6000396000f3fe608060405234801561001057600080fd5b50600436106100885760003560e01c8063c5016c691161005b578063c5016c69146101b0578063ce606ee0146101f4578063da77a66d14610228578063e9997942146102ab57610088565b80632a3a8b9e1461008d57806331b66af91461011057806383d2420b14610144578063abf410e51461017c575b600080fd5b6100956102ed565b6040518080602001828103825283818151815260200191508051906020019080838360005b838110156100d55780820151818401526020810190506100ba565b50505050905090810190601f1680156101025780820380516001836020036101000a031916815260200191505b509250505060405180910390f35b61011861038b565b604051808273ffffffffffffffffffffffffffffffffffffffff16815260200191505060405180910390f35b61017a6004803603604081101561015a57600080fd5b8101908080359060200190929190803590602001909291905050506103b1565b005b610184610a1d565b604051808273ffffffffffffffffffffffffffffffffffffffff16815260200191505060405180910390f35b6101f2600480360360208110156101c657600080fd5b81019080803573ffffffffffffffffffffffffffffffffffffffff169060200190929190505050610a43565b005b6101fc610b7b565b604051808273ffffffffffffffffffffffffffffffffffffffff16815260200191505060405180910390f35b6102a96004803603604081101561023e57600080fd5b81019080803590602001909291908035906020019064010000000081111561026557600080fd5b82018360208201111561027757600080fd5b8035906020019184600183028401116401000000008311171561029957600080fd5b9091929391929390505050610ba1565b005b6102d7600480360360208110156102c157600080fd5b8101908080359060200190929190505050610f2b565b6040518082815260200191505060405180910390f35b600d8054600181600116156101000203166002900480601f0160208091040260200160405190810160405280929190818152602001828054600181600116156101000203166002900480156103835780601f1061035857610100808354040283529160200191610383565b820191906000526020600020905b81548152906001019060200180831161036657829003601f168201915b505050505081565b600760009054906101000a900473ffffffffffffffffffffffffffffffffffffffff1681565b600960009054906101000a900473ffffffffffffffffffffffffffffffffffffffff1673ffffffffffffffffffffffffffffffffffffffff163373ffffffffffffffffffffffffffffffffffffffff1614610457576040517f08c379a0000000000000000000000000000000000000000000000000000000008152600401808060200182810382526026815260200180611b766026913960400191505060405180910390fd5b7f0fb1c389fe00ac07c1ea588fd1c5c7e166eeeaa00f90858e82cdc3e36508bfdd428373__bytesSwap_____________________________639201de55856040518263ffffffff1660e01b81526004018082815260200191505060006040518083038186803b1580156104c957600080fd5b505af41580156104dd573d6000803e3d6000fd5b505050506040513d6000823e3d601f19601f82011682018060405250602081101561050757600080fd5b810190808051604051939291908464010000000082111561052757600080fd5b8382019150602082018581111561053d57600080fd5b825186600182028301116401000000008211171561055a57600080fd5b8083526020830192505050908051906020019080838360005b8381101561058e578082015181840152602081019050610573565b50505050905090810190601f1680156105bb5780820380516001836020036101000a031916815260200191505b506040525050506040518084815260200183815260200180602001828103825283818151815260200191508051906020019080838360005b8381101561060e5780820151818401526020810190506105f3565b50505050905090810190601f16801561063b5780820380516001836020036101000a031916815260200191505b5094505050505060405180910390a16000600c600084815260200190815260200160002054905073__bytesSwap_____________________________639201de55836040518263ffffffff1660e01b81526004018082815260200191505060006040518083038186803b1580156106b157600080fd5b505af41580156106c5573d6000803e3d6000fd5b505050506040513d6000823e3d601f19601f8201168201806040525060208110156106ef57600080fd5b810190808051604051939291908464010000000082111561070f57600080fd5b8382019150602082018581111561072557600080fd5b825186600182028301116401000000008211171561074257600080fd5b8083526020830192505050908051906020019080838360005b8381101561077657808201518184015260208101905061075b565b50505050905090810190601f1680156107a35780820380516001836020036101000a031916815260200191505b50604052505050600d90805190602001906107bf92919061199f565b50600760009054906101000a900473ffffffffffffffffffffffffffffffffffffffff1673ffffffffffffffffffffffffffffffffffffffff16632ce9ac5373__bytesSwap_____________________________639201de55856040518263ffffffff1660e01b81526004018082815260200191505060006040518083038186803b15801561084d57600080fd5b505af4158015610861573d6000803e3d6000fd5b505050506040513d6000823e3d601f19601f82011682018060405250602081101561088b57600080fd5b81019080805160405193929190846401000000008211156108ab57600080fd5b838201915060208201858111156108c157600080fd5b82518660018202830111640100000000821117156108de57600080fd5b8083526020830192505050908051906020019080838360005b838110156109125780820151818401526020810190506108f7565b50505050905090810190601f16801561093f5780820380516001836020036101000a031916815260200191505b50604052505050836040518363ffffffff1660e01b81526004018080602001838152602001828103825284818151815260200191508051906020019080838360005b8381101561099c578082015181840152602081019050610981565b50505050905090810190601f1680156109c95780820380516001836020036101000a031916815260200191505b509350505050600060405180830381600087803b1580156109e957600080fd5b505af11580156109fd573d6000803e3d6000fd5b50505050600c600084815260200190815260200160002060009055505050565b600660009054906101000a900473ffffffffffffffffffffffffffffffffffffffff1681565b600860009054906101000a900473ffffffffffffffffffffffffffffffffffffffff1673ffffffffffffffffffffffffffffffffffffffff163373ffffffffffffffffffffffffffffffffffffffff1614610ae9576040517f08c379a000000000000000000000000000000000000000000000000000000000815260040180806020018281038252602e815260200180611ae7602e913960400191505060405180910390fd5b600073ffffffffffffffffffffffffffffffffffffffff168173ffffffffffffffffffffffffffffffffffffffff161415610b6f576040517f08c379a0000000000000000000000000000000000000000000000000000000008152600401808060200182810382526031815260200180611b9c6031913960400191505060405180910390fd5b610b7881610f43565b50565b600860009054906101000a900473ffffffffffffffffffffffffffffffffffffffff1681565b600660009054906101000a900473ffffffffffffffffffffffffffffffffffffffff1673ffffffffffffffffffffffffffffffffffffffff1663aa87a27f6040518163ffffffff1660e01b815260040160206040518083038186803b158015610c0957600080fd5b505afa158015610c1d573d6000803e3d6000fd5b505050506040513d6020811015610c3357600080fd5b810190808051906020019092919050505073ffffffffffffffffffffffffffffffffffffffff163373ffffffffffffffffffffffffffffffffffffffff1614610cc7576040517f08c379a000000000000000000000000000000000000000000000000000000000815260040180806020018281038252603a815260200180611bcd603a913960400191505060405180910390fd5b610ccf611a1f565b610ce3600a54306383d2420b60e01b6110b7565b905060606040518060a0016040528060618152602001611b15606191399050606084848080601f016020809104026020016040519081016040528093929190818152602001838380828437600081840152601f19601f820116905080830192505050505050509050606082826040516020018083805190602001908083835b60208310610d855780518252602082019150602081019050602083039250610d62565b6001836020036101000a03801982511681845116808217855250505050505090500182805190602001908083835b60208310610dd65780518252602082019150602081019050602083039250610db3565b6001836020036101000a038019825116818451168082178552505050505050905001925050506040516020818303038152906040529050610e576040518060400160405280600381526020017f676574000000000000000000000000000000000000000000000000000000000081525082866110e89092919063ffffffff16565b610ed66040518060400160405280600481526020017f70617468000000000000000000000000000000000000000000000000000000008152506040518060400160405280601981526020017f6669656c64732e7374617475732e737472696e6756616c756500000000000000815250866110e89092919063ffffffff16565b6000610f07600960009054906101000a900473ffffffffffffffffffffffffffffffffffffffff1686600b5461111b565b905087600c6000838152602001908152602001600020819055505050505050505050565b600c6020528060005260406000206000915090505481565b80600660006101000a81548173ffffffffffffffffffffffffffffffffffffffff021916908373ffffffffffffffffffffffffffffffffffffffff160217905550600660009054906101000a900473ffffffffffffffffffffffffffffffffffffffff1673ffffffffffffffffffffffffffffffffffffffff1663aa87a27f6040518163ffffffff1660e01b815260040160206040518083038186803b158015610fec57600080fd5b505afa158015611000573d6000803e3d6000fd5b505050506040513d602081101561101657600080fd5b8101908080519060200190929190505050600760006101000a81548173ffffffffffffffffffffffffffffffffffffffff021916908373ffffffffffffffffffffffffffffffffffffffff1602179055507fabce6688c89344ab9c7d3a216cd2b8780277012b336fcd254769bab697cdfce281604051808273ffffffffffffffffffffffffffffffffffffffff16815260200191505060405180910390a150565b6110bf611a1f565b6110c7611a1f565b6110de858585846113a4909392919063ffffffff16565b9150509392505050565b6110ff82846080015161145490919063ffffffff16565b61111681846080015161145490919063ffffffff16565b505050565b600030600454604051602001808373ffffffffffffffffffffffffffffffffffffffff1660601b815260140182815260200192505050604051602081830303815290604052805190602001209050600454836060018181525050836005600083815260200190815260200160002060006101000a81548173ffffffffffffffffffffffffffffffffffffffff021916908373ffffffffffffffffffffffffffffffffffffffff160217905550807fb5e6e01e79f91267dc17b4e6314d5d4d03593d2ceee0fbb452b750bd70ea5af960405160405180910390a2600260009054906101000a900473ffffffffffffffffffffffffffffffffffffffff1673ffffffffffffffffffffffffffffffffffffffff16634000aea0858461123d87611479565b6040518463ffffffff1660e01b8152600401808473ffffffffffffffffffffffffffffffffffffffff16815260200183815260200180602001828103825283818151815260200191508051906020019080838360005b838110156112ae578082015181840152602081019050611293565b50505050905090810190601f1680156112db5780820380516001836020036101000a031916815260200191505b50945050505050602060405180830381600087803b1580156112fc57600080fd5b505af1158015611310573d6000803e3d6000fd5b505050506040513d602081101561132657600080fd5b810190808051906020019092919050505061138c576040517f08c379a0000000000000000000000000000000000000000000000000000000008152600401808060200182810382526023815260200180611ac46023913960400191505060405180910390fd5b60016004600082825401925050819055509392505050565b6113ac611a1f565b6113bc85608001516101006115fa565b508385600001818152505082856020019073ffffffffffffffffffffffffffffffffffffffff16908173ffffffffffffffffffffffffffffffffffffffff16815250508185604001907bffffffffffffffffffffffffffffffffffffffffffffffffffffffff191690817bffffffffffffffffffffffffffffffffffffffffffffffffffffffff191681525050849050949350505050565b611461826003835161164e565b611474818361179390919063ffffffff16565b505050565b6060634042994660e01b60008084600001518560200151866040015187606001516001896080015160000151604051602401808973ffffffffffffffffffffffffffffffffffffffff1681526020018881526020018781526020018673ffffffffffffffffffffffffffffffffffffffff168152602001857bffffffffffffffffffffffffffffffffffffffffffffffffffffffff1916815260200184815260200183815260200180602001828103825283818151815260200191508051906020019080838360005b8381101561155d578082015181840152602081019050611542565b50505050905090810190601f16801561158a5780820380516001836020036101000a031916815260200191505b509950505050505050505050604051602081830303815290604052907bffffffffffffffffffffffffffffffffffffffffffffffffffffffff19166020820180517bffffffffffffffffffffffffffffffffffffffffffffffffffffffff83818316178352505050509050919050565b611602611a8c565b60006020838161160e57fe5b0614611627576020828161161e57fe5b06602003820191505b81836020018181525050604051808452600081528281016020016040525082905092915050565b6017811161167b576116758160058460ff16901b60ff1617846117b590919063ffffffff16565b5061178e565b60ff81116116bd576116a0601860058460ff16901b17846117b590919063ffffffff16565b506116b7816001856117d59092919063ffffffff16565b5061178d565b61ffff8111611700576116e3601960058460ff16901b17846117b590919063ffffffff16565b506116fa816002856117d59092919063ffffffff16565b5061178c565b63ffffffff811161174557611728601a60058460ff16901b17846117b590919063ffffffff16565b5061173f816004856117d59092919063ffffffff16565b5061178b565b67ffffffffffffffff811161178a57611771601b60058460ff16901b17846117b590919063ffffffff16565b50611788816008856117d59092919063ffffffff16565b505b5b5b5b5b505050565b61179b611a8c565b6117ad838460000151518485516117f7565b905092915050565b6117bd611a8c565b6117cd83846000015151846118b0565b905092915050565b6117dd611a8c565b6117ee8485600001515185856118fe565b90509392505050565b6117ff611a8c565b825182111561180d57600080fd5b8460200151828501111561183857611837856002611831886020015188870161195f565b0261197b565b5b6000808651805187602083010193508088870111156118575787860182525b60208701925050505b602084106118835780518252602082019150602081019050602084039350611860565b60006001856020036101000a03905080198251168184511681811785525050879350505050949350505050565b6118b8611a8c565b836020015183106118d5576118d484600286602001510261197b565b5b83518051602085830101848153818614156118f1576001820183525b5050508390509392505050565b611906611a8c565b84602001518483011115611924576119238560028685010261197b565b5b60006001836101000a03905085518386820101858319825116178152815185880111156119515784870182525b505085915050949350505050565b60008183111561197157829050611975565b8190505b92915050565b60608260000151905061198e83836115fa565b506119998382611793565b50505050565b828054600181600116156101000203166002900490600052602060002090601f016020900481019282601f106119e057805160ff1916838001178555611a0e565b82800160010185558215611a0e579182015b82811115611a0d5782518255916020019190600101906119f2565b5b509050611a1b9190611aa6565b5090565b6040518060a0016040528060008019168152602001600073ffffffffffffffffffffffffffffffffffffffff16815260200160007bffffffffffffffffffffffffffffffffffffffffffffffffffffffff1916815260200160008152602001611a86611a8c565b81525090565b604051806040016040528060608152602001600081525090565b5b80821115611abf576000816000905550600101611aa7565b509056fe756e61626c6520746f207472616e73666572416e6443616c6c20746f206f7261636c654f6e6c792074686520636f6e7472616374206f776e65722063616e2063616c6c20746869732066756e6374696f6e68747470733a2f2f6669726573746f72652e676f6f676c65617069732e636f6d2f76312f70726f6a656374732f6368657269736864622d31306161352f6461746162617365732f2864656661756c74292f646f63756d656e74732f524e4950502f4f6e6c7920746865206f7261636c652063616e2063616c6c20746869732066756e6374696f6e436f6e74726163742052656769737472792061646472657373206d75737420626520612076616c696420616464726573734f6e6c792074686520706f6c696379206d616e6167656d656e7420636f6e74726163742063616e2063616c6c20746869732066756e6374696f6ea264697066735822122024332e77726a49da59b0ddc9ebcd4cc597e1e4654d9f269b330872329e36e10364736f6c634300060c0033",
  "immutableReferences": {},
  "source": "pragma solidity >=0.4.21 <0.7.0;\r\n\r\nimport \"./ContractRegistry.sol\";\r\nimport \"./PolicyManagement.sol\";\r\nimport \"@chainlink/contracts/src/v0.6/ChainlinkClient.sol\";\r\n\r\nlibrary bytesSwap {\r\n    function bytes32ToString(bytes32 _bytes32)\r\n        public\r\n        pure\r\n        returns (string memory)\r\n    {\r\n        uint8 i = 0;\r\n        while (i < 32 && _bytes32[i] != 0) {\r\n            i++;\r\n        }\r\n        bytes memory bytesArray = new bytes(i);\r\n        for (i = 0; i < 32 && _bytes32[i] != 0; i++) {\r\n            bytesArray[i] = _bytes32[i];\r\n        }\r\n        return string(bytesArray);\r\n    }\r\n\r\n    function stringToBytes32(string memory source)\r\n        public\r\n        pure\r\n        returns (bytes32 result)\r\n    {\r\n        bytes memory tempEmptyStringTest = bytes(source);\r\n        if (tempEmptyStringTest.length == 0) {\r\n            return 0x0;\r\n        }\r\n\r\n        assembly {\r\n            // solhint-disable-line no-inline-assembly\r\n            result := mload(add(source, 32))\r\n        }\r\n    }\r\n}\r\n\r\ncontract ClaimsManagement2 is ChainlinkClient {\r\n    using bytesSwap for *;\r\n\r\n    // interfaces & contract instantiations\r\n\r\n    ContractRegistry public contractRegistry;\r\n    PolicyManagement public policyManagement;\r\n\r\n    // events\r\n\r\n    event ContractRegistryInitiated(address _contractRegistryAddress);\r\n\r\n    event FailedOracleCall(uint256 date, bytes32 _policyIDhash);\r\n    event OracleCallSent(uint256 date, bytes32 _policyIDhash, string _APIcall);\r\n    event OracleAnswerReceived(\r\n        uint256 date,\r\n        bytes32 _requestID,\r\n        string _result\r\n    );\r\n\r\n    // contract variables in storage\r\n\r\n    address public contractOwner;\r\n    address private oracle; // to be set in constructor\r\n    bytes32 private jobId; // to be set in constructor\r\n    uint256 private fee; // to be set in constructor\r\n    mapping(bytes32 => bytes32) public requestIDregister;\r\n    string public lastOracleResult; // for debugging\r\n\r\n    // modifiers\r\n\r\n    modifier onlyOwner() {\r\n        require(\r\n            msg.sender == contractOwner,\r\n            \"Only the contract owner can call this function\"\r\n        );\r\n        _;\r\n    }\r\n\r\n    // constructor function\r\n\r\n    constructor() public {\r\n        setPublicChainlinkToken(); // set manually the LINK token address if this function fails\r\n        contractOwner = msg.sender;\r\n    }\r\n\r\n    // oracle functions\r\n\r\n    function getOracleConfirmation(\r\n        bytes32 _policyIDhash,\r\n        string calldata _KYCidentifier\r\n    ) public {\r\n        require(\r\n            msg.sender == contractRegistry.policyManagementContract(),\r\n            \"Only the policy management contract can call this function\"\r\n        );\r\n\r\n        Chainlink.Request memory request =\r\n            buildChainlinkRequest(\r\n                jobId,\r\n                address(this),\r\n                this.__callback.selector\r\n            );\r\n        // Set the URL to perform the GET request on\r\n        string memory s1 =\r\n            \"https://firestore.googleapis.com/v1/projects/cherishdb-10aa5/databases/(default)/documents/RNIPP/\";\r\n        string memory s2 = _KYCidentifier;\r\n        string memory APIcall = string(abi.encodePacked(s1, s2));\r\n        request.add(\"get\", APIcall);\r\n        // Set the path to find the desired data in the API response, where the response format is:\r\n        request.add(\"path\", \"fields.status.stringValue\");\r\n        bytes32 _requestId = sendChainlinkRequestTo(oracle, request, fee);\r\n        requestIDregister[_requestId] = _policyIDhash;\r\n    }\r\n\r\n    function __callback(bytes32 _requestId, bytes32 _result) public {\r\n        require(msg.sender == oracle, \"Only the oracle can call this function\");\r\n        emit OracleAnswerReceived(\r\n            now,\r\n            _requestId,\r\n            bytesSwap.bytes32ToString(_result)\r\n        );\r\n\r\n        bytes32 _policyIDhash = requestIDregister[_requestId];\r\n        // to delete\r\n        lastOracleResult = bytesSwap.bytes32ToString(_result);\r\n\r\n        policyManagement.finalizeClaim(\r\n            bytesSwap.bytes32ToString(_result),\r\n            _policyIDhash\r\n        );\r\n\r\n        delete requestIDregister[_requestId];\r\n    }\r\n\r\n    // public functions\r\n\r\n    function setContractRegistryAndAddresses(address _contractRegistry)\r\n        public\r\n        onlyOwner\r\n    {\r\n        require(\r\n            _contractRegistry != address(0),\r\n            \"Contract Registry address must be a valid address\"\r\n        );\r\n        _setContractRegistryAndAddresses(_contractRegistry);\r\n    }\r\n\r\n    // private functions\r\n\r\n    function _setContractRegistryAndAddresses(address _contractRegistry)\r\n        private\r\n    {\r\n        contractRegistry = ContractRegistry(_contractRegistry);\r\n        policyManagement = PolicyManagement(\r\n            contractRegistry.policyManagementContract()\r\n        );\r\n        emit ContractRegistryInitiated(_contractRegistry);\r\n    }\r\n}\r\n",
  "sourcePath": "/home/damas/cherish/contracts/ClaimsManagement2.sol",
  "compiler": {
    "name": "solc",
    "version": "0.6.12+commit.27d51765.Emscripten.clang"
  },
  "schemaVersion": "3.3.3",
  "updatedAt": "2021-05-22T03:51:13.392Z",
  "devdoc": {
    "kind": "dev",
    "methods": {},
    "version": 1
  },
  "userdoc": {
    "kind": "user",
    "methods": {},
    "version": 1
  }
}