{
  "contractName": "InvestmentManagement",
  "abi": [
    {
      "inputs": [],
      "stateMutability": "nonpayable",
      "type": "constructor"
    },
    {
      "anonymous": false,
      "inputs": [
        {
          "indexed": false,
          "internalType": "uint256",
          "name": "date",
          "type": "uint256"
        },
        {
          "indexed": false,
          "internalType": "address",
          "name": "_contractRegistry",
          "type": "address"
        }
      ],
      "name": "ContractRegistryInitiated",
      "type": "event"
    },
    {
      "anonymous": false,
      "inputs": [
        {
          "indexed": false,
          "internalType": "uint256",
          "name": "date",
          "type": "uint256"
        },
        {
          "indexed": false,
          "internalType": "uint256",
          "name": "_amount",
          "type": "uint256"
        }
      ],
      "name": "FundsAddedToAave",
      "type": "event"
    },
    {
      "anonymous": false,
      "inputs": [
        {
          "indexed": false,
          "internalType": "uint256",
          "name": "date",
          "type": "uint256"
        },
        {
          "indexed": false,
          "internalType": "uint256",
          "name": "_amount",
          "type": "uint256"
        }
      ],
      "name": "FundsAddedToCompound",
      "type": "event"
    },
    {
      "anonymous": false,
      "inputs": [
        {
          "indexed": false,
          "internalType": "uint256",
          "name": "date",
          "type": "uint256"
        },
        {
          "indexed": false,
          "internalType": "uint256",
          "name": "_amount",
          "type": "uint256"
        }
      ],
      "name": "FundsWithdrawnFromAave",
      "type": "event"
    },
    {
      "anonymous": false,
      "inputs": [
        {
          "indexed": false,
          "internalType": "uint256",
          "name": "date",
          "type": "uint256"
        },
        {
          "indexed": false,
          "internalType": "uint256",
          "name": "_amount",
          "type": "uint256"
        }
      ],
      "name": "FundsWithdrawnFromCompound",
      "type": "event"
    },
    {
      "inputs": [],
      "name": "aaveLendingPool",
      "outputs": [
        {
          "internalType": "contract AaveLendingPool",
          "name": "",
          "type": "address"
        }
      ],
      "stateMutability": "view",
      "type": "function"
    },
    {
      "inputs": [],
      "name": "aavePaymentToken",
      "outputs": [
        {
          "internalType": "contract AavePaymentToken",
          "name": "",
          "type": "address"
        }
      ],
      "stateMutability": "view",
      "type": "function"
    },
    {
      "inputs": [],
      "name": "cPaymentToken",
      "outputs": [
        {
          "internalType": "contract CompoundPaymentToken",
          "name": "",
          "type": "address"
        }
      ],
      "stateMutability": "view",
      "type": "function"
    },
    {
      "inputs": [],
      "name": "contractRegistry",
      "outputs": [
        {
          "internalType": "contract ContractRegistry",
          "name": "",
          "type": "address"
        }
      ],
      "stateMutability": "view",
      "type": "function"
    },
    {
      "inputs": [],
      "name": "paymentToken",
      "outputs": [
        {
          "internalType": "contract IERC20",
          "name": "",
          "type": "address"
        }
      ],
      "stateMutability": "view",
      "type": "function"
    },
    {
      "inputs": [
        {
          "internalType": "address",
          "name": "_contractRegistry",
          "type": "address"
        }
      ],
      "name": "setContractRegistryAndAddresses",
      "outputs": [],
      "stateMutability": "nonpayable",
      "type": "function"
    },
    {
      "inputs": [
        {
          "internalType": "uint256",
          "name": "_amount",
          "type": "uint256"
        },
        {
          "internalType": "bool",
          "name": "_shutdown",
          "type": "bool"
        }
      ],
      "name": "withdrawInvestedFunds",
      "outputs": [],
      "stateMutability": "nonpayable",
      "type": "function"
    },
    {
      "inputs": [
        {
          "internalType": "uint256",
          "name": "_amount",
          "type": "uint256"
        }
      ],
      "name": "addFundsForInvestment",
      "outputs": [],
      "stateMutability": "nonpayable",
      "type": "function"
    },
    {
      "inputs": [],
      "name": "getInvestedFunds",
      "outputs": [
        {
          "internalType": "uint256",
          "name": "",
          "type": "uint256"
        }
      ],
      "stateMutability": "view",
      "type": "function"
    }
  ],
  "bytecode": "0x608060405234801561001057600080fd5b5033600560006101000a81548173ffffffffffffffffffffffffffffffffffffffff021916908373ffffffffffffffffffffffffffffffffffffffff160217905550612801806100616000396000f3fe608060405234801561001057600080fd5b50600436106100935760003560e01c8063a397910f11610066578063a397910f14610152578063abf410e514610186578063c5016c69146101ba578063df8a79d0146101fe578063e9d337b81461023257610093565b80633013ce29146100985780634c5dda0b146100cc5780637a7a2cf9146100fa5780639a00f3a814610118575b600080fd5b6100a0610266565b604051808273ffffffffffffffffffffffffffffffffffffffff16815260200191505060405180910390f35b6100f8600480360360208110156100e257600080fd5b810190808035906020019092919050505061028a565b005b6101026103bc565b6040518082815260200191505060405180910390f35b6101506004803603604081101561012e57600080fd5b8101908080359060200190929190803515159060200190929190505050610766565b005b61015a61089a565b604051808273ffffffffffffffffffffffffffffffffffffffff16815260200191505060405180910390f35b61018e6108c0565b604051808273ffffffffffffffffffffffffffffffffffffffff16815260200191505060405180910390f35b6101fc600480360360208110156101d057600080fd5b81019080803573ffffffffffffffffffffffffffffffffffffffff1690602001909291905050506108e6565b005b610206610a1e565b604051808273ffffffffffffffffffffffffffffffffffffffff16815260200191505060405180910390f35b61023a610a44565b604051808273ffffffffffffffffffffffffffffffffffffffff16815260200191505060405180910390f35b60008054906101000a900473ffffffffffffffffffffffffffffffffffffffff1681565b600460009054906101000a900473ffffffffffffffffffffffffffffffffffffffff1673ffffffffffffffffffffffffffffffffffffffff1663db2aebca6040518163ffffffff1660e01b815260040160206040518083038186803b1580156102f257600080fd5b505afa158015610306573d6000803e3d6000fd5b505050506040513d602081101561031c57600080fd5b810190808051906020019092919050505073ffffffffffffffffffffffffffffffffffffffff163373ffffffffffffffffffffffffffffffffffffffff16146103b0576040517f08c379a000000000000000000000000000000000000000000000000000000000815260040180806020018281038252603d81526020018061275e603d913960400191505060405180910390fd5b6103b981610a6a565b50565b6000806000600260009054906101000a900473ffffffffffffffffffffffffffffffffffffffff1673ffffffffffffffffffffffffffffffffffffffff166328dd2d01600460009054906101000a900473ffffffffffffffffffffffffffffffffffffffff1673ffffffffffffffffffffffffffffffffffffffff16634dcffde06040518163ffffffff1660e01b815260040160206040518083038186803b15801561046757600080fd5b505afa15801561047b573d6000803e3d6000fd5b505050506040513d602081101561049157600080fd5b8101908080519060200190929190505050306040518363ffffffff1660e01b8152600401808373ffffffffffffffffffffffffffffffffffffffff1681526020018273ffffffffffffffffffffffffffffffffffffffff168152602001925050506101406040518083038186803b15801561050b57600080fd5b505afa15801561051f573d6000803e3d6000fd5b505050506040513d61014081101561053657600080fd5b810190808051906020019092919080519060200190929190805190602001909291908051906020019092919080519060200190929190805190602001909291908051906020019092919080519060200190929190805190602001909291908051906020019092919050505050505050505050505090506000600160009054906101000a900473ffffffffffffffffffffffffffffffffffffffff1673ffffffffffffffffffffffffffffffffffffffff166370a08231306040518263ffffffff1660e01b8152600401808273ffffffffffffffffffffffffffffffffffffffff16815260200191505060206040518083038186803b15801561063757600080fd5b505afa15801561064b573d6000803e3d6000fd5b505050506040513d602081101561066157600080fd5b810190808051906020019092919050505090506000600160009054906101000a900473ffffffffffffffffffffffffffffffffffffffff1673ffffffffffffffffffffffffffffffffffffffff1663182df0f56040518163ffffffff1660e01b815260040160206040518083038186803b1580156106de57600080fd5b505afa1580156106f2573d6000803e3d6000fd5b505050506040513d602081101561070857600080fd5b8101908080519060200190929190505050905061075a61074b670de0b6b3a764000061073d848661100d90919063ffffffff16565b61109390919063ffffffff16565b846110dd90919063ffffffff16565b93508394505050505090565b600460009054906101000a900473ffffffffffffffffffffffffffffffffffffffff1673ffffffffffffffffffffffffffffffffffffffff1663db2aebca6040518163ffffffff1660e01b815260040160206040518083038186803b1580156107ce57600080fd5b505afa1580156107e2573d6000803e3d6000fd5b505050506040513d60208110156107f857600080fd5b810190808051906020019092919050505073ffffffffffffffffffffffffffffffffffffffff163373ffffffffffffffffffffffffffffffffffffffff161461088c576040517f08c379a000000000000000000000000000000000000000000000000000000000815260040180806020018281038252603d81526020018061275e603d913960400191505060405180910390fd5b6108968282611165565b5050565b600160009054906101000a900473ffffffffffffffffffffffffffffffffffffffff1681565b600460009054906101000a900473ffffffffffffffffffffffffffffffffffffffff1681565b600560009054906101000a900473ffffffffffffffffffffffffffffffffffffffff1673ffffffffffffffffffffffffffffffffffffffff163373ffffffffffffffffffffffffffffffffffffffff161461098c576040517f08c379a000000000000000000000000000000000000000000000000000000000815260040180806020018281038252602e81526020018061270f602e913960400191505060405180910390fd5b600073ffffffffffffffffffffffffffffffffffffffff168173ffffffffffffffffffffffffffffffffffffffff161415610a12576040517f08c379a000000000000000000000000000000000000000000000000000000000815260040180806020018281038252603181526020018061279b6031913960400191505060405180910390fd5b610a1b81612102565b50565b600360009054906101000a900473ffffffffffffffffffffffffffffffffffffffff1681565b600260009054906101000a900473ffffffffffffffffffffffffffffffffffffffff1681565b6000610a8060028361109390919063ffffffff16565b90506000610a97828461253e90919063ffffffff16565b905060008054906101000a900473ffffffffffffffffffffffffffffffffffffffff1673ffffffffffffffffffffffffffffffffffffffff1663095ea7b3600460009054906101000a900473ffffffffffffffffffffffffffffffffffffffff1673ffffffffffffffffffffffffffffffffffffffff1663aad7a5d26040518163ffffffff1660e01b815260040160206040518083038186803b158015610b3d57600080fd5b505afa158015610b51573d6000803e3d6000fd5b505050506040513d6020811015610b6757600080fd5b8101908080519060200190929190505050846040518363ffffffff1660e01b8152600401808373ffffffffffffffffffffffffffffffffffffffff16815260200182815260200192505050602060405180830381600087803b158015610bcc57600080fd5b505af1158015610be0573d6000803e3d6000fd5b505050506040513d6020811015610bf657600080fd5b810190808051906020019092919050505050600160009054906101000a900473ffffffffffffffffffffffffffffffffffffffff1673ffffffffffffffffffffffffffffffffffffffff1663a0712d68836040518263ffffffff1660e01b815260040180828152602001915050602060405180830381600087803b158015610c7d57600080fd5b505af1158015610c91573d6000803e3d6000fd5b505050506040513d6020811015610ca757600080fd5b8101908080519060200190929190505050507ffac639186b964ebc251ad4c0e93b0eba2065877a05b61a35bed8304c9cb4c8464283604051808381526020018281526020019250505060405180910390a160008054906101000a900473ffffffffffffffffffffffffffffffffffffffff1673ffffffffffffffffffffffffffffffffffffffff1663095ea7b3600460009054906101000a900473ffffffffffffffffffffffffffffffffffffffff1673ffffffffffffffffffffffffffffffffffffffff1663a601769460006040518263ffffffff1660e01b81526004018082815260200191505060206040518083038186803b158015610da857600080fd5b505afa158015610dbc573d6000803e3d6000fd5b505050506040513d6020811015610dd257600080fd5b8101908080519060200190929190505050836040518363ffffffff1660e01b8152600401808373ffffffffffffffffffffffffffffffffffffffff16815260200182815260200192505050602060405180830381600087803b158015610e3757600080fd5b505af1158015610e4b573d6000803e3d6000fd5b505050506040513d6020811015610e6157600080fd5b810190808051906020019092919050505050600260009054906101000a900473ffffffffffffffffffffffffffffffffffffffff1673ffffffffffffffffffffffffffffffffffffffff1663d2d0e066600460009054906101000a900473ffffffffffffffffffffffffffffffffffffffff1673ffffffffffffffffffffffffffffffffffffffff16634dcffde06040518163ffffffff1660e01b815260040160206040518083038186803b158015610f1957600080fd5b505afa158015610f2d573d6000803e3d6000fd5b505050506040513d6020811015610f4357600080fd5b81019080805190602001909291905050508360006040518463ffffffff1660e01b8152600401808473ffffffffffffffffffffffffffffffffffffffff1681526020018381526020018281526020019350505050600060405180830381600087803b158015610fb157600080fd5b505af1158015610fc5573d6000803e3d6000fd5b505050507faeca93de7401355c5d446bd2d7c7ab89dd8b94c3555fec99ec87c11b5712148a4282604051808381526020018281526020019250505060405180910390a1505050565b600080831415611020576000905061108d565b600082840290508284828161103157fe5b0414611088576040517f08c379a000000000000000000000000000000000000000000000000000000000815260040180806020018281038252602181526020018061273d6021913960400191505060405180910390fd5b809150505b92915050565b60006110d583836040518060400160405280601a81526020017f536166654d6174683a206469766973696f6e206279207a65726f000000000000815250612588565b905092915050565b60008082840190508381101561115b576040517f08c379a000000000000000000000000000000000000000000000000000000000815260040180806020018281038252601b8152602001807f536166654d6174683a206164646974696f6e206f766572666c6f77000000000081525060200191505060405180910390fd5b8091505092915050565b600061117b60028461109390919063ffffffff16565b90506000611192828561253e90919063ffffffff16565b90506000600160009054906101000a900473ffffffffffffffffffffffffffffffffffffffff1673ffffffffffffffffffffffffffffffffffffffff16633af9e669306040518263ffffffff1660e01b8152600401808273ffffffffffffffffffffffffffffffffffffffff168152602001915050602060405180830381600087803b15801561122157600080fd5b505af1158015611235573d6000803e3d6000fd5b505050506040513d602081101561124b57600080fd5b8101908080519060200190929190505050905080831161135a57600160009054906101000a900473ffffffffffffffffffffffffffffffffffffffff1673ffffffffffffffffffffffffffffffffffffffff1663852a12e3846040518263ffffffff1660e01b815260040180828152602001915050602060405180830381600087803b1580156112da57600080fd5b505af11580156112ee573d6000803e3d6000fd5b505050506040513d602081101561130457600080fd5b8101908080519060200190929190505050507f0cd41cd4e928971be2afdd8c3d90fd13502928b3321f6ea21d66525fe33aa07e4284604051808381526020018281526020019250505060405180910390a16114cb565b60011515841515141561145c57600160009054906101000a900473ffffffffffffffffffffffffffffffffffffffff1673ffffffffffffffffffffffffffffffffffffffff1663852a12e3826040518263ffffffff1660e01b815260040180828152602001915050602060405180830381600087803b1580156113dc57600080fd5b505af11580156113f0573d6000803e3d6000fd5b505050506040513d602081101561140657600080fd5b8101908080519060200190929190505050507f0cd41cd4e928971be2afdd8c3d90fd13502928b3321f6ea21d66525fe33aa07e4282604051808381526020018281526020019250505060405180910390a16114ca565b6040517f08c379a000000000000000000000000000000000000000000000000000000000815260040180806020018281038252601e8152602001807f496e73756666696369656e742066756e647320696e20436f6d706f756e64000081525060200191505060405180910390fd5b5b6000600260009054906101000a900473ffffffffffffffffffffffffffffffffffffffff1673ffffffffffffffffffffffffffffffffffffffff166328dd2d01600460009054906101000a900473ffffffffffffffffffffffffffffffffffffffff1673ffffffffffffffffffffffffffffffffffffffff16634dcffde06040518163ffffffff1660e01b815260040160206040518083038186803b15801561157357600080fd5b505afa158015611587573d6000803e3d6000fd5b505050506040513d602081101561159d57600080fd5b8101908080519060200190929190505050306040518363ffffffff1660e01b8152600401808373ffffffffffffffffffffffffffffffffffffffff1681526020018273ffffffffffffffffffffffffffffffffffffffff168152602001925050506101406040518083038186803b15801561161757600080fd5b505afa15801561162b573d6000803e3d6000fd5b505050506040513d61014081101561164257600080fd5b8101908080519060200190929190805190602001909291908051906020019092919080519060200190929190805190602001909291908051906020019092919080519060200190929190805190602001909291908051906020019092919080519060200190929190505050505050505050505050905080831161179057600360009054906101000a900473ffffffffffffffffffffffffffffffffffffffff1673ffffffffffffffffffffffffffffffffffffffff1663db006a75846040518263ffffffff1660e01b815260040180828152602001915050600060405180830381600087803b15801561173457600080fd5b505af1158015611748573d6000803e3d6000fd5b505050507fd4c2ab095bc52891eb85c276d3a99cd86bdc5d24f1ac5f6c167997a01379e6254284604051808381526020018281526020019250505060405180910390a16118dd565b60011515851515141561186e57600360009054906101000a900473ffffffffffffffffffffffffffffffffffffffff1673ffffffffffffffffffffffffffffffffffffffff1663db006a75826040518263ffffffff1660e01b815260040180828152602001915050600060405180830381600087803b15801561181257600080fd5b505af1158015611826573d6000803e3d6000fd5b505050507fd4c2ab095bc52891eb85c276d3a99cd86bdc5d24f1ac5f6c167997a01379e6254282604051808381526020018281526020019250505060405180910390a16118dc565b6040517f08c379a000000000000000000000000000000000000000000000000000000000815260040180806020018281038252601a8152602001807f496e73756666696369656e742066756e647320696e204161766500000000000081525060200191505060405180910390fd5b5b600115158515151480156119b157508560008054906101000a900473ffffffffffffffffffffffffffffffffffffffff1673ffffffffffffffffffffffffffffffffffffffff166370a08231306040518263ffffffff1660e01b8152600401808273ffffffffffffffffffffffffffffffffffffffff16815260200191505060206040518083038186803b15801561197457600080fd5b505afa158015611988573d6000803e3d6000fd5b505050506040513d602081101561199e57600080fd5b8101908080519060200190929190505050105b15611e1b5760008054906101000a900473ffffffffffffffffffffffffffffffffffffffff1673ffffffffffffffffffffffffffffffffffffffff1663095ea7b3600460009054906101000a900473ffffffffffffffffffffffffffffffffffffffff1673ffffffffffffffffffffffffffffffffffffffff1663db2aebca6040518163ffffffff1660e01b815260040160206040518083038186803b158015611a5a57600080fd5b505afa158015611a6e573d6000803e3d6000fd5b505050506040513d6020811015611a8457600080fd5b810190808051906020019092919050505060008054906101000a900473ffffffffffffffffffffffffffffffffffffffff1673ffffffffffffffffffffffffffffffffffffffff166370a08231306040518263ffffffff1660e01b8152600401808273ffffffffffffffffffffffffffffffffffffffff16815260200191505060206040518083038186803b158015611b1c57600080fd5b505afa158015611b30573d6000803e3d6000fd5b505050506040513d6020811015611b4657600080fd5b81019080805190602001909291905050506040518363ffffffff1660e01b8152600401808373ffffffffffffffffffffffffffffffffffffffff16815260200182815260200192505050602060405180830381600087803b158015611baa57600080fd5b505af1158015611bbe573d6000803e3d6000fd5b505050506040513d6020811015611bd457600080fd5b81019080805190602001909291905050505060008054906101000a900473ffffffffffffffffffffffffffffffffffffffff1673ffffffffffffffffffffffffffffffffffffffff1663a9059cbb600460009054906101000a900473ffffffffffffffffffffffffffffffffffffffff1673ffffffffffffffffffffffffffffffffffffffff1663db2aebca6040518163ffffffff1660e01b815260040160206040518083038186803b158015611c8a57600080fd5b505afa158015611c9e573d6000803e3d6000fd5b505050506040513d6020811015611cb457600080fd5b810190808051906020019092919050505060008054906101000a900473ffffffffffffffffffffffffffffffffffffffff1673ffffffffffffffffffffffffffffffffffffffff166370a08231306040518263ffffffff1660e01b8152600401808273ffffffffffffffffffffffffffffffffffffffff16815260200191505060206040518083038186803b158015611d4c57600080fd5b505afa158015611d60573d6000803e3d6000fd5b505050506040513d6020811015611d7657600080fd5b81019080805190602001909291905050506040518363ffffffff1660e01b8152600401808373ffffffffffffffffffffffffffffffffffffffff16815260200182815260200192505050602060405180830381600087803b158015611dda57600080fd5b505af1158015611dee573d6000803e3d6000fd5b505050506040513d6020811015611e0457600080fd5b8101908080519060200190929190505050506120fa565b60008054906101000a900473ffffffffffffffffffffffffffffffffffffffff1673ffffffffffffffffffffffffffffffffffffffff1663095ea7b3600460009054906101000a900473ffffffffffffffffffffffffffffffffffffffff1673ffffffffffffffffffffffffffffffffffffffff1663db2aebca6040518163ffffffff1660e01b815260040160206040518083038186803b158015611ebf57600080fd5b505afa158015611ed3573d6000803e3d6000fd5b505050506040513d6020811015611ee957600080fd5b8101908080519060200190929190505050886040518363ffffffff1660e01b8152600401808373ffffffffffffffffffffffffffffffffffffffff16815260200182815260200192505050602060405180830381600087803b158015611f4e57600080fd5b505af1158015611f62573d6000803e3d6000fd5b505050506040513d6020811015611f7857600080fd5b81019080805190602001909291905050505060008054906101000a900473ffffffffffffffffffffffffffffffffffffffff1673ffffffffffffffffffffffffffffffffffffffff1663a9059cbb600460009054906101000a900473ffffffffffffffffffffffffffffffffffffffff1673ffffffffffffffffffffffffffffffffffffffff1663db2aebca6040518163ffffffff1660e01b815260040160206040518083038186803b15801561202e57600080fd5b505afa158015612042573d6000803e3d6000fd5b505050506040513d602081101561205857600080fd5b8101908080519060200190929190505050886040518363ffffffff1660e01b8152600401808373ffffffffffffffffffffffffffffffffffffffff16815260200182815260200192505050602060405180830381600087803b1580156120bd57600080fd5b505af11580156120d1573d6000803e3d6000fd5b505050506040513d60208110156120e757600080fd5b8101908080519060200190929190505050505b505050505050565b80600460006101000a81548173ffffffffffffffffffffffffffffffffffffffff021916908373ffffffffffffffffffffffffffffffffffffffff160217905550600460009054906101000a900473ffffffffffffffffffffffffffffffffffffffff1673ffffffffffffffffffffffffffffffffffffffff16634dcffde06040518163ffffffff1660e01b815260040160206040518083038186803b1580156121ab57600080fd5b505afa1580156121bf573d6000803e3d6000fd5b505050506040513d60208110156121d557600080fd5b81019080805190602001909291905050506000806101000a81548173ffffffffffffffffffffffffffffffffffffffff021916908373ffffffffffffffffffffffffffffffffffffffff160217905550600460009054906101000a900473ffffffffffffffffffffffffffffffffffffffff1673ffffffffffffffffffffffffffffffffffffffff1663aad7a5d26040518163ffffffff1660e01b815260040160206040518083038186803b15801561228d57600080fd5b505afa1580156122a1573d6000803e3d6000fd5b505050506040513d60208110156122b757600080fd5b8101908080519060200190929190505050600160006101000a81548173ffffffffffffffffffffffffffffffffffffffff021916908373ffffffffffffffffffffffffffffffffffffffff160217905550600460009054906101000a900473ffffffffffffffffffffffffffffffffffffffff1673ffffffffffffffffffffffffffffffffffffffff1663a601769460016040518263ffffffff1660e01b81526004018082815260200191505060206040518083038186803b15801561237c57600080fd5b505afa158015612390573d6000803e3d6000fd5b505050506040513d60208110156123a657600080fd5b8101908080519060200190929190505050600260006101000a81548173ffffffffffffffffffffffffffffffffffffffff021916908373ffffffffffffffffffffffffffffffffffffffff160217905550600460009054906101000a900473ffffffffffffffffffffffffffffffffffffffff1673ffffffffffffffffffffffffffffffffffffffff1663a601769460026040518263ffffffff1660e01b81526004018082815260200191505060206040518083038186803b15801561246b57600080fd5b505afa15801561247f573d6000803e3d6000fd5b505050506040513d602081101561249557600080fd5b8101908080519060200190929190505050600360006101000a81548173ffffffffffffffffffffffffffffffffffffffff021916908373ffffffffffffffffffffffffffffffffffffffff1602179055507f9aacf74b8f864f2de207ce15af970853b27803781f237a89c9bb008298eef9654282604051808381526020018273ffffffffffffffffffffffffffffffffffffffff1681526020019250505060405180910390a150565b600061258083836040518060400160405280601e81526020017f536166654d6174683a207375627472616374696f6e206f766572666c6f77000081525061264e565b905092915050565b60008083118290612634576040517f08c379a00000000000000000000000000000000000000000000000000000000081526004018080602001828103825283818151815260200191508051906020019080838360005b838110156125f95780820151818401526020810190506125de565b50505050905090810190601f1680156126265780820380516001836020036101000a031916815260200191505b509250505060405180910390fd5b50600083858161264057fe5b049050809150509392505050565b60008383111582906126fb576040517f08c379a00000000000000000000000000000000000000000000000000000000081526004018080602001828103825283818151815260200191508051906020019080838360005b838110156126c05780820151818401526020810190506126a5565b50505050905090810190601f1680156126ed5780820380516001836020036101000a031916815260200191505b509250505060405180910390fd5b506000838503905080915050939250505056fe4f6e6c792074686520636f6e7472616374206f776e65722063616e2063616c6c20746869732066756e6374696f6e536166654d6174683a206d756c7469706c69636174696f6e206f766572666c6f774f6e6c7920746865206c6971756964697479206d616e6167656d656e7420636f6e74726163742063616e2063616c6c20746869732066756e6374696f6e436f6e74726163742052656769737472792061646472657373206d75737420626520612076616c69642061646472657373a26469706673582212200a51fd929c7335e1ecf777bd1ea491fab1a52caeaf0eae40a4ad6ceb4e2b715564736f6c634300060c0033",
  "immutableReferences": {},
  "source": "pragma solidity >=0.4.21 <0.7.0;\r\n\r\nimport \"@openzeppelin/contracts/token/ERC20/IERC20.sol\";\r\nimport \"@openzeppelin/contracts/math/SafeMath.sol\";\r\nimport \"./ContractRegistry.sol\";\r\n\r\ninterface CompoundPaymentToken {\r\n    function mint(uint256) external returns (uint256);\r\n\r\n    function redeemUnderlying(uint256) external returns (uint256);\r\n\r\n    function balanceOf(address) external view returns (uint256);\r\n\r\n    function balanceOfUnderlying(address owner) external returns (uint256);\r\n\r\n    function exchangeRateStored() external view returns (uint256);\r\n}\r\n\r\ninterface AaveLendingPool {\r\n    function deposit(\r\n        address,\r\n        uint256,\r\n        uint16\r\n    ) external payable;\r\n\r\n    function getReserveData(address)\r\n        external\r\n        view\r\n        returns (\r\n            uint256,\r\n            uint256,\r\n            uint256,\r\n            uint256,\r\n            uint256,\r\n            uint256,\r\n            uint256,\r\n            uint256,\r\n            uint256,\r\n            uint256,\r\n            uint256,\r\n            address,\r\n            uint40\r\n        );\r\n\r\n    function getUserReserveData(address, address)\r\n        external\r\n        view\r\n        returns (\r\n            uint256,\r\n            uint256,\r\n            uint256,\r\n            uint256,\r\n            uint256,\r\n            uint256,\r\n            uint256,\r\n            uint256,\r\n            uint256,\r\n            bool\r\n        );\r\n}\r\n\r\ninterface AavePaymentToken {\r\n    function redeem(uint256) external;\r\n\r\n    function balanceOf(address) external view returns (uint256);\r\n}\r\n\r\ncontract InvestmentManagement {\r\n    using SafeMath for uint256;\r\n\r\n    // interfaces & contract instantiations\r\n\r\n    IERC20 public paymentToken;\r\n    CompoundPaymentToken public cPaymentToken;\r\n    AaveLendingPool public aaveLendingPool;\r\n    AavePaymentToken public aavePaymentToken;\r\n    ContractRegistry public contractRegistry;\r\n\r\n    // events\r\n\r\n    event ContractRegistryInitiated(uint256 date, address _contractRegistry);\r\n    event FundsWithdrawnFromCompound(uint256 date, uint256 _amount);\r\n    event FundsWithdrawnFromAave(uint256 date, uint256 _amount);\r\n    event FundsAddedToCompound(uint256 date, uint256 _amount);\r\n    event FundsAddedToAave(uint256 date, uint256 _amount);\r\n\r\n    // enums and structs\r\n\r\n    // contract variables in storage\r\n\r\n    address contractOwner;\r\n\r\n    // modifiers\r\n\r\n    modifier onlyOwner() {\r\n        require(\r\n            msg.sender == contractOwner,\r\n            \"Only the contract owner can call this function\"\r\n        );\r\n        _;\r\n    }\r\n\r\n    modifier onlyLiqMgt() {\r\n        require(\r\n            msg.sender == contractRegistry.liquidityManagementContract(),\r\n            \"Only the liquidity management contract can call this function\"\r\n        );\r\n        _;\r\n    }\r\n\r\n    // constructor function\r\n\r\n    constructor() public {\r\n        contractOwner = msg.sender;\r\n    }\r\n\r\n    // test/admin functions\r\n\r\n    // public functions\r\n\r\n    function setContractRegistryAndAddresses(address _contractRegistry)\r\n        public\r\n        onlyOwner\r\n    {\r\n        require(\r\n            _contractRegistry != address(0),\r\n            \"Contract Registry address must be a valid address\"\r\n        );\r\n        _setContractRegistryAndAddresses(_contractRegistry);\r\n    }\r\n\r\n    function withdrawInvestedFunds(uint256 _amount, bool _shutdown)\r\n        public\r\n        onlyLiqMgt\r\n    {\r\n        _withdrawInvestedFunds(_amount, _shutdown);\r\n    }\r\n\r\n    function addFundsForInvestment(uint256 _amount) public onlyLiqMgt {\r\n        _addFundsForInvestment(_amount);\r\n    }\r\n\r\n    function getInvestedFunds() public view returns (uint256) {\r\n        uint256 investedFunds;\r\n\r\n        (uint256 aaveFunds, , , , , , , , , ) =\r\n            aaveLendingPool.getUserReserveData(\r\n                contractRegistry.paymentTokenContract(),\r\n                address(this)\r\n            );\r\n\r\n        uint256 cTokens = cPaymentToken.balanceOf(address(this));\r\n        uint256 compoundExchangeRate = cPaymentToken.exchangeRateStored();\r\n\r\n        investedFunds = aaveFunds.add(\r\n            (cTokens.mul(compoundExchangeRate)).div(10**18)\r\n        );\r\n\r\n        return investedFunds;\r\n    }\r\n\r\n    // private functions\r\n\r\n    function _setContractRegistryAndAddresses(address _contractRegistry)\r\n        private\r\n    {\r\n        contractRegistry = ContractRegistry(_contractRegistry);\r\n        paymentToken = IERC20(contractRegistry.paymentTokenContract());\r\n        cPaymentToken = CompoundPaymentToken(\r\n            contractRegistry.compoundPaymentTokenAddress()\r\n        );\r\n        aaveLendingPool = AaveLendingPool(contractRegistry.aaveAddresses(1));\r\n        aavePaymentToken = AavePaymentToken(contractRegistry.aaveAddresses(2));\r\n\r\n        emit ContractRegistryInitiated(now, _contractRegistry);\r\n    }\r\n\r\n    function _withdrawInvestedFunds(uint256 _amount, bool _shutdown) private {\r\n        uint256 firstHalf = _amount.div(2);\r\n        uint256 secondHalf = _amount.sub(firstHalf);\r\n\r\n        // withdraw half of the funds from Compound\r\n        uint256 compoundUnderlyingBalance =\r\n            cPaymentToken.balanceOfUnderlying(address(this));\r\n        if (firstHalf <= compoundUnderlyingBalance) {\r\n            cPaymentToken.redeemUnderlying(firstHalf);\r\n            emit FundsWithdrawnFromCompound(now, firstHalf);\r\n        } else if (_shutdown == true) {\r\n            cPaymentToken.redeemUnderlying(compoundUnderlyingBalance);\r\n            emit FundsWithdrawnFromCompound(now, compoundUnderlyingBalance);\r\n        } else {\r\n            revert(\"Insufficient funds in Compound\");\r\n        }\r\n\r\n        // withdraw other half of the funds from Aave\r\n        (uint256 aaveFunds, , , , , , , , , ) =\r\n            aaveLendingPool.getUserReserveData(\r\n                contractRegistry.paymentTokenContract(),\r\n                address(this)\r\n            );\r\n\r\n        if (secondHalf <= aaveFunds) {\r\n            aavePaymentToken.redeem(secondHalf);\r\n            emit FundsWithdrawnFromAave(now, secondHalf);\r\n        } else if (_shutdown == true) {\r\n            aavePaymentToken.redeem(aaveFunds);\r\n            emit FundsWithdrawnFromAave(now, aaveFunds);\r\n        } else {\r\n            revert(\"Insufficient funds in Aave\");\r\n        }\r\n\r\n        // send funds to Liquidity Management Contract\r\n        if (\r\n            _shutdown == true && paymentToken.balanceOf(address(this)) < _amount\r\n        ) {\r\n            paymentToken.approve(\r\n                contractRegistry.liquidityManagementContract(),\r\n                paymentToken.balanceOf(address(this))\r\n            );\r\n            paymentToken.transfer(\r\n                contractRegistry.liquidityManagementContract(),\r\n                paymentToken.balanceOf(address(this))\r\n            );\r\n        } else {\r\n            paymentToken.approve(\r\n                contractRegistry.liquidityManagementContract(),\r\n                _amount\r\n            );\r\n            paymentToken.transfer(\r\n                contractRegistry.liquidityManagementContract(),\r\n                _amount\r\n            );\r\n        }\r\n    }\r\n\r\n    function _addFundsForInvestment(uint256 _amount) private {\r\n        uint256 firstHalf = _amount.div(2);\r\n        uint256 secondHalf = _amount.sub(firstHalf);\r\n\r\n        // place half of the funds into Compound\r\n        paymentToken.approve(\r\n            contractRegistry.compoundPaymentTokenAddress(),\r\n            firstHalf\r\n        );\r\n        cPaymentToken.mint(firstHalf);\r\n        emit FundsAddedToCompound(now, firstHalf);\r\n\r\n        // place other half of the funds into aaveLendingPool\r\n\r\n        paymentToken.approve(contractRegistry.aaveAddresses(0), secondHalf);\r\n        aaveLendingPool.deposit(\r\n            contractRegistry.paymentTokenContract(),\r\n            secondHalf,\r\n            0\r\n        );\r\n        emit FundsAddedToAave(now, secondHalf);\r\n    }\r\n}\r\n",
  "sourcePath": "/home/damas/cherish/contracts/InvestmentManagement.sol",
  "compiler": {
    "name": "solc",
    "version": "0.6.12+commit.27d51765.Emscripten.clang"
  },
  "schemaVersion": "3.3.3",
  "updatedAt": "2021-05-22T03:51:13.490Z",
  "devdoc": {
    "kind": "dev",
    "methods": {},
    "version": 1
  },
  "userdoc": {
    "kind": "user",
    "methods": {},
    "version": 1
  }
}