{
  "contractName": "LiquidityManagement",
  "abi": [
    {
      "inputs": [],
      "stateMutability": "nonpayable",
      "type": "constructor"
    },
    {
      "anonymous": false,
      "inputs": [
        {
          "indexed": true,
          "internalType": "address",
          "name": "owner",
          "type": "address"
        },
        {
          "indexed": true,
          "internalType": "address",
          "name": "spender",
          "type": "address"
        },
        {
          "indexed": false,
          "internalType": "uint256",
          "name": "value",
          "type": "uint256"
        }
      ],
      "name": "Approval",
      "type": "event"
    },
    {
      "anonymous": false,
      "inputs": [
        {
          "indexed": false,
          "internalType": "uint256",
          "name": "date",
          "type": "uint256"
        }
      ],
      "name": "ContractOpenedForContributions",
      "type": "event"
    },
    {
      "anonymous": false,
      "inputs": [
        {
          "indexed": false,
          "internalType": "uint256",
          "name": "date",
          "type": "uint256"
        },
        {
          "indexed": false,
          "internalType": "address",
          "name": "_contractRegistry",
          "type": "address"
        }
      ],
      "name": "ContractRegistryInitiated",
      "type": "event"
    },
    {
      "anonymous": false,
      "inputs": [
        {
          "indexed": false,
          "internalType": "uint256",
          "name": "date",
          "type": "uint256"
        },
        {
          "indexed": false,
          "internalType": "uint256",
          "name": "_currentLiquidityReserves",
          "type": "uint256"
        },
        {
          "indexed": false,
          "internalType": "uint256",
          "name": "_totalAvailableReserves",
          "type": "uint256"
        }
      ],
      "name": "ContributionsClosedContractActive",
      "type": "event"
    },
    {
      "anonymous": false,
      "inputs": [
        {
          "indexed": false,
          "internalType": "uint256",
          "name": "date",
          "type": "uint256"
        },
        {
          "indexed": false,
          "internalType": "uint256",
          "name": "_payout",
          "type": "uint256"
        },
        {
          "indexed": false,
          "internalType": "uint256",
          "name": "_currentLiquidityReserves",
          "type": "uint256"
        },
        {
          "indexed": false,
          "internalType": "uint256",
          "name": "_totalAvailableReserves",
          "type": "uint256"
        }
      ],
      "name": "LiabilityRemoved",
      "type": "event"
    },
    {
      "anonymous": false,
      "inputs": [
        {
          "indexed": false,
          "internalType": "uint256",
          "name": "date",
          "type": "uint256"
        },
        {
          "indexed": false,
          "internalType": "address",
          "name": "_contributor",
          "type": "address"
        },
        {
          "indexed": false,
          "internalType": "uint256",
          "name": "_amount",
          "type": "uint256"
        },
        {
          "indexed": false,
          "internalType": "uint256",
          "name": "_currentLiquidityReserves",
          "type": "uint256"
        },
        {
          "indexed": false,
          "internalType": "uint256",
          "name": "_totalAvailableReserves",
          "type": "uint256"
        }
      ],
      "name": "LiquidityAddedViaContribution",
      "type": "event"
    },
    {
      "anonymous": false,
      "inputs": [
        {
          "indexed": false,
          "internalType": "uint256",
          "name": "date",
          "type": "uint256"
        },
        {
          "indexed": false,
          "internalType": "address",
          "name": "_withdrawer",
          "type": "address"
        },
        {
          "indexed": false,
          "internalType": "uint256",
          "name": "_payout",
          "type": "uint256"
        },
        {
          "indexed": false,
          "internalType": "uint256",
          "name": "_currentLiquidityReserves",
          "type": "uint256"
        },
        {
          "indexed": false,
          "internalType": "uint256",
          "name": "_totalAvailableReserves",
          "type": "uint256"
        }
      ],
      "name": "LiquidityWithdrawnViaBuyback",
      "type": "event"
    },
    {
      "anonymous": false,
      "inputs": [
        {
          "indexed": false,
          "internalType": "uint256",
          "name": "date",
          "type": "uint256"
        },
        {
          "indexed": false,
          "internalType": "address",
          "name": "_beneficiary",
          "type": "address"
        },
        {
          "indexed": false,
          "internalType": "uint256",
          "name": "_payout",
          "type": "uint256"
        },
        {
          "indexed": false,
          "internalType": "uint256",
          "name": "_currentLiquidityReserves",
          "type": "uint256"
        },
        {
          "indexed": false,
          "internalType": "uint256",
          "name": "_totalAvailableReserves",
          "type": "uint256"
        }
      ],
      "name": "LiquidityWithdrawnViaPayout",
      "type": "event"
    },
    {
      "anonymous": false,
      "inputs": [
        {
          "indexed": false,
          "internalType": "uint256",
          "name": "date",
          "type": "uint256"
        },
        {
          "indexed": false,
          "internalType": "uint256",
          "name": "_liability",
          "type": "uint256"
        },
        {
          "indexed": false,
          "internalType": "uint256",
          "name": "_currentLiquidityReserves",
          "type": "uint256"
        },
        {
          "indexed": false,
          "internalType": "uint256",
          "name": "_totalAvailableReserves",
          "type": "uint256"
        },
        {
          "indexed": false,
          "internalType": "uint256",
          "name": "_totalLiabilities",
          "type": "uint256"
        },
        {
          "indexed": false,
          "internalType": "uint256",
          "name": "_minimumCapitalReserve",
          "type": "uint256"
        },
        {
          "indexed": false,
          "internalType": "uint256",
          "name": "_lowerLiquidityLimit",
          "type": "uint256"
        },
        {
          "indexed": false,
          "internalType": "uint256",
          "name": "_higherLiquidityLimit",
          "type": "uint256"
        }
      ],
      "name": "NewPolicyAdded",
      "type": "event"
    },
    {
      "anonymous": false,
      "inputs": [
        {
          "indexed": false,
          "internalType": "uint256",
          "name": "date",
          "type": "uint256"
        },
        {
          "indexed": false,
          "internalType": "uint256",
          "name": "_currentLiquidityReserves",
          "type": "uint256"
        },
        {
          "indexed": false,
          "internalType": "uint256",
          "name": "_totalAvailableReserves",
          "type": "uint256"
        }
      ],
      "name": "PremiumReceived",
      "type": "event"
    },
    {
      "anonymous": false,
      "inputs": [
        {
          "indexed": false,
          "internalType": "uint256",
          "name": "date",
          "type": "uint256"
        },
        {
          "indexed": false,
          "internalType": "enum LiquidityManagement.ContractState",
          "name": "",
          "type": "uint8"
        }
      ],
      "name": "SystemPauseToggled",
      "type": "event"
    },
    {
      "anonymous": false,
      "inputs": [
        {
          "indexed": false,
          "internalType": "uint256",
          "name": "date",
          "type": "uint256"
        },
        {
          "indexed": false,
          "internalType": "enum LiquidityManagement.ContractState",
          "name": "",
          "type": "uint8"
        }
      ],
      "name": "SystemShutdown",
      "type": "event"
    },
    {
      "anonymous": false,
      "inputs": [
        {
          "indexed": true,
          "internalType": "address",
          "name": "from",
          "type": "address"
        },
        {
          "indexed": true,
          "internalType": "address",
          "name": "to",
          "type": "address"
        },
        {
          "indexed": false,
          "internalType": "uint256",
          "name": "value",
          "type": "uint256"
        }
      ],
      "name": "Transfer",
      "type": "event"
    },
    {
      "inputs": [
        {
          "internalType": "address",
          "name": "owner",
          "type": "address"
        },
        {
          "internalType": "address",
          "name": "spender",
          "type": "address"
        }
      ],
      "name": "allowance",
      "outputs": [
        {
          "internalType": "uint256",
          "name": "",
          "type": "uint256"
        }
      ],
      "stateMutability": "view",
      "type": "function"
    },
    {
      "inputs": [
        {
          "internalType": "address",
          "name": "spender",
          "type": "address"
        },
        {
          "internalType": "uint256",
          "name": "amount",
          "type": "uint256"
        }
      ],
      "name": "approve",
      "outputs": [
        {
          "internalType": "bool",
          "name": "",
          "type": "bool"
        }
      ],
      "stateMutability": "nonpayable",
      "type": "function"
    },
    {
      "inputs": [
        {
          "internalType": "address",
          "name": "account",
          "type": "address"
        }
      ],
      "name": "balanceOf",
      "outputs": [
        {
          "internalType": "uint256",
          "name": "",
          "type": "uint256"
        }
      ],
      "stateMutability": "view",
      "type": "function"
    },
    {
      "inputs": [],
      "name": "contractRegistry",
      "outputs": [
        {
          "internalType": "contract ContractRegistry",
          "name": "",
          "type": "address"
        }
      ],
      "stateMutability": "view",
      "type": "function"
    },
    {
      "inputs": [],
      "name": "currentContractState",
      "outputs": [
        {
          "internalType": "enum LiquidityManagement.ContractState",
          "name": "",
          "type": "uint8"
        }
      ],
      "stateMutability": "view",
      "type": "function"
    },
    {
      "inputs": [],
      "name": "currentLiquidityReserves",
      "outputs": [
        {
          "internalType": "uint256",
          "name": "",
          "type": "uint256"
        }
      ],
      "stateMutability": "view",
      "type": "function"
    },
    {
      "inputs": [],
      "name": "decimals",
      "outputs": [
        {
          "internalType": "uint8",
          "name": "",
          "type": "uint8"
        }
      ],
      "stateMutability": "view",
      "type": "function"
    },
    {
      "inputs": [
        {
          "internalType": "address",
          "name": "spender",
          "type": "address"
        },
        {
          "internalType": "uint256",
          "name": "subtractedValue",
          "type": "uint256"
        }
      ],
      "name": "decreaseAllowance",
      "outputs": [
        {
          "internalType": "bool",
          "name": "",
          "type": "bool"
        }
      ],
      "stateMutability": "nonpayable",
      "type": "function"
    },
    {
      "inputs": [],
      "name": "higherLiquidityLimit",
      "outputs": [
        {
          "internalType": "uint256",
          "name": "",
          "type": "uint256"
        }
      ],
      "stateMutability": "view",
      "type": "function"
    },
    {
      "inputs": [
        {
          "internalType": "address",
          "name": "spender",
          "type": "address"
        },
        {
          "internalType": "uint256",
          "name": "addedValue",
          "type": "uint256"
        }
      ],
      "name": "increaseAllowance",
      "outputs": [
        {
          "internalType": "bool",
          "name": "",
          "type": "bool"
        }
      ],
      "stateMutability": "nonpayable",
      "type": "function"
    },
    {
      "inputs": [],
      "name": "investmentManagement",
      "outputs": [
        {
          "internalType": "contract InvestmentManagement",
          "name": "",
          "type": "address"
        }
      ],
      "stateMutability": "view",
      "type": "function"
    },
    {
      "inputs": [],
      "name": "lowerLiquidityLimit",
      "outputs": [
        {
          "internalType": "uint256",
          "name": "",
          "type": "uint256"
        }
      ],
      "stateMutability": "view",
      "type": "function"
    },
    {
      "inputs": [],
      "name": "minimumCapitalReserve",
      "outputs": [
        {
          "internalType": "uint256",
          "name": "",
          "type": "uint256"
        }
      ],
      "stateMutability": "view",
      "type": "function"
    },
    {
      "inputs": [],
      "name": "name",
      "outputs": [
        {
          "internalType": "string",
          "name": "",
          "type": "string"
        }
      ],
      "stateMutability": "view",
      "type": "function"
    },
    {
      "inputs": [],
      "name": "paymentToken",
      "outputs": [
        {
          "internalType": "contract IERC20",
          "name": "",
          "type": "address"
        }
      ],
      "stateMutability": "view",
      "type": "function"
    },
    {
      "inputs": [],
      "name": "symbol",
      "outputs": [
        {
          "internalType": "string",
          "name": "",
          "type": "string"
        }
      ],
      "stateMutability": "view",
      "type": "function"
    },
    {
      "inputs": [],
      "name": "totalLiabilities",
      "outputs": [
        {
          "internalType": "uint256",
          "name": "",
          "type": "uint256"
        }
      ],
      "stateMutability": "view",
      "type": "function"
    },
    {
      "inputs": [],
      "name": "totalSupply",
      "outputs": [
        {
          "internalType": "uint256",
          "name": "",
          "type": "uint256"
        }
      ],
      "stateMutability": "view",
      "type": "function"
    },
    {
      "inputs": [
        {
          "internalType": "address",
          "name": "recipient",
          "type": "address"
        },
        {
          "internalType": "uint256",
          "name": "amount",
          "type": "uint256"
        }
      ],
      "name": "transfer",
      "outputs": [
        {
          "internalType": "bool",
          "name": "",
          "type": "bool"
        }
      ],
      "stateMutability": "nonpayable",
      "type": "function"
    },
    {
      "inputs": [
        {
          "internalType": "address",
          "name": "sender",
          "type": "address"
        },
        {
          "internalType": "address",
          "name": "recipient",
          "type": "address"
        },
        {
          "internalType": "uint256",
          "name": "amount",
          "type": "uint256"
        }
      ],
      "name": "transferFrom",
      "outputs": [
        {
          "internalType": "bool",
          "name": "",
          "type": "bool"
        }
      ],
      "stateMutability": "nonpayable",
      "type": "function"
    },
    {
      "inputs": [
        {
          "internalType": "address",
          "name": "_contractRegistry",
          "type": "address"
        }
      ],
      "name": "setContractRegistryAndAddresses",
      "outputs": [],
      "stateMutability": "nonpayable",
      "type": "function"
    },
    {
      "inputs": [],
      "name": "openContractForContributions",
      "outputs": [],
      "stateMutability": "nonpayable",
      "type": "function"
    },
    {
      "inputs": [],
      "name": "closeContributionsAndActivate",
      "outputs": [],
      "stateMutability": "nonpayable",
      "type": "function"
    },
    {
      "inputs": [],
      "name": "toggleSystemPause",
      "outputs": [],
      "stateMutability": "nonpayable",
      "type": "function"
    },
    {
      "inputs": [],
      "name": "systemShutdown",
      "outputs": [],
      "stateMutability": "nonpayable",
      "type": "function"
    },
    {
      "inputs": [
        {
          "internalType": "uint256",
          "name": "_amount",
          "type": "uint256"
        }
      ],
      "name": "addInitialLiquidityViaInitialContribution",
      "outputs": [],
      "stateMutability": "nonpayable",
      "type": "function"
    },
    {
      "inputs": [
        {
          "internalType": "uint256",
          "name": "_amount",
          "type": "uint256"
        }
      ],
      "name": "addLiquidityViaRecapitalization",
      "outputs": [],
      "stateMutability": "nonpayable",
      "type": "function"
    },
    {
      "inputs": [
        {
          "internalType": "address",
          "name": "_policyholder",
          "type": "address"
        },
        {
          "internalType": "uint256",
          "name": "_initialPremium",
          "type": "uint256"
        },
        {
          "internalType": "uint256",
          "name": "_liability",
          "type": "uint256"
        }
      ],
      "name": "addNewPolicy",
      "outputs": [],
      "stateMutability": "nonpayable",
      "type": "function"
    },
    {
      "inputs": [
        {
          "internalType": "address",
          "name": "_policyholder",
          "type": "address"
        },
        {
          "internalType": "uint256",
          "name": "_premium",
          "type": "uint256"
        }
      ],
      "name": "addLiquidityViaPremium",
      "outputs": [],
      "stateMutability": "nonpayable",
      "type": "function"
    },
    {
      "inputs": [
        {
          "internalType": "address",
          "name": "_beneficiary",
          "type": "address"
        },
        {
          "internalType": "uint256",
          "name": "_payout",
          "type": "uint256"
        }
      ],
      "name": "withdrawLiquidityViaPayout",
      "outputs": [],
      "stateMutability": "nonpayable",
      "type": "function"
    },
    {
      "inputs": [
        {
          "internalType": "uint256",
          "name": "_liability",
          "type": "uint256"
        }
      ],
      "name": "removeLiability",
      "outputs": [],
      "stateMutability": "nonpayable",
      "type": "function"
    },
    {
      "inputs": [
        {
          "internalType": "uint256",
          "name": "_amount",
          "type": "uint256"
        }
      ],
      "name": "withdrawLiquidityViaBuyback",
      "outputs": [],
      "stateMutability": "nonpayable",
      "type": "function"
    },
    {
      "inputs": [],
      "name": "getTotalAvailableReserves",
      "outputs": [
        {
          "internalType": "uint256",
          "name": "",
          "type": "uint256"
        }
      ],
      "stateMutability": "view",
      "type": "function"
    }
  ],
  "bytecode": "0x60806040523480156200001157600080fd5b506040518060400160405280600c81526020017f43686572697368546f6b656e00000000000000000000000000000000000000008152506040518060400160405280600781526020017f43484552495348000000000000000000000000000000000000000000000000008152508160039080519060200190620000969291906200015a565b508060049080519060200190620000af9291906200015a565b506012600560006101000a81548160ff021916908360ff160217905550505033600860006101000a81548173ffffffffffffffffffffffffffffffffffffffff021916908373ffffffffffffffffffffffffffffffffffffffff1602179055506000600e60006101000a81548160ff021916908360048111156200012f57fe5b021790555060006009819055506000600b819055506000600c819055506000600d8190555062000200565b828054600181600116156101000203166002900490600052602060002090601f016020900481019282601f106200019d57805160ff1916838001178555620001ce565b82800160010185558215620001ce579182015b82811115620001cd578251825591602001919060010190620001b0565b5b509050620001dd9190620001e1565b5090565b5b80821115620001fc576000816000905550600101620001e2565b5090565b6148cb80620002106000396000f3fe608060405234801561001057600080fd5b50600436106101fb5760003560e01c806370a082311161011a578063b0f3f47d116100ad578063d8b878531161007c578063d8b8785314610875578063dd62ed3e146108a3578063ebc033731461091b578063f2daf6be14610973578063f73579a91461099c576101fb565b8063b0f3f47d146107cb578063c5016c69146107f9578063d1018e0f1461083d578063d6f48afa14610847576101fb565b8063a28e946f116100e9578063a28e946f146106b1578063a457c2d7146106cf578063a9059cbb14610733578063abf410e514610797576101fb565b806370a0823114610584578063855c2ac3146105dc57806395d89b4114610610578063a022105e14610693576101fb565b8063313ce567116101925780634c61cf49116101615780634c61cf49146104e0578063630d41e21461052e578063637e79751461054c5780636d154b2b14610556576101fb565b8063313ce56714610403578063395093511461042457806340c6c82d1461048857806349ad1d05146104d6576101fb565b80631f3c4907116101ce5780631f3c49071461030f57806323b872dd1461032d57806327ec72d0146103b15780633013ce29146103cf576101fb565b806306fdde0314610200578063093c4c7514610283578063095ea7b31461028d57806318160ddd146102f1575b600080fd5b6102086109ba565b6040518080602001828103825283818151815260200191508051906020019080838360005b8381101561024857808201518184015260208101905061022d565b50505050905090810190601f1680156102755780820380516001836020036101000a031916815260200191505b509250505060405180910390f35b61028b610a5c565b005b6102d9600480360360408110156102a357600080fd5b81019080803573ffffffffffffffffffffffffffffffffffffffff16906020019092919080359060200190929190505050610bba565b60405180821515815260200191505060405180910390f35b6102f9610bd8565b6040518082815260200191505060405180910390f35b610317610be2565b6040518082815260200191505060405180910390f35b6103996004803603606081101561034357600080fd5b81019080803573ffffffffffffffffffffffffffffffffffffffff169060200190929190803573ffffffffffffffffffffffffffffffffffffffff16906020019092919080359060200190929190505050610be8565b60405180821515815260200191505060405180910390f35b6103b9610cc1565b6040518082815260200191505060405180910390f35b6103d7610cc7565b604051808273ffffffffffffffffffffffffffffffffffffffff16815260200191505060405180910390f35b61040b610ced565b604051808260ff16815260200191505060405180910390f35b6104706004803603604081101561043a57600080fd5b81019080803573ffffffffffffffffffffffffffffffffffffffff16906020019092919080359060200190929190505050610d04565b60405180821515815260200191505060405180910390f35b6104d46004803603604081101561049e57600080fd5b81019080803573ffffffffffffffffffffffffffffffffffffffff16906020019092919080359060200190929190505050610db7565b005b6104de610f87565b005b61052c600480360360408110156104f657600080fd5b81019080803573ffffffffffffffffffffffffffffffffffffffff169060200190929190803590602001909291905050506110e5565b005b6105366112b5565b6040518082815260200191505060405180910390f35b6105546112bb565b005b6105826004803603602081101561056c57600080fd5b81019080803590602001909291905050506113e9565b005b6105c66004803603602081101561059a57600080fd5b81019080803573ffffffffffffffffffffffffffffffffffffffff1690602001909291905050506114d5565b6040518082815260200191505060405180910390f35b6105e461151d565b604051808273ffffffffffffffffffffffffffffffffffffffff16815260200191505060405180910390f35b610618611543565b6040518080602001828103825283818151815260200191508051906020019080838360005b8381101561065857808201518184015260208101905061063d565b50505050905090810190601f1680156106855780820380516001836020036101000a031916815260200191505b509250505060405180910390f35b61069b6115e5565b6040518082815260200191505060405180910390f35b6106b96115eb565b6040518082815260200191505060405180910390f35b61071b600480360360408110156106e557600080fd5b81019080803573ffffffffffffffffffffffffffffffffffffffff169060200190929190803590602001909291905050506116ae565b60405180821515815260200191505060405180910390f35b61077f6004803603604081101561074957600080fd5b81019080803573ffffffffffffffffffffffffffffffffffffffff1690602001909291908035906020019092919050505061177b565b60405180821515815260200191505060405180910390f35b61079f611799565b604051808273ffffffffffffffffffffffffffffffffffffffff16815260200191505060405180910390f35b6107f7600480360360208110156107e157600080fd5b81019080803590602001909291905050506117bf565b005b61083b6004803603602081101561080f57600080fd5b81019080803573ffffffffffffffffffffffffffffffffffffffff16906020019092919050505061185d565b005b610845611a13565b005b6108736004803603602081101561085d57600080fd5b8101908080359060200190929190505050611b41565b005b6108a16004803603602081101561088b57600080fd5b8101908080359060200190929190505050611bdf565b005b610905600480360360408110156108b957600080fd5b81019080803573ffffffffffffffffffffffffffffffffffffffff169060200190929190803573ffffffffffffffffffffffffffffffffffffffff169060200190929190505050611dad565b6040518082815260200191505060405180910390f35b6109716004803603606081101561093157600080fd5b81019080803573ffffffffffffffffffffffffffffffffffffffff1690602001909291908035906020019092919080359060200190929190505050611e34565b005b61097b612038565b6040518082600481111561098b57fe5b815260200191505060405180910390f35b6109a461204b565b6040518082815260200191505060405180910390f35b606060038054600181600116156101000203166002900480601f016020809104026020016040519081016040528092919081815260200182805460018160011615610100020316600290048015610a525780601f10610a2757610100808354040283529160200191610a52565b820191906000526020600020905b815481529060010190602001808311610a3557829003601f168201915b5050505050905090565b600860009054906101000a900473ffffffffffffffffffffffffffffffffffffffff1673ffffffffffffffffffffffffffffffffffffffff163373ffffffffffffffffffffffffffffffffffffffff1614610b02576040517f08c379a000000000000000000000000000000000000000000000000000000000815260040180806020018281038252602e81526020018061467b602e913960400191505060405180910390fd5b60026004811115610b0f57fe5b600e60009054906101000a900460ff166004811115610b2a57fe5b1480610b5b575060036004811115610b3e57fe5b600e60009054906101000a900460ff166004811115610b5957fe5b145b610bb0576040517f08c379a000000000000000000000000000000000000000000000000000000000815260040180806020018281038252603e8152602001806145d9603e913960400191505060405180910390fd5b610bb8612051565b565b6000610bce610bc7612170565b8484612178565b6001905092915050565b6000600254905090565b600a5481565b6000610bf584848461236f565b610cb684610c01612170565b610cb1856040518060600160405280602881526020016146f160289139600160008b73ffffffffffffffffffffffffffffffffffffffff1673ffffffffffffffffffffffffffffffffffffffff1681526020019081526020016000206000610c67612170565b73ffffffffffffffffffffffffffffffffffffffff1673ffffffffffffffffffffffffffffffffffffffff168152602001908152602001600020546126309092919063ffffffff16565b612178565b600190509392505050565b600d5481565b600560019054906101000a900473ffffffffffffffffffffffffffffffffffffffff1681565b6000600560009054906101000a900460ff16905090565b6000610dad610d11612170565b84610da88560016000610d22612170565b73ffffffffffffffffffffffffffffffffffffffff1673ffffffffffffffffffffffffffffffffffffffff16815260200190815260200160002060008973ffffffffffffffffffffffffffffffffffffffff1673ffffffffffffffffffffffffffffffffffffffff168152602001908152602001600020546126f090919063ffffffff16565b612178565b6001905092915050565b60036004811115610dc457fe5b600e60009054906101000a900460ff166004811115610ddf57fe5b1415610e53576040517f08c379a00000000000000000000000000000000000000000000000000000000081526004018080602001828103825260168152602001807f54686520636f6e7472616374206973207061757365640000000000000000000081525060200191505060405180910390fd5b600660009054906101000a900473ffffffffffffffffffffffffffffffffffffffff1673ffffffffffffffffffffffffffffffffffffffff1663aa87a27f6040518163ffffffff1660e01b815260040160206040518083038186803b158015610ebb57600080fd5b505afa158015610ecf573d6000803e3d6000fd5b505050506040513d6020811015610ee557600080fd5b810190808051906020019092919050505073ffffffffffffffffffffffffffffffffffffffff163373ffffffffffffffffffffffffffffffffffffffff1614610f79576040517f08c379a000000000000000000000000000000000000000000000000000000000815260040180806020018281038252603a815260200180614527603a913960400191505060405180910390fd5b610f838282612778565b5050565b600860009054906101000a900473ffffffffffffffffffffffffffffffffffffffff1673ffffffffffffffffffffffffffffffffffffffff163373ffffffffffffffffffffffffffffffffffffffff161461102d576040517f08c379a000000000000000000000000000000000000000000000000000000000815260040180806020018281038252602e81526020018061467b602e913960400191505060405180910390fd5b6002600481111561103a57fe5b600e60009054906101000a900460ff16600481111561105557fe5b148061108657506003600481111561106957fe5b600e60009054906101000a900460ff16600481111561108457fe5b145b6110db576040517f08c379a00000000000000000000000000000000000000000000000000000000081526004018080602001828103825260348152602001806145a56034913960400191505060405180910390fd5b6110e3612b07565b565b600360048111156110f257fe5b600e60009054906101000a900460ff16600481111561110d57fe5b1415611181576040517f08c379a00000000000000000000000000000000000000000000000000000000081526004018080602001828103825260168152602001807f54686520636f6e7472616374206973207061757365640000000000000000000081525060200191505060405180910390fd5b600660009054906101000a900473ffffffffffffffffffffffffffffffffffffffff1673ffffffffffffffffffffffffffffffffffffffff1663aa87a27f6040518163ffffffff1660e01b815260040160206040518083038186803b1580156111e957600080fd5b505afa1580156111fd573d6000803e3d6000fd5b505050506040513d602081101561121357600080fd5b810190808051906020019092919050505073ffffffffffffffffffffffffffffffffffffffff163373ffffffffffffffffffffffffffffffffffffffff16146112a7576040517f08c379a000000000000000000000000000000000000000000000000000000000815260040180806020018281038252603a815260200180614527603a913960400191505060405180910390fd5b6112b18282612c0d565b5050565b600b5481565b600860009054906101000a900473ffffffffffffffffffffffffffffffffffffffff1673ffffffffffffffffffffffffffffffffffffffff163373ffffffffffffffffffffffffffffffffffffffff1614611361576040517f08c379a000000000000000000000000000000000000000000000000000000000815260040180806020018281038252602e81526020018061467b602e913960400191505060405180910390fd5b6001600481111561136e57fe5b600e60009054906101000a900460ff16600481111561138957fe5b146113df576040517f08c379a000000000000000000000000000000000000000000000000000000000815260040180806020018281038252603e81526020018061463d603e913960400191505060405180910390fd5b6113e7612dbb565b565b60008111611442576040517f08c379a00000000000000000000000000000000000000000000000000000000081526004018080602001828103825260278152602001806146a96027913960400191505060405180910390fd5b8061144c336114d5565b10156114c0576040517f08c379a000000000000000000000000000000000000000000000000000000000815260040180806020018281038252601c8152602001807f434845524953482062616c616e636520696e73756666696369656e740000000081525060200191505060405180910390fd5b60003390506114d181836000612de1565b5050565b60008060008373ffffffffffffffffffffffffffffffffffffffff1673ffffffffffffffffffffffffffffffffffffffff168152602001908152602001600020549050919050565b600760009054906101000a900473ffffffffffffffffffffffffffffffffffffffff1681565b606060048054600181600116156101000203166002900480601f0160208091040260200160405190810160405280929190818152602001828054600181600116156101000203166002900480156115db5780601f106115b0576101008083540402835291602001916115db565b820191906000526020600020905b8154815290600101906020018083116115be57829003601f168201915b5050505050905090565b600c5481565b6000806116a5600760009054906101000a900473ffffffffffffffffffffffffffffffffffffffff1673ffffffffffffffffffffffffffffffffffffffff16637a7a2cf96040518163ffffffff1660e01b815260040160206040518083038186803b15801561165957600080fd5b505afa15801561166d573d6000803e3d6000fd5b505050506040513d602081101561168357600080fd5b8101908080519060200190929190505050600d546126f090919063ffffffff16565b90508091505090565b60006117716116bb612170565b8461176c8560405180606001604052806025815260200161487160259139600160006116e5612170565b73ffffffffffffffffffffffffffffffffffffffff1673ffffffffffffffffffffffffffffffffffffffff16815260200190815260200160002060008a73ffffffffffffffffffffffffffffffffffffffff1673ffffffffffffffffffffffffffffffffffffffff168152602001908152602001600020546126309092919063ffffffff16565b612178565b6001905092915050565b600061178f611788612170565b848461236f565b6001905092915050565b600660009054906101000a900473ffffffffffffffffffffffffffffffffffffffff1681565b600260048111156117cc57fe5b600e60009054906101000a900460ff1660048111156117e757fe5b146117f157600080fd5b6000811161184a576040517f08c379a00000000000000000000000000000000000000000000000000000000081526004018080602001828103825260298152602001806147e76029913960400191505060405180910390fd5b60003390506118598183613846565b5050565b600860009054906101000a900473ffffffffffffffffffffffffffffffffffffffff1673ffffffffffffffffffffffffffffffffffffffff163373ffffffffffffffffffffffffffffffffffffffff1614611903576040517f08c379a000000000000000000000000000000000000000000000000000000000815260040180806020018281038252602e81526020018061467b602e913960400191505060405180910390fd5b600073ffffffffffffffffffffffffffffffffffffffff168173ffffffffffffffffffffffffffffffffffffffff161415611989576040517f08c379a000000000000000000000000000000000000000000000000000000000815260040180806020018281038252603181526020018061476d6031913960400191505060405180910390fd5b6000600481111561199657fe5b600e60009054906101000a900460ff1660048111156119b157fe5b14611a07576040517f08c379a00000000000000000000000000000000000000000000000000000000081526004018080602001828103825260338152602001806147196033913960400191505060405180910390fd5b611a10816139bf565b50565b600860009054906101000a900473ffffffffffffffffffffffffffffffffffffffff1673ffffffffffffffffffffffffffffffffffffffff163373ffffffffffffffffffffffffffffffffffffffff1614611ab9576040517f08c379a000000000000000000000000000000000000000000000000000000000815260040180806020018281038252602e81526020018061467b602e913960400191505060405180910390fd5b60006004811115611ac657fe5b600e60009054906101000a900460ff166004811115611ae157fe5b14611b37576040517f08c379a00000000000000000000000000000000000000000000000000000000081526004018080602001828103825260318152602001806148106031913960400191505060405180910390fd5b611b3f613c1e565b565b60016004811115611b4e57fe5b600e60009054906101000a900460ff166004811115611b6957fe5b14611b7357600080fd5b60008111611bcc576040517f08c379a00000000000000000000000000000000000000000000000000000000081526004018080602001828103825260298152602001806147e76029913960400191505060405180910390fd5b6000339050611bdb8183613846565b5050565b60036004811115611bec57fe5b600e60009054906101000a900460ff166004811115611c0757fe5b1415611c7b576040517f08c379a00000000000000000000000000000000000000000000000000000000081526004018080602001828103825260168152602001807f54686520636f6e7472616374206973207061757365640000000000000000000081525060200191505060405180910390fd5b600660009054906101000a900473ffffffffffffffffffffffffffffffffffffffff1673ffffffffffffffffffffffffffffffffffffffff1663aa87a27f6040518163ffffffff1660e01b815260040160206040518083038186803b158015611ce357600080fd5b505afa158015611cf7573d6000803e3d6000fd5b505050506040513d6020811015611d0d57600080fd5b810190808051906020019092919050505073ffffffffffffffffffffffffffffffffffffffff163373ffffffffffffffffffffffffffffffffffffffff1614611da1576040517f08c379a000000000000000000000000000000000000000000000000000000000815260040180806020018281038252603a815260200180614527603a913960400191505060405180910390fd5b611daa81613c7b565b50565b6000600160008473ffffffffffffffffffffffffffffffffffffffff1673ffffffffffffffffffffffffffffffffffffffff16815260200190815260200160002060008373ffffffffffffffffffffffffffffffffffffffff1673ffffffffffffffffffffffffffffffffffffffff16815260200190815260200160002054905092915050565b60036004811115611e4157fe5b600e60009054906101000a900460ff166004811115611e5c57fe5b1415611ed0576040517f08c379a00000000000000000000000000000000000000000000000000000000081526004018080602001828103825260168152602001807f54686520636f6e7472616374206973207061757365640000000000000000000081525060200191505060405180910390fd5b600660009054906101000a900473ffffffffffffffffffffffffffffffffffffffff1673ffffffffffffffffffffffffffffffffffffffff1663aa87a27f6040518163ffffffff1660e01b815260040160206040518083038186803b158015611f3857600080fd5b505afa158015611f4c573d6000803e3d6000fd5b505050506040513d6020811015611f6257600080fd5b810190808051906020019092919050505073ffffffffffffffffffffffffffffffffffffffff163373ffffffffffffffffffffffffffffffffffffffff1614611ff6576040517f08c379a000000000000000000000000000000000000000000000000000000000815260040180806020018281038252603a815260200180614527603a913960400191505060405180910390fd5b6002600481111561200357fe5b600e60009054906101000a900460ff16600481111561201e57fe5b1461202857600080fd5b612033838383613d82565b505050565b600e60009054906101000a900460ff1681565b60095481565b6004600e60006101000a81548160ff0219169083600481111561207057fe5b021790555060005b601180549050811015612114576121076011828154811061209557fe5b9060005260206000200160009054906101000a900473ffffffffffffffffffffffffffffffffffffffff16612100601184815481106120d057fe5b9060005260206000200160009054906101000a900473ffffffffffffffffffffffffffffffffffffffff166114d5565b6001612de1565b8080600101915050612078565b507f99fd86fe39afe623de0f8abe425d24a5ef21e2acef083da5ac427d73e77ad73842600e60009054906101000a900460ff166040518083815260200182600481111561215d57fe5b81526020019250505060405180910390a1565b600033905090565b600073ffffffffffffffffffffffffffffffffffffffff168373ffffffffffffffffffffffffffffffffffffffff1614156121fe576040517f08c379a00000000000000000000000000000000000000000000000000000000081526004018080602001828103825260248152602001806147c36024913960400191505060405180910390fd5b600073ffffffffffffffffffffffffffffffffffffffff168273ffffffffffffffffffffffffffffffffffffffff161415612284576040517f08c379a00000000000000000000000000000000000000000000000000000000081526004018080602001828103825260228152602001806145836022913960400191505060405180910390fd5b80600160008573ffffffffffffffffffffffffffffffffffffffff1673ffffffffffffffffffffffffffffffffffffffff16815260200190815260200160002060008473ffffffffffffffffffffffffffffffffffffffff1673ffffffffffffffffffffffffffffffffffffffff168152602001908152602001600020819055508173ffffffffffffffffffffffffffffffffffffffff168373ffffffffffffffffffffffffffffffffffffffff167f8c5be1e5ebec7d5bd14f71427d1e84f3dd0314c0f7b2291e5b200ac8c7c3b925836040518082815260200191505060405180910390a3505050565b600073ffffffffffffffffffffffffffffffffffffffff168373ffffffffffffffffffffffffffffffffffffffff1614156123f5576040517f08c379a000000000000000000000000000000000000000000000000000000000815260040180806020018281038252602581526020018061479e6025913960400191505060405180910390fd5b600073ffffffffffffffffffffffffffffffffffffffff168273ffffffffffffffffffffffffffffffffffffffff16141561247b576040517f08c379a00000000000000000000000000000000000000000000000000000000081526004018080602001828103825260238152602001806145046023913960400191505060405180910390fd5b612486838383613f93565b6124f181604051806060016040528060268152602001614617602691396000808773ffffffffffffffffffffffffffffffffffffffff1673ffffffffffffffffffffffffffffffffffffffff168152602001908152602001600020546126309092919063ffffffff16565b6000808573ffffffffffffffffffffffffffffffffffffffff1673ffffffffffffffffffffffffffffffffffffffff16815260200190815260200160002081905550612584816000808573ffffffffffffffffffffffffffffffffffffffff1673ffffffffffffffffffffffffffffffffffffffff168152602001908152602001600020546126f090919063ffffffff16565b6000808473ffffffffffffffffffffffffffffffffffffffff1673ffffffffffffffffffffffffffffffffffffffff168152602001908152602001600020819055508173ffffffffffffffffffffffffffffffffffffffff168373ffffffffffffffffffffffffffffffffffffffff167fddf252ad1be2c89b69c2b068fc378daa952ba7f163c4a11628f55a4df523b3ef836040518082815260200191505060405180910390a3505050565b60008383111582906126dd576040517f08c379a00000000000000000000000000000000000000000000000000000000081526004018080602001828103825283818151815260200191508051906020019080838360005b838110156126a2578082015181840152602081019050612687565b50505050905090810190601f1680156126cf5780820380516001836020036101000a031916815260200191505b509250505060405180910390fd5b5060008385039050809150509392505050565b60008082840190508381101561276e576040517f08c379a000000000000000000000000000000000000000000000000000000000815260040180806020018281038252601b8152602001807f536166654d6174683a206164646974696f6e206f766572666c6f77000000000081525060200191505060405180910390fd5b8091505092915050565b61278d81600954613f9890919063ffffffff16565b6009819055506127ce6127bd60646127af600f85613fe290919063ffffffff16565b61406890919063ffffffff16565b600a54613f9890919063ffffffff16565b600a819055506128226064612814606461280660506127f8600a8054613fe290919063ffffffff16565b613fe290919063ffffffff16565b61406890919063ffffffff16565b61406890919063ffffffff16565b600b819055506128766064612868606461285a607861284c600a8054613fe290919063ffffffff16565b613fe290919063ffffffff16565b61406890919063ffffffff16565b61406890919063ffffffff16565b600c8190555061289181600d54613f9890919063ffffffff16565b600d81905550600560019054906101000a900473ffffffffffffffffffffffffffffffffffffffff1673ffffffffffffffffffffffffffffffffffffffff1663095ea7b383836040518363ffffffff1660e01b8152600401808373ffffffffffffffffffffffffffffffffffffffff16815260200182815260200192505050602060405180830381600087803b15801561292a57600080fd5b505af115801561293e573d6000803e3d6000fd5b505050506040513d602081101561295457600080fd5b810190808051906020019092919050505050600560019054906101000a900473ffffffffffffffffffffffffffffffffffffffff1673ffffffffffffffffffffffffffffffffffffffff1663a9059cbb83836040518363ffffffff1660e01b8152600401808373ffffffffffffffffffffffffffffffffffffffff16815260200182815260200192505050602060405180830381600087803b1580156129f957600080fd5b505af1158015612a0d573d6000803e3d6000fd5b505050506040513d6020811015612a2357600080fd5b810190808051906020019092919050505050600560019054906101000a900473ffffffffffffffffffffffffffffffffffffffff1673ffffffffffffffffffffffffffffffffffffffff166370a08231306040518263ffffffff1660e01b8152600401808273ffffffffffffffffffffffffffffffffffffffff16815260200191505060206040518083038186803b158015612abe57600080fd5b505afa158015612ad2573d6000803e3d6000fd5b505050506040513d6020811015612ae857600080fd5b8101908080519060200190929190505050600d5414612b0357fe5b5050565b60026004811115612b1457fe5b600e60009054906101000a900460ff166004811115612b2f57fe5b1415612b5e576003600e60006101000a81548160ff02191690836004811115612b5457fe5b0217905550612bb2565b60036004811115612b6b57fe5b600e60009054906101000a900460ff166004811115612b8657fe5b1415612bb1576002600e60006101000a81548160ff02191690836004811115612bab57fe5b02179055505b5b7f1f324cf2f5371a757dbad5521528ada0a48dec5b88200947ec483e5b2fdb070e42600e60009054906101000a900460ff1660405180838152602001826004811115612bfa57fe5b81526020019250505060405180910390a1565b600560019054906101000a900473ffffffffffffffffffffffffffffffffffffffff1673ffffffffffffffffffffffffffffffffffffffff166323b872dd83600660009054906101000a900473ffffffffffffffffffffffffffffffffffffffff1673ffffffffffffffffffffffffffffffffffffffff1663db2aebca6040518163ffffffff1660e01b815260040160206040518083038186803b158015612cb457600080fd5b505afa158015612cc8573d6000803e3d6000fd5b505050506040513d6020811015612cde57600080fd5b8101908080519060200190929190505050846040518463ffffffff1660e01b8152600401808473ffffffffffffffffffffffffffffffffffffffff1681526020018373ffffffffffffffffffffffffffffffffffffffff1681526020018281526020019350505050602060405180830381600087803b158015612d6057600080fd5b505af1158015612d74573d6000803e3d6000fd5b505050506040513d6020811015612d8a57600080fd5b810190808051906020019092919050505050612db181600d546126f090919063ffffffff16565b600d819055505050565b6002600e60006101000a81548160ff02191690836004811115612dda57fe5b0217905550565b6000612deb6115eb565b90506000612e1b612dfa610bd8565b612e0d8487613fe290919063ffffffff16565b61406890919063ffffffff16565b9050600015158315151415612e9857600a54612e408284613f9890919063ffffffff16565b1015612e97576040517f08c379a00000000000000000000000000000000000000000000000000000000081526004018080602001828103825260308152602001806148416030913960400191505060405180910390fd5b5b600d54811115612fa6576000612eb9600d5483613f9890919063ffffffff16565b90506000612ee76002612ed9600b54600c546126f090919063ffffffff16565b61406890919063ffffffff16565b90506000612efe82846126f090919063ffffffff16565b9050600760009054906101000a900473ffffffffffffffffffffffffffffffffffffffff1673ffffffffffffffffffffffffffffffffffffffff16639a00f3a882886040518363ffffffff1660e01b815260040180838152602001821515815260200192505050600060405180830381600087803b158015612f7f57600080fd5b505af1158015612f93573d6000803e3d6000fd5b5050505081600d81905550505050613116565b600b54612fbe82600d54613f9890919063ffffffff16565b10156130f957612fd981600d54613f9890919063ffffffff16565b600d819055506000612ff8600d54600b54613f9890919063ffffffff16565b905060006130266002613018600b54600c54613f9890919063ffffffff16565b61406890919063ffffffff16565b9050600061303d82846126f090919063ffffffff16565b9050600760009054906101000a900473ffffffffffffffffffffffffffffffffffffffff1673ffffffffffffffffffffffffffffffffffffffff16639a00f3a882886040518363ffffffff1660e01b815260040180838152602001821515815260200192505050600060405180830381600087803b1580156130be57600080fd5b505af11580156130d2573d6000803e3d6000fd5b505050506130eb81600d546126f090919063ffffffff16565b600d81905550505050613115565b61310e81600d54613f9890919063ffffffff16565b600d819055505b5b60001515831515141561313257600b54600d54101561313157fe5b5b60011515831515148015613208575080600560019054906101000a900473ffffffffffffffffffffffffffffffffffffffff1673ffffffffffffffffffffffffffffffffffffffff166370a08231306040518263ffffffff1660e01b8152600401808273ffffffffffffffffffffffffffffffffffffffff16815260200191505060206040518083038186803b1580156131cb57600080fd5b505afa1580156131df573d6000803e3d6000fd5b505050506040513d60208110156131f557600080fd5b8101908080519060200190929190505050105b1561353e57600560019054906101000a900473ffffffffffffffffffffffffffffffffffffffff1673ffffffffffffffffffffffffffffffffffffffff1663095ea7b386600560019054906101000a900473ffffffffffffffffffffffffffffffffffffffff1673ffffffffffffffffffffffffffffffffffffffff166370a08231306040518263ffffffff1660e01b8152600401808273ffffffffffffffffffffffffffffffffffffffff16815260200191505060206040518083038186803b1580156132d557600080fd5b505afa1580156132e9573d6000803e3d6000fd5b505050506040513d60208110156132ff57600080fd5b81019080805190602001909291905050506040518363ffffffff1660e01b8152600401808373ffffffffffffffffffffffffffffffffffffffff16815260200182815260200192505050602060405180830381600087803b15801561336357600080fd5b505af1158015613377573d6000803e3d6000fd5b505050506040513d602081101561338d57600080fd5b810190808051906020019092919050505050600560019054906101000a900473ffffffffffffffffffffffffffffffffffffffff1673ffffffffffffffffffffffffffffffffffffffff1663a9059cbb86600560019054906101000a900473ffffffffffffffffffffffffffffffffffffffff1673ffffffffffffffffffffffffffffffffffffffff166370a08231306040518263ffffffff1660e01b8152600401808273ffffffffffffffffffffffffffffffffffffffff16815260200191505060206040518083038186803b15801561346757600080fd5b505afa15801561347b573d6000803e3d6000fd5b505050506040513d602081101561349157600080fd5b81019080805190602001909291905050506040518363ffffffff1660e01b8152600401808373ffffffffffffffffffffffffffffffffffffffff16815260200182815260200192505050602060405180830381600087803b1580156134f557600080fd5b505af1158015613509573d6000803e3d6000fd5b505050506040513d602081101561351f57600080fd5b8101908080519060200190929190505050506000600d819055506136dd565b600560019054906101000a900473ffffffffffffffffffffffffffffffffffffffff1673ffffffffffffffffffffffffffffffffffffffff1663095ea7b386836040518363ffffffff1660e01b8152600401808373ffffffffffffffffffffffffffffffffffffffff16815260200182815260200192505050602060405180830381600087803b1580156135d157600080fd5b505af11580156135e5573d6000803e3d6000fd5b505050506040513d60208110156135fb57600080fd5b810190808051906020019092919050505050600560019054906101000a900473ffffffffffffffffffffffffffffffffffffffff1673ffffffffffffffffffffffffffffffffffffffff1663a9059cbb86836040518363ffffffff1660e01b8152600401808373ffffffffffffffffffffffffffffffffffffffff16815260200182815260200192505050602060405180830381600087803b1580156136a057600080fd5b505af11580156136b4573d6000803e3d6000fd5b505050506040513d60208110156136ca57600080fd5b8101908080519060200190929190505050505b6000151583151514156137b957600560019054906101000a900473ffffffffffffffffffffffffffffffffffffffff1673ffffffffffffffffffffffffffffffffffffffff166370a08231306040518263ffffffff1660e01b8152600401808273ffffffffffffffffffffffffffffffffffffffff16815260200191505060206040518083038186803b15801561377357600080fd5b505afa158015613787573d6000803e3d6000fd5b505050506040513d602081101561379d57600080fd5b8101908080519060200190929190505050600d54146137b857fe5b5b60006137c36115eb565b90507f7e4004c4b8775a28f901eeddd8fcfa584e6a92ed7f91fdb701f9a762dc639808428784600d5485604051808681526020018573ffffffffffffffffffffffffffffffffffffffff1681526020018481526020018381526020018281526020019550505050505060405180910390a161383e86866140b2565b505050505050565b600560019054906101000a900473ffffffffffffffffffffffffffffffffffffffff1673ffffffffffffffffffffffffffffffffffffffff166323b872dd8330846040518463ffffffff1660e01b8152600401808473ffffffffffffffffffffffffffffffffffffffff1681526020018373ffffffffffffffffffffffffffffffffffffffff1681526020018281526020019350505050602060405180830381600087803b1580156138f757600080fd5b505af115801561390b573d6000803e3d6000fd5b505050506040513d602081101561392157600080fd5b81019080805190602001909291905050505061393d8282614276565b6011829080600181540180825580915050600190039060005260206000200160009091909190916101000a81548173ffffffffffffffffffffffffffffffffffffffff021916908373ffffffffffffffffffffffffffffffffffffffff1602179055506139b581600d546126f090919063ffffffff16565b600d819055505050565b80600660006101000a81548173ffffffffffffffffffffffffffffffffffffffff021916908373ffffffffffffffffffffffffffffffffffffffff160217905550600660009054906101000a900473ffffffffffffffffffffffffffffffffffffffff1673ffffffffffffffffffffffffffffffffffffffff16634dcffde06040518163ffffffff1660e01b815260040160206040518083038186803b158015613a6857600080fd5b505afa158015613a7c573d6000803e3d6000fd5b505050506040513d6020811015613a9257600080fd5b8101908080519060200190929190505050600560016101000a81548173ffffffffffffffffffffffffffffffffffffffff021916908373ffffffffffffffffffffffffffffffffffffffff160217905550600660009054906101000a900473ffffffffffffffffffffffffffffffffffffffff1673ffffffffffffffffffffffffffffffffffffffff16634b3b63256040518163ffffffff1660e01b815260040160206040518083038186803b158015613b4b57600080fd5b505afa158015613b5f573d6000803e3d6000fd5b505050506040513d6020811015613b7557600080fd5b8101908080519060200190929190505050600760006101000a81548173ffffffffffffffffffffffffffffffffffffffff021916908373ffffffffffffffffffffffffffffffffffffffff1602179055507f9aacf74b8f864f2de207ce15af970853b27803781f237a89c9bb008298eef9654282604051808381526020018273ffffffffffffffffffffffffffffffffffffffff1681526020019250505060405180910390a150565b6001600e60006101000a81548160ff02191690836004811115613c3d57fe5b02179055507fc07185059895aa57aa0c1a05845ee385c22ce332927b98b44447b03a172685ed426040518082815260200191505060405180910390a1565b613c9081600954613f9890919063ffffffff16565b600981905550613cd1613cc06064613cb2600f85613fe290919063ffffffff16565b61406890919063ffffffff16565b600a54613f9890919063ffffffff16565b600a81905550613d256064613d176064613d096050613cfb600a8054613fe290919063ffffffff16565b613fe290919063ffffffff16565b61406890919063ffffffff16565b61406890919063ffffffff16565b600b81905550613d796064613d6b6064613d5d6078613d4f600a8054613fe290919063ffffffff16565b613fe290919063ffffffff16565b61406890919063ffffffff16565b61406890919063ffffffff16565b600c8190555050565b600560019054906101000a900473ffffffffffffffffffffffffffffffffffffffff1673ffffffffffffffffffffffffffffffffffffffff166323b872dd8430856040518463ffffffff1660e01b8152600401808473ffffffffffffffffffffffffffffffffffffffff1681526020018373ffffffffffffffffffffffffffffffffffffffff1681526020018281526020019350505050602060405180830381600087803b158015613e3357600080fd5b505af1158015613e47573d6000803e3d6000fd5b505050506040513d6020811015613e5d57600080fd5b810190808051906020019092919050505050613e84816009546126f090919063ffffffff16565b600981905550613ec5613eb46064613ea6600f85613fe290919063ffffffff16565b61406890919063ffffffff16565b600a546126f090919063ffffffff16565b600a81905550613f196064613f0b6064613efd6050613eef600a8054613fe290919063ffffffff16565b613fe290919063ffffffff16565b61406890919063ffffffff16565b61406890919063ffffffff16565b600b81905550613f6d6064613f5f6064613f516078613f43600a8054613fe290919063ffffffff16565b613fe290919063ffffffff16565b61406890919063ffffffff16565b61406890919063ffffffff16565b600c81905550613f8882600d546126f090919063ffffffff16565b600d81905550505050565b505050565b6000613fda83836040518060400160405280601e81526020017f536166654d6174683a207375627472616374696f6e206f766572666c6f770000815250612630565b905092915050565b600080831415613ff55760009050614062565b600082840290508284828161400657fe5b041461405d576040517f08c379a00000000000000000000000000000000000000000000000000000000081526004018080602001828103825260218152602001806146d06021913960400191505060405180910390fd5b809150505b92915050565b60006140aa83836040518060400160405280601a81526020017f536166654d6174683a206469766973696f6e206279207a65726f00000000000081525061443d565b905092915050565b600073ffffffffffffffffffffffffffffffffffffffff168273ffffffffffffffffffffffffffffffffffffffff161415614138576040517f08c379a000000000000000000000000000000000000000000000000000000000815260040180806020018281038252602181526020018061474c6021913960400191505060405180910390fd5b61414482600083613f93565b6141af81604051806060016040528060228152602001614561602291396000808673ffffffffffffffffffffffffffffffffffffffff1673ffffffffffffffffffffffffffffffffffffffff168152602001908152602001600020546126309092919063ffffffff16565b6000808473ffffffffffffffffffffffffffffffffffffffff1673ffffffffffffffffffffffffffffffffffffffff1681526020019081526020016000208190555061420681600254613f9890919063ffffffff16565b600281905550600073ffffffffffffffffffffffffffffffffffffffff168273ffffffffffffffffffffffffffffffffffffffff167fddf252ad1be2c89b69c2b068fc378daa952ba7f163c4a11628f55a4df523b3ef836040518082815260200191505060405180910390a35050565b600073ffffffffffffffffffffffffffffffffffffffff168273ffffffffffffffffffffffffffffffffffffffff161415614319576040517f08c379a000000000000000000000000000000000000000000000000000000000815260040180806020018281038252601f8152602001807f45524332303a206d696e7420746f20746865207a65726f20616464726573730081525060200191505060405180910390fd5b61432560008383613f93565b61433a816002546126f090919063ffffffff16565b600281905550614391816000808573ffffffffffffffffffffffffffffffffffffffff1673ffffffffffffffffffffffffffffffffffffffff168152602001908152602001600020546126f090919063ffffffff16565b6000808473ffffffffffffffffffffffffffffffffffffffff1673ffffffffffffffffffffffffffffffffffffffff168152602001908152602001600020819055508173ffffffffffffffffffffffffffffffffffffffff16600073ffffffffffffffffffffffffffffffffffffffff167fddf252ad1be2c89b69c2b068fc378daa952ba7f163c4a11628f55a4df523b3ef836040518082815260200191505060405180910390a35050565b600080831182906144e9576040517f08c379a00000000000000000000000000000000000000000000000000000000081526004018080602001828103825283818151815260200191508051906020019080838360005b838110156144ae578082015181840152602081019050614493565b50505050905090810190601f1680156144db5780820380516001836020036101000a031916815260200191505b509250505060405180910390fd5b5060008385816144f557fe5b04905080915050939250505056fe45524332303a207472616e7366657220746f20746865207a65726f20616464726573734f6e6c792074686520506f6c696379204d616e6167656d656e7420636f6e74726163742063616e2063616c6c20746869732066756e6374696f6e45524332303a206275726e20616d6f756e7420657863656564732062616c616e636545524332303a20617070726f766520746f20746865207a65726f206164647265737354686973207472616e736974696f6e2063616e206f6e6c79206265207365742061742046756e6374696f6e696e6720737461676554686973207472616e736974696f6e2063616e206f6e6c79206265207365742061742046756e6374696f6e696e67206f722050617573656420737461676545524332303a207472616e7366657220616d6f756e7420657863656564732062616c616e636554686973207472616e736974696f6e2063616e206f6e6c7920626520736574206174204177616974696e67436f6e747269627574696f6e732073746167654f6e6c792074686520636f6e7472616374206f776e65722063616e2063616c6c20746869732066756e6374696f6e5769746864726177616c20616d6f756e74206d757374206265207375706572696f7220746f2030536166654d6174683a206d756c7469706c69636174696f6e206f766572666c6f7745524332303a207472616e7366657220616d6f756e74206578636565647320616c6c6f77616e6365436f6e74726163742052656769737472792063616e206f6e6c7920626520736574206174204465706c6f79656420737461676545524332303a206275726e2066726f6d20746865207a65726f2061646472657373436f6e74726163742052656769737472792061646472657373206d75737420626520612076616c6964206164647265737345524332303a207472616e736665722066726f6d20746865207a65726f206164647265737345524332303a20617070726f76652066726f6d20746865207a65726f2061646472657373436f6e747269627574696f6e20616d6f756e74206d757374206265207375706572696f7220746f203054686973207472616e736974696f6e2063616e206f6e6c7920626520736574206174204465706c6f79656420737461676543616e6e6f74207769746864726177206265796f6e64204d696e696e696d756d204361706974616c205265736572766545524332303a2064656372656173656420616c6c6f77616e63652062656c6f77207a65726fa26469706673582212201e61db18cff78c120bbdd8af965105ad22f0db58cc5ff3c024122618b6e09c9964736f6c634300060c0033",
  "immutableReferences": {},
  "source": "pragma solidity >=0.4.21 <0.7.0;\r\n\r\nimport \"@openzeppelin/contracts/token/ERC20/IERC20.sol\";\r\nimport \"@openzeppelin/contracts/token/ERC20/ERC20.sol\";\r\nimport \"@openzeppelin/contracts/math/SafeMath.sol\";\r\nimport \"./ContractRegistry.sol\";\r\nimport \"./InvestmentManagement.sol\";\r\n\r\ncontract LiquidityManagement is ERC20(\"CherishToken\", \"CHERISH\") {\r\n    using SafeMath for uint256;\r\n\r\n    // interfaces & contract instantiations\r\n\r\n    IERC20 public paymentToken;\r\n    ContractRegistry public contractRegistry;\r\n    InvestmentManagement public investmentManagement;\r\n\r\n    // events\r\n\r\n    event ContractRegistryInitiated(uint256 date, address _contractRegistry);\r\n    event ContractOpenedForContributions(uint256 date);\r\n    event ContributionsClosedContractActive(\r\n        uint256 date,\r\n        uint256 _currentLiquidityReserves,\r\n        uint256 _totalAvailableReserves\r\n    );\r\n    event SystemPauseToggled(uint256 date, ContractState);\r\n    event SystemShutdown(uint256 date, ContractState);\r\n    event LiquidityAddedViaContribution(\r\n        uint256 date,\r\n        address _contributor,\r\n        uint256 _amount,\r\n        uint256 _currentLiquidityReserves,\r\n        uint256 _totalAvailableReserves\r\n    );\r\n    event NewPolicyAdded(\r\n        uint256 date,\r\n        uint256 _liability,\r\n        uint256 _currentLiquidityReserves,\r\n        uint256 _totalAvailableReserves,\r\n        uint256 _totalLiabilities,\r\n        uint256 _minimumCapitalReserve,\r\n        uint256 _lowerLiquidityLimit,\r\n        uint256 _higherLiquidityLimit\r\n    );\r\n    event PremiumReceived(\r\n        uint256 date,\r\n        uint256 _currentLiquidityReserves,\r\n        uint256 _totalAvailableReserves\r\n    );\r\n    event LiquidityWithdrawnViaBuyback(\r\n        uint256 date,\r\n        address _withdrawer,\r\n        uint256 _payout,\r\n        uint256 _currentLiquidityReserves,\r\n        uint256 _totalAvailableReserves\r\n    );\r\n    event LiquidityWithdrawnViaPayout(\r\n        uint256 date,\r\n        address _beneficiary,\r\n        uint256 _payout,\r\n        uint256 _currentLiquidityReserves,\r\n        uint256 _totalAvailableReserves\r\n    );\r\n    event LiabilityRemoved(\r\n        uint256 date,\r\n        uint256 _payout,\r\n        uint256 _currentLiquidityReserves,\r\n        uint256 _totalAvailableReserves\r\n    );\r\n\r\n    // enums and structs\r\n\r\n    enum ContractState {\r\n        Deployed,\r\n        AwaitingContributions,\r\n        Functioning,\r\n        Paused,\r\n        Shutdown\r\n    }\r\n\r\n    // contract variables in storage\r\n\r\n    address contractOwner;\r\n    uint256 public totalLiabilities;\r\n    uint256 public minimumCapitalReserve;\r\n    uint256 public lowerLiquidityLimit;\r\n    uint256 public higherLiquidityLimit;\r\n    uint256 public currentLiquidityReserves;\r\n    ContractState public currentContractState;\r\n\r\n    mapping(address => uint256) private _balances;\r\n\r\n    mapping(address => mapping(address => uint256)) private _allowances;\r\n\r\n    address[] private tokenholders;\r\n\r\n    uint256 private _totalSupply;\r\n\r\n    // modifiers\r\n\r\n    modifier onlyOwner() {\r\n        require(\r\n            msg.sender == contractOwner,\r\n            \"Only the contract owner can call this function\"\r\n        );\r\n        _;\r\n    }\r\n\r\n    modifier onlyPolMgt() {\r\n        require(\r\n            msg.sender == contractRegistry.policyManagementContract(),\r\n            \"Only the Policy Management contract can call this function\"\r\n        );\r\n        _;\r\n    }\r\n\r\n    modifier notPaused() {\r\n        require(\r\n            currentContractState != ContractState.Paused,\r\n            \"The contract is paused\"\r\n        );\r\n        _;\r\n    }\r\n\r\n    // constructor function\r\n\r\n    constructor() public {\r\n        contractOwner = msg.sender;\r\n        currentContractState = ContractState.Deployed;\r\n        totalLiabilities = 0;\r\n        lowerLiquidityLimit = 0;\r\n        higherLiquidityLimit = 0;\r\n        currentLiquidityReserves = 0;\r\n    }\r\n\r\n    // test/admin functions\r\n\r\n    function setContractRegistryAndAddresses(address _contractRegistry)\r\n        public\r\n        onlyOwner\r\n    {\r\n        require(\r\n            _contractRegistry != address(0),\r\n            \"Contract Registry address must be a valid address\"\r\n        );\r\n        require(\r\n            currentContractState == ContractState.Deployed,\r\n            \"Contract Registry can only be set at Deployed stage\"\r\n        );\r\n        _setContractRegistryAndAddresses(_contractRegistry);\r\n    }\r\n\r\n    function openContractForContributions() public onlyOwner {\r\n        require(\r\n            currentContractState == ContractState.Deployed,\r\n            \"This transition can only be set at Deployed stage\"\r\n        );\r\n        _openContractForContributions();\r\n    }\r\n\r\n    function closeContributionsAndActivate() public onlyOwner {\r\n        require(\r\n            currentContractState == ContractState.AwaitingContributions,\r\n            \"This transition can only be set at AwaitingContributions stage\"\r\n        );\r\n        _closeContributionsAndActivate();\r\n    }\r\n\r\n    function toggleSystemPause() public onlyOwner {\r\n        require(\r\n            currentContractState == ContractState.Functioning ||\r\n                currentContractState == ContractState.Paused,\r\n            \"This transition can only be set at Functioning stage\"\r\n        );\r\n        _toggleSystemPause();\r\n    }\r\n\r\n    function systemShutdown() public onlyOwner {\r\n        require(\r\n            currentContractState == ContractState.Functioning ||\r\n                currentContractState == ContractState.Paused,\r\n            \"This transition can only be set at Functioning or Paused stage\"\r\n        );\r\n        _systemShutdown();\r\n    }\r\n\r\n    // public functions\r\n\r\n    function addInitialLiquidityViaInitialContribution(uint256 _amount) public {\r\n        require(currentContractState == ContractState.AwaitingContributions);\r\n        require(_amount > 0, \"Contribution amount must be superior to 0\");\r\n\r\n        address contributor = msg.sender;\r\n\r\n        _addLiquidityViaContribution(contributor, _amount);\r\n    }\r\n\r\n    function addLiquidityViaRecapitalization(uint256 _amount) public {\r\n        require(currentContractState == ContractState.Functioning);\r\n        require(_amount > 0, \"Contribution amount must be superior to 0\");\r\n        address contributor = msg.sender;\r\n        _addLiquidityViaContribution(contributor, _amount);\r\n    }\r\n\r\n    function addNewPolicy(\r\n        address _policyholder,\r\n        uint256 _initialPremium,\r\n        uint256 _liability\r\n    ) public notPaused onlyPolMgt {\r\n        require(currentContractState == ContractState.Functioning);\r\n        _addNewPolicy(_policyholder, _initialPremium, _liability);\r\n    }\r\n\r\n    function addLiquidityViaPremium(address _policyholder, uint256 _premium)\r\n        public\r\n        notPaused\r\n        onlyPolMgt\r\n    {\r\n        _addLiquidityViaPremium(_policyholder, _premium);\r\n    }\r\n\r\n    function withdrawLiquidityViaPayout(address _beneficiary, uint256 _payout)\r\n        public\r\n        notPaused\r\n        onlyPolMgt\r\n    {\r\n        _withdrawLiquidityViaPayout(_beneficiary, _payout);\r\n    }\r\n\r\n    function removeLiability(uint256 _liability) public notPaused onlyPolMgt {\r\n        _removeLiability(_liability);\r\n    }\r\n\r\n    function withdrawLiquidityViaBuyback(uint256 _amount) public {\r\n        // _amount refers here to the number of CHERISH tokens to be burned\r\n        require(_amount > 0, \"Withdrawal amount must be superior to 0\");\r\n        require(\r\n            balanceOf(msg.sender) >= _amount,\r\n            \"CHERISH balance insufficient\"\r\n        );\r\n\r\n        address withdrawer = msg.sender;\r\n        _withdrawLiquidityViaBuyback(withdrawer, _amount, false);\r\n    }\r\n\r\n    function getTotalAvailableReserves() public view returns (uint256) {\r\n        uint256 totalAvailableReserves;\r\n        totalAvailableReserves = currentLiquidityReserves.add(\r\n            investmentManagement.getInvestedFunds()\r\n        );\r\n        return totalAvailableReserves;\r\n    }\r\n\r\n    // private functions\r\n\r\n    function _setContractRegistryAndAddresses(address _contractRegistry)\r\n        private\r\n    {\r\n        contractRegistry = ContractRegistry(_contractRegistry);\r\n        paymentToken = IERC20(contractRegistry.paymentTokenContract());\r\n        investmentManagement = InvestmentManagement(\r\n            contractRegistry.investmentManagementContract()\r\n        );\r\n\r\n        emit ContractRegistryInitiated(now, _contractRegistry);\r\n    }\r\n\r\n    function _openContractForContributions() private {\r\n        currentContractState = ContractState.AwaitingContributions;\r\n        emit ContractOpenedForContributions(now);\r\n    }\r\n\r\n    function _closeContributionsAndActivate() private {\r\n        currentContractState = ContractState.Functioning;\r\n        /* REMOVED FOR TESTING PURPOSES\r\n        uint256 totalAvailableReserves = getTotalAvailableReserves();\r\n        emit ContributionsClosedContractActive(\r\n            now,\r\n            currentLiquidityReserves,\r\n            totalAvailableReserves\r\n        );\r\n        */\r\n    }\r\n\r\n    function _toggleSystemPause() private {\r\n        if (currentContractState == ContractState.Functioning) {\r\n            currentContractState = ContractState.Paused;\r\n        } else if (currentContractState == ContractState.Paused) {\r\n            currentContractState = ContractState.Functioning;\r\n        }\r\n\r\n        emit SystemPauseToggled(now, currentContractState);\r\n    }\r\n\r\n    function _systemShutdown() private {\r\n        currentContractState = ContractState.Shutdown;\r\n\r\n        for (uint256 i = 0; i < tokenholders.length; i++) {\r\n            _withdrawLiquidityViaBuyback(\r\n                tokenholders[i],\r\n                balanceOf(tokenholders[i]),\r\n                true\r\n            );\r\n        }\r\n\r\n        emit SystemShutdown(now, currentContractState);\r\n    }\r\n\r\n    function _addLiquidityViaContribution(address _contributor, uint256 _amount)\r\n        private\r\n    {\r\n        paymentToken.transferFrom(_contributor, address(this), _amount);\r\n\r\n        _mint(_contributor, _amount);\r\n\r\n        tokenholders.push(_contributor);\r\n        currentLiquidityReserves = currentLiquidityReserves.add(_amount);\r\n        /*\r\n        if (currentLiquidityReserves > higherLiquidityLimit) {\r\n            uint256 diff2higher =\r\n                currentLiquidityReserves.sub(higherLiquidityLimit);\r\n            uint256 higher2average =\r\n                (higherLiquidityLimit.sub(lowerLiquidityLimit)).div(2);\r\n            uint256 additionToInvest = diff2higher.add(higher2average);\r\n\r\n            // send payment tokens to InvestmentManagement contract\r\n            paymentToken.approve(\r\n                contractRegistry.investmentManagementContract(),\r\n                additionToInvest\r\n            );\r\n            paymentToken.transfer(\r\n                contractRegistry.investmentManagementContract(),\r\n                additionToInvest\r\n            );\r\n            investmentManagement.addFundsForInvestment(additionToInvest);\r\n            currentLiquidityReserves = currentLiquidityReserves.sub(\r\n                additionToInvest\r\n            );\r\n        }\r\n\r\n        assert(currentLiquidityReserves <= higherLiquidityLimit);\r\n        assert(\r\n            currentLiquidityReserves == paymentToken.balanceOf(address(this))\r\n        );\r\n\r\n        uint256 totalAvailableReserves = getTotalAvailableReserves();\r\n        emit LiquidityAddedViaContribution(\r\n            now,\r\n            _contributor,\r\n            _amount,\r\n            currentLiquidityReserves,\r\n            totalAvailableReserves\r\n        );\r\n        */\r\n    }\r\n\r\n    function _withdrawLiquidityViaBuyback(\r\n        address _withdrawer,\r\n        uint256 _amount,\r\n        bool _shutdown\r\n    ) private {\r\n        // _amount refers here to the number of CHERISH tokens to be burned\r\n        uint256 currentTotalAvailableReserves = getTotalAvailableReserves();\r\n        uint256 withdrawal =\r\n            _amount.mul(currentTotalAvailableReserves).div(totalSupply()); // token share = _amount / totalSupply()\r\n\r\n        if (_shutdown == false) {\r\n            require(\r\n                currentTotalAvailableReserves.sub(withdrawal) >=\r\n                    minimumCapitalReserve,\r\n                \"Cannot withdraw beyond Mininimum Capital Reserve\"\r\n            );\r\n        }\r\n\r\n        if (withdrawal > currentLiquidityReserves) {\r\n            uint256 minimumWithdrawal =\r\n                withdrawal.sub(currentLiquidityReserves);\r\n            uint256 targetAverage =\r\n                (higherLiquidityLimit.add(lowerLiquidityLimit)).div(2);\r\n            // draw payment tokens from InvestmentManagement contract\r\n            uint256 withdrawalFromInvest = minimumWithdrawal.add(targetAverage);\r\n            investmentManagement.withdrawInvestedFunds(\r\n                withdrawalFromInvest,\r\n                _shutdown\r\n            );\r\n            currentLiquidityReserves = targetAverage;\r\n        } else if (\r\n            (currentLiquidityReserves.sub(withdrawal)) < lowerLiquidityLimit\r\n        ) {\r\n            currentLiquidityReserves = currentLiquidityReserves.sub(withdrawal);\r\n            uint256 diff2lower =\r\n                lowerLiquidityLimit.sub(currentLiquidityReserves);\r\n            uint256 lower2average =\r\n                (higherLiquidityLimit.sub(lowerLiquidityLimit)).div(2);\r\n            uint256 withdrawalFromInvest = diff2lower.add(lower2average);\r\n            // draw payment tokens from InvestmentManagement contract\r\n            investmentManagement.withdrawInvestedFunds(\r\n                withdrawalFromInvest,\r\n                _shutdown\r\n            );\r\n            currentLiquidityReserves = currentLiquidityReserves.add(\r\n                withdrawalFromInvest\r\n            );\r\n        } else {\r\n            currentLiquidityReserves = currentLiquidityReserves.sub(withdrawal);\r\n        }\r\n\r\n        if (_shutdown == false) {\r\n            assert(currentLiquidityReserves >= lowerLiquidityLimit);\r\n        }\r\n\r\n        if (\r\n            _shutdown == true &&\r\n            paymentToken.balanceOf(address(this)) < withdrawal\r\n        ) {\r\n            paymentToken.approve(\r\n                _withdrawer,\r\n                paymentToken.balanceOf(address(this))\r\n            );\r\n            paymentToken.transfer(\r\n                _withdrawer,\r\n                paymentToken.balanceOf(address(this))\r\n            );\r\n            currentLiquidityReserves = 0;\r\n        } else {\r\n            paymentToken.approve(_withdrawer, withdrawal);\r\n            paymentToken.transfer(_withdrawer, withdrawal);\r\n        }\r\n\r\n        if (_shutdown == false) {\r\n            assert(\r\n                currentLiquidityReserves ==\r\n                    paymentToken.balanceOf(address(this))\r\n            );\r\n        }\r\n\r\n        uint256 newTotalAvailableReserves = getTotalAvailableReserves();\r\n\r\n        emit LiquidityWithdrawnViaBuyback(\r\n            now,\r\n            _withdrawer,\r\n            withdrawal,\r\n            currentLiquidityReserves,\r\n            newTotalAvailableReserves\r\n        );\r\n\r\n        _burn(_withdrawer, _amount);\r\n    }\r\n\r\n    function _addNewPolicy(\r\n        address _policyholder,\r\n        uint256 _initialPremium,\r\n        uint256 _liability\r\n    ) private {\r\n        paymentToken.transferFrom(\r\n            _policyholder,\r\n            address(this),\r\n            _initialPremium\r\n        );\r\n\r\n        totalLiabilities = totalLiabilities.add(_liability);\r\n        minimumCapitalReserve = minimumCapitalReserve.add(\r\n            _liability.mul(15).div(100)\r\n        ); // MCR must be 15% of all liabilities\r\n\r\n        lowerLiquidityLimit = minimumCapitalReserve\r\n            .mul(10)\r\n            .mul(80)\r\n            .div(100)\r\n            .div(100); // liquidity reserve set at 10% of MCR, 80% being the lower band\r\n        higherLiquidityLimit = minimumCapitalReserve\r\n            .mul(10)\r\n            .mul(120)\r\n            .div(100)\r\n            .div(100); // higher band at 120%\r\n\r\n        currentLiquidityReserves = currentLiquidityReserves.add(\r\n            _initialPremium\r\n        );\r\n        /* REMOVED FOR TESTING PURPOSES\r\n        if (currentLiquidityReserves > higherLiquidityLimit) {\r\n            uint256 diff2higher =\r\n                currentLiquidityReserves.sub(higherLiquidityLimit);\r\n            uint256 higher2average =\r\n                (higherLiquidityLimit.sub(lowerLiquidityLimit)).div(2);\r\n            uint256 additionToInvest = diff2higher.add(higher2average);\r\n            // send payment tokens to InvestmentManagement contract\r\n            paymentToken.approve(\r\n                contractRegistry.investmentManagementContract(),\r\n                additionToInvest\r\n            );\r\n            paymentToken.transfer(\r\n                contractRegistry.investmentManagementContract(),\r\n                additionToInvest\r\n            );\r\n            investmentManagement.addFundsForInvestment(additionToInvest);\r\n            currentLiquidityReserves = currentLiquidityReserves.sub(\r\n                additionToInvest\r\n            );\r\n        }\r\n        \r\n        assert(currentLiquidityReserves <= higherLiquidityLimit);\r\n        assert(\r\n            currentLiquidityReserves == paymentToken.balanceOf(address(this))\r\n        );\r\n        \r\n        uint256 totalAvailableReserves = getTotalAvailableReserves();\r\n\r\n        emit NewPolicyAdded(\r\n            now,\r\n            _liability,\r\n            currentLiquidityReserves,\r\n            totalAvailableReserves,\r\n            totalLiabilities,\r\n            minimumCapitalReserve,\r\n            lowerLiquidityLimit,\r\n            higherLiquidityLimit\r\n        );\r\n        */\r\n    }\r\n\r\n    function _addLiquidityViaPremium(address _policyholder, uint256 _premium)\r\n        private\r\n    {\r\n        paymentToken.transferFrom(\r\n            _policyholder,\r\n            contractRegistry.liquidityManagementContract(),\r\n            _premium\r\n        );\r\n\r\n        currentLiquidityReserves = currentLiquidityReserves.add(_premium);\r\n        /* REMOVED FOR TESTING PURPOSES\r\n        if (currentLiquidityReserves > higherLiquidityLimit) {\r\n            uint256 diff2higher =\r\n                currentLiquidityReserves.sub(higherLiquidityLimit);\r\n            uint256 higher2average =\r\n                (higherLiquidityLimit.sub(lowerLiquidityLimit)).div(2);\r\n            uint256 additionToInvest = diff2higher.add(higher2average);\r\n            // send payment tokens to InvestmentManagement contract\r\n            paymentToken.approve(\r\n                contractRegistry.investmentManagementContract(),\r\n                additionToInvest\r\n            );\r\n            paymentToken.transfer(\r\n                contractRegistry.investmentManagementContract(),\r\n                additionToInvest\r\n            );\r\n            investmentManagement.addFundsForInvestment(additionToInvest);\r\n            currentLiquidityReserves = currentLiquidityReserves.sub(\r\n                additionToInvest\r\n            );\r\n        }\r\n\r\n        assert(currentLiquidityReserves <= higherLiquidityLimit);\r\n        assert(\r\n            currentLiquidityReserves == paymentToken.balanceOf(address(this))\r\n        );\r\n        \r\n        uint256 totalAvailableReserves = getTotalAvailableReserves();\r\n\r\n        emit PremiumReceived(\r\n            now,\r\n            currentLiquidityReserves,\r\n            totalAvailableReserves\r\n        );\r\n        */\r\n    }\r\n\r\n    function _withdrawLiquidityViaPayout(address _beneficiary, uint256 _payout)\r\n        private\r\n    {\r\n        totalLiabilities = totalLiabilities.sub(_payout);\r\n        minimumCapitalReserve = minimumCapitalReserve.sub(\r\n            _payout.mul(15).div(100)\r\n        ); // MCR must be 15% of all liabilities\r\n\r\n        lowerLiquidityLimit = minimumCapitalReserve\r\n            .mul(10)\r\n            .mul(80)\r\n            .div(100)\r\n            .div(100); // liquidity reserve set at 10% of MCR, 80% being the lower band\r\n        higherLiquidityLimit = minimumCapitalReserve\r\n            .mul(10)\r\n            .mul(120)\r\n            .div(100)\r\n            .div(100); // higher band at 120%\r\n        /* REMOVED FOR TESTING PURPOSES\r\n        if (_payout > currentLiquidityReserves) {\r\n            uint256 minimumWithdrawal = _payout.sub(currentLiquidityReserves);\r\n            uint256 targetAverage =\r\n                (higherLiquidityLimit.add(lowerLiquidityLimit)).div(2);\r\n            // draw payment tokens from InvestmentManagement contract\r\n            uint256 withdrawalFromInvest = minimumWithdrawal.add(targetAverage);\r\n            investmentManagement.withdrawInvestedFunds(\r\n                withdrawalFromInvest,\r\n                false\r\n            );\r\n            currentLiquidityReserves = targetAverage;\r\n        } else if (\r\n            (currentLiquidityReserves.sub(_payout)) < lowerLiquidityLimit\r\n        ) {\r\n            currentLiquidityReserves = currentLiquidityReserves.sub(_payout);\r\n            uint256 diff2lower =\r\n                lowerLiquidityLimit.sub(currentLiquidityReserves);\r\n            uint256 lower2average =\r\n                (higherLiquidityLimit.sub(lowerLiquidityLimit)).div(2);\r\n            uint256 withdrawalFromInvest = diff2lower.add(lower2average);\r\n            // draw payment tokens from InvestmentManagement contract\r\n            investmentManagement.withdrawInvestedFunds(\r\n                withdrawalFromInvest,\r\n                false\r\n            );\r\n            currentLiquidityReserves = currentLiquidityReserves.add(\r\n                withdrawalFromInvest\r\n            );\r\n        } else {\r\n            currentLiquidityReserves = currentLiquidityReserves.sub(_payout);\r\n        }\r\n\r\n        assert(currentLiquidityReserves >= lowerLiquidityLimit);\r\n\r\n        paymentToken.approve(_beneficiary, _payout);\r\n        paymentToken.transfer(_beneficiary, _payout);\r\n\r\n        assert(\r\n            currentLiquidityReserves == paymentToken.balanceOf(address(this))\r\n        );\r\n\r\n        uint256 totalAvailableReserves = getTotalAvailableReserves();\r\n\r\n        emit LiquidityWithdrawnViaPayout(\r\n            now,\r\n            _beneficiary,\r\n            _payout,\r\n            currentLiquidityReserves,\r\n            totalAvailableReserves\r\n        );\r\n        */\r\n\r\n        // TO DELETE\r\n        currentLiquidityReserves = currentLiquidityReserves.sub(_payout);\r\n\r\n        paymentToken.approve(_beneficiary, _payout);\r\n        paymentToken.transfer(_beneficiary, _payout);\r\n        assert(\r\n            currentLiquidityReserves == paymentToken.balanceOf(address(this))\r\n        );\r\n    }\r\n\r\n    function _removeLiability(uint256 _liability) private {\r\n        totalLiabilities = totalLiabilities.sub(_liability);\r\n        minimumCapitalReserve = minimumCapitalReserve.sub(\r\n            _liability.mul(15).div(100)\r\n        ); // MCR must be 15% of all liabilities\r\n\r\n        lowerLiquidityLimit = minimumCapitalReserve\r\n            .mul(10)\r\n            .mul(80)\r\n            .div(100)\r\n            .div(100); // liquidity reserve set at 10% of MCR, 80% being the lower band\r\n        higherLiquidityLimit = minimumCapitalReserve\r\n            .mul(10)\r\n            .mul(120)\r\n            .div(100)\r\n            .div(100); // higher band at 120%\r\n        /* REMOVED FOR TESTING PURPOSES\r\n        if (currentLiquidityReserves > higherLiquidityLimit) {\r\n            uint256 diff2higher =\r\n                currentLiquidityReserves.sub(higherLiquidityLimit);\r\n            uint256 higher2average =\r\n                (higherLiquidityLimit.sub(lowerLiquidityLimit)).div(2);\r\n            uint256 additionToInvest = diff2higher.add(higher2average);\r\n            // send payment tokens to InvestmentManagement contract\r\n            paymentToken.approve(\r\n                contractRegistry.investmentManagementContract(),\r\n                additionToInvest\r\n            );\r\n            paymentToken.transfer(\r\n                contractRegistry.investmentManagementContract(),\r\n                additionToInvest\r\n            );\r\n            investmentManagement.addFundsForInvestment(additionToInvest);\r\n            currentLiquidityReserves = currentLiquidityReserves.sub(\r\n                additionToInvest\r\n            );\r\n        }\r\n        \r\n        assert(currentLiquidityReserves <= higherLiquidityLimit);\r\n        assert(\r\n            currentLiquidityReserves == paymentToken.balanceOf(address(this))\r\n        );\r\n\r\n        uint256 totalAvailableReserves = getTotalAvailableReserves();\r\n\r\n        emit LiabilityRemoved(\r\n            now,\r\n            _payout,\r\n            currentLiquidityReserves,\r\n            totalAvailableReserves\r\n        );\r\n        */\r\n    }\r\n}\r\n",
  "sourcePath": "/home/damas/cherish/contracts/LiquidityManagement.sol",
  "compiler": {
    "name": "solc",
    "version": "0.6.12+commit.27d51765.Emscripten.clang"
  },
  "schemaVersion": "3.3.3",
  "updatedAt": "2021-05-22T03:51:13.536Z",
  "devdoc": {
    "kind": "dev",
    "methods": {
      "allowance(address,address)": {
        "details": "See {IERC20-allowance}."
      },
      "approve(address,uint256)": {
        "details": "See {IERC20-approve}. Requirements: - `spender` cannot be the zero address."
      },
      "balanceOf(address)": {
        "details": "See {IERC20-balanceOf}."
      },
      "decimals()": {
        "details": "Returns the number of decimals used to get its user representation. For example, if `decimals` equals `2`, a balance of `505` tokens should be displayed to a user as `5,05` (`505 / 10 ** 2`). Tokens usually opt for a value of 18, imitating the relationship between Ether and Wei. This is the value {ERC20} uses, unless {_setupDecimals} is called. NOTE: This information is only used for _display_ purposes: it in no way affects any of the arithmetic of the contract, including {IERC20-balanceOf} and {IERC20-transfer}."
      },
      "decreaseAllowance(address,uint256)": {
        "details": "Atomically decreases the allowance granted to `spender` by the caller. This is an alternative to {approve} that can be used as a mitigation for problems described in {IERC20-approve}. Emits an {Approval} event indicating the updated allowance. Requirements: - `spender` cannot be the zero address. - `spender` must have allowance for the caller of at least `subtractedValue`."
      },
      "increaseAllowance(address,uint256)": {
        "details": "Atomically increases the allowance granted to `spender` by the caller. This is an alternative to {approve} that can be used as a mitigation for problems described in {IERC20-approve}. Emits an {Approval} event indicating the updated allowance. Requirements: - `spender` cannot be the zero address."
      },
      "name()": {
        "details": "Returns the name of the token."
      },
      "symbol()": {
        "details": "Returns the symbol of the token, usually a shorter version of the name."
      },
      "totalSupply()": {
        "details": "See {IERC20-totalSupply}."
      },
      "transfer(address,uint256)": {
        "details": "See {IERC20-transfer}. Requirements: - `recipient` cannot be the zero address. - the caller must have a balance of at least `amount`."
      },
      "transferFrom(address,address,uint256)": {
        "details": "See {IERC20-transferFrom}. Emits an {Approval} event indicating the updated allowance. This is not required by the EIP. See the note at the beginning of {ERC20}; Requirements: - `sender` and `recipient` cannot be the zero address. - `sender` must have a balance of at least `amount`. - the caller must have allowance for ``sender``'s tokens of at least `amount`."
      }
    },
    "version": 1
  },
  "userdoc": {
    "kind": "user",
    "methods": {},
    "version": 1
  }
}