{
  "contractName": "PolicyManagement",
  "abi": [
    {
      "inputs": [],
      "stateMutability": "nonpayable",
      "type": "constructor"
    },
    {
      "anonymous": false,
      "inputs": [
        {
          "indexed": false,
          "internalType": "uint256",
          "name": "date",
          "type": "uint256"
        },
        {
          "indexed": false,
          "internalType": "bytes32",
          "name": "_policyIDhash",
          "type": "bytes32"
        },
        {
          "indexed": false,
          "internalType": "address[]",
          "name": "_beneficiaries",
          "type": "address[]"
        }
      ],
      "name": "BeneficiariesAllocated",
      "type": "event"
    },
    {
      "anonymous": false,
      "inputs": [
        {
          "indexed": false,
          "internalType": "uint256",
          "name": "date",
          "type": "uint256"
        },
        {
          "indexed": false,
          "internalType": "bytes32",
          "name": "_policyIDhash",
          "type": "bytes32"
        },
        {
          "indexed": false,
          "internalType": "address",
          "name": "_beneficiary",
          "type": "address"
        }
      ],
      "name": "BeneficiaryConfirmed",
      "type": "event"
    },
    {
      "anonymous": false,
      "inputs": [
        {
          "indexed": false,
          "internalType": "uint256",
          "name": "date",
          "type": "uint256"
        },
        {
          "indexed": false,
          "internalType": "bytes32",
          "name": "_policyIDhash",
          "type": "bytes32"
        },
        {
          "indexed": false,
          "internalType": "address",
          "name": "_beneficiary",
          "type": "address"
        },
        {
          "indexed": false,
          "internalType": "uint256",
          "name": "_beneficiaryPayout",
          "type": "uint256"
        }
      ],
      "name": "BeneficiaryPayoutWithdrawn",
      "type": "event"
    },
    {
      "anonymous": false,
      "inputs": [
        {
          "indexed": false,
          "internalType": "uint256",
          "name": "date",
          "type": "uint256"
        },
        {
          "indexed": true,
          "internalType": "bytes32",
          "name": "_policyIDhash",
          "type": "bytes32"
        }
      ],
      "name": "ClaimConfirmed",
      "type": "event"
    },
    {
      "anonymous": false,
      "inputs": [
        {
          "indexed": false,
          "internalType": "uint256",
          "name": "date",
          "type": "uint256"
        },
        {
          "indexed": true,
          "internalType": "bytes32",
          "name": "_policyIDhash",
          "type": "bytes32"
        }
      ],
      "name": "ClaimRejected",
      "type": "event"
    },
    {
      "anonymous": false,
      "inputs": [
        {
          "indexed": false,
          "internalType": "address",
          "name": "_contractRegistryAddress",
          "type": "address"
        }
      ],
      "name": "ContractRegistryInitiated",
      "type": "event"
    },
    {
      "anonymous": false,
      "inputs": [
        {
          "indexed": false,
          "internalType": "uint256",
          "name": "date",
          "type": "uint256"
        },
        {
          "indexed": false,
          "internalType": "bytes32",
          "name": "_policyIDhash",
          "type": "bytes32"
        },
        {
          "indexed": false,
          "internalType": "string",
          "name": "_KYCidentifier",
          "type": "string"
        }
      ],
      "name": "KYCconfirmed",
      "type": "event"
    },
    {
      "anonymous": false,
      "inputs": [
        {
          "indexed": false,
          "internalType": "uint256",
          "name": "date",
          "type": "uint256"
        },
        {
          "indexed": false,
          "internalType": "bytes32",
          "name": "_policyIDhash",
          "type": "bytes32"
        },
        {
          "indexed": false,
          "internalType": "uint256",
          "name": "_premiumAmount",
          "type": "uint256"
        }
      ],
      "name": "PolicyActivated",
      "type": "event"
    },
    {
      "anonymous": false,
      "inputs": [
        {
          "indexed": false,
          "internalType": "uint256",
          "name": "date",
          "type": "uint256"
        },
        {
          "indexed": false,
          "internalType": "bytes32",
          "name": "_policyIDhash",
          "type": "bytes32"
        }
      ],
      "name": "PolicyCancelled",
      "type": "event"
    },
    {
      "anonymous": false,
      "inputs": [
        {
          "indexed": false,
          "internalType": "uint256",
          "name": "date",
          "type": "uint256"
        },
        {
          "indexed": false,
          "internalType": "bytes32",
          "name": "_policyIDhash",
          "type": "bytes32"
        }
      ],
      "name": "PolicyDelinquent",
      "type": "event"
    },
    {
      "anonymous": false,
      "inputs": [
        {
          "indexed": false,
          "internalType": "uint256",
          "name": "date",
          "type": "uint256"
        },
        {
          "indexed": false,
          "internalType": "bytes32",
          "name": "_policyIDhash",
          "type": "bytes32"
        }
      ],
      "name": "PolicyExpired",
      "type": "event"
    },
    {
      "anonymous": false,
      "inputs": [
        {
          "indexed": false,
          "internalType": "uint256",
          "name": "date",
          "type": "uint256"
        },
        {
          "indexed": false,
          "internalType": "bytes32",
          "name": "_policyIDhash",
          "type": "bytes32"
        }
      ],
      "name": "PolicyFullyConfirmed",
      "type": "event"
    },
    {
      "anonymous": false,
      "inputs": [
        {
          "indexed": false,
          "internalType": "uint256",
          "name": "date",
          "type": "uint256"
        },
        {
          "indexed": false,
          "internalType": "bytes32",
          "name": "_policyIDhash",
          "type": "bytes32"
        }
      ],
      "name": "PolicyFullyPaidOut",
      "type": "event"
    },
    {
      "anonymous": false,
      "inputs": [
        {
          "indexed": false,
          "internalType": "uint256",
          "name": "date",
          "type": "uint256"
        },
        {
          "indexed": false,
          "internalType": "bytes32",
          "name": "_policyIDhash",
          "type": "bytes32"
        },
        {
          "indexed": false,
          "internalType": "uint256",
          "name": "_premiumAmount",
          "type": "uint256"
        }
      ],
      "name": "PremiumPaid",
      "type": "event"
    },
    {
      "anonymous": false,
      "inputs": [
        {
          "indexed": false,
          "internalType": "uint256",
          "name": "date",
          "type": "uint256"
        },
        {
          "indexed": false,
          "internalType": "bytes32",
          "name": "_policyIDhash",
          "type": "bytes32"
        }
      ],
      "name": "QuoteConfirmed",
      "type": "event"
    },
    {
      "inputs": [
        {
          "internalType": "address",
          "name": "",
          "type": "address"
        },
        {
          "internalType": "uint256",
          "name": "",
          "type": "uint256"
        }
      ],
      "name": "beneficiaryRegister",
      "outputs": [
        {
          "internalType": "bytes32",
          "name": "",
          "type": "bytes32"
        }
      ],
      "stateMutability": "view",
      "type": "function"
    },
    {
      "inputs": [],
      "name": "claimsManagement",
      "outputs": [
        {
          "internalType": "contract ClaimsManagement",
          "name": "",
          "type": "address"
        }
      ],
      "stateMutability": "view",
      "type": "function"
    },
    {
      "inputs": [],
      "name": "contractOwner",
      "outputs": [
        {
          "internalType": "address",
          "name": "",
          "type": "address"
        }
      ],
      "stateMutability": "view",
      "type": "function"
    },
    {
      "inputs": [],
      "name": "contractRegistry",
      "outputs": [
        {
          "internalType": "contract ContractRegistry",
          "name": "",
          "type": "address"
        }
      ],
      "stateMutability": "view",
      "type": "function"
    },
    {
      "inputs": [],
      "name": "liquidityManagement",
      "outputs": [
        {
          "internalType": "contract LiquidityManagement",
          "name": "",
          "type": "address"
        }
      ],
      "stateMutability": "view",
      "type": "function"
    },
    {
      "inputs": [
        {
          "internalType": "address",
          "name": "",
          "type": "address"
        }
      ],
      "name": "ownerRegister",
      "outputs": [
        {
          "internalType": "bytes32",
          "name": "",
          "type": "bytes32"
        }
      ],
      "stateMutability": "view",
      "type": "function"
    },
    {
      "inputs": [],
      "name": "paymentToken",
      "outputs": [
        {
          "internalType": "contract IERC20",
          "name": "",
          "type": "address"
        }
      ],
      "stateMutability": "view",
      "type": "function"
    },
    {
      "inputs": [
        {
          "internalType": "uint256",
          "name": "",
          "type": "uint256"
        }
      ],
      "name": "policiesArray",
      "outputs": [
        {
          "internalType": "bytes32",
          "name": "",
          "type": "bytes32"
        }
      ],
      "stateMutability": "view",
      "type": "function"
    },
    {
      "inputs": [
        {
          "internalType": "bytes32",
          "name": "",
          "type": "bytes32"
        }
      ],
      "name": "policyRegister",
      "outputs": [
        {
          "internalType": "string",
          "name": "policyID",
          "type": "string"
        },
        {
          "internalType": "address",
          "name": "policyholder",
          "type": "address"
        },
        {
          "internalType": "uint256",
          "name": "numberOfUnconfirmedBeneficiaries",
          "type": "uint256"
        },
        {
          "internalType": "enum PolicyManagement.PolicyStatus",
          "name": "currentPolicyStatus",
          "type": "uint8"
        },
        {
          "internalType": "uint256",
          "name": "lastPaymentDate",
          "type": "uint256"
        },
        {
          "internalType": "uint256",
          "name": "expiryDate",
          "type": "uint256"
        },
        {
          "internalType": "enum PolicyManagement.PaymentOptions",
          "name": "selectedPaymentOption",
          "type": "uint8"
        },
        {
          "internalType": "uint256",
          "name": "payout",
          "type": "uint256"
        },
        {
          "internalType": "uint256",
          "name": "remainingPayout",
          "type": "uint256"
        },
        {
          "internalType": "uint256",
          "name": "premiumAmount",
          "type": "uint256"
        },
        {
          "internalType": "string",
          "name": "KYCidentifier",
          "type": "string"
        }
      ],
      "stateMutability": "view",
      "type": "function"
    },
    {
      "inputs": [
        {
          "internalType": "bytes32",
          "name": "_policyIDhash",
          "type": "bytes32"
        },
        {
          "internalType": "uint256",
          "name": "_policyStatus",
          "type": "uint256"
        }
      ],
      "name": "changePolicyStatus",
      "outputs": [],
      "stateMutability": "nonpayable",
      "type": "function"
    },
    {
      "inputs": [
        {
          "internalType": "bytes32",
          "name": "_policyIDhash",
          "type": "bytes32"
        },
        {
          "internalType": "bool",
          "name": "isAdding",
          "type": "bool"
        },
        {
          "internalType": "uint256",
          "name": "_days",
          "type": "uint256"
        }
      ],
      "name": "modifyLastPaymentDate",
      "outputs": [],
      "stateMutability": "nonpayable",
      "type": "function"
    },
    {
      "inputs": [
        {
          "internalType": "bytes32",
          "name": "_policyIDhash",
          "type": "bytes32"
        },
        {
          "internalType": "uint256",
          "name": "_newExpiryDate",
          "type": "uint256"
        }
      ],
      "name": "modifyExpiryDate",
      "outputs": [],
      "stateMutability": "nonpayable",
      "type": "function"
    },
    {
      "inputs": [
        {
          "internalType": "address",
          "name": "_contractRegistry",
          "type": "address"
        }
      ],
      "name": "setContractRegistryAndAddresses",
      "outputs": [],
      "stateMutability": "nonpayable",
      "type": "function"
    },
    {
      "inputs": [
        {
          "internalType": "bytes32",
          "name": "_policyIDhash",
          "type": "bytes32"
        }
      ],
      "name": "getPolicyParameters",
      "outputs": [
        {
          "internalType": "string",
          "name": "policyID",
          "type": "string"
        },
        {
          "internalType": "address",
          "name": "policyholder",
          "type": "address"
        },
        {
          "internalType": "uint256",
          "name": "currentPolicyStatus",
          "type": "uint256"
        },
        {
          "internalType": "string",
          "name": "KYCidentifier",
          "type": "string"
        },
        {
          "internalType": "uint256",
          "name": "expiryDate",
          "type": "uint256"
        }
      ],
      "stateMutability": "view",
      "type": "function"
    },
    {
      "inputs": [
        {
          "internalType": "bytes32",
          "name": "_policyIDhash",
          "type": "bytes32"
        }
      ],
      "name": "getPolicyFinancials",
      "outputs": [
        {
          "internalType": "uint256",
          "name": "lastPaymentDate",
          "type": "uint256"
        },
        {
          "internalType": "uint256",
          "name": "selectedPaymentOption",
          "type": "uint256"
        },
        {
          "internalType": "uint256",
          "name": "payout",
          "type": "uint256"
        },
        {
          "internalType": "uint256",
          "name": "remainingPayout",
          "type": "uint256"
        },
        {
          "internalType": "uint256",
          "name": "premiumAmount",
          "type": "uint256"
        }
      ],
      "stateMutability": "view",
      "type": "function"
    },
    {
      "inputs": [
        {
          "internalType": "bytes32",
          "name": "_policyIDhash",
          "type": "bytes32"
        }
      ],
      "name": "getPolicyBeneficiariesArray",
      "outputs": [
        {
          "internalType": "address[]",
          "name": "beneficiariesArray",
          "type": "address[]"
        }
      ],
      "stateMutability": "view",
      "type": "function"
    },
    {
      "inputs": [
        {
          "internalType": "bytes32",
          "name": "_policyIDhash",
          "type": "bytes32"
        },
        {
          "internalType": "address",
          "name": "_beneficiary",
          "type": "address"
        }
      ],
      "name": "getBeneficiaryInfo",
      "outputs": [
        {
          "internalType": "uint8",
          "name": "beneficiaryStatus",
          "type": "uint8"
        },
        {
          "internalType": "uint8",
          "name": "beneficiaryShare",
          "type": "uint8"
        }
      ],
      "stateMutability": "view",
      "type": "function"
    },
    {
      "inputs": [
        {
          "internalType": "address",
          "name": "_beneficiary",
          "type": "address"
        }
      ],
      "name": "getBeneficiaryPoliciesArray",
      "outputs": [
        {
          "internalType": "bytes32[]",
          "name": "beneficiaryPoliciesArray",
          "type": "bytes32[]"
        }
      ],
      "stateMutability": "view",
      "type": "function"
    },
    {
      "inputs": [],
      "name": "getPoliciesArray",
      "outputs": [
        {
          "internalType": "bytes32[]",
          "name": "",
          "type": "bytes32[]"
        }
      ],
      "stateMutability": "view",
      "type": "function"
    },
    {
      "inputs": [
        {
          "internalType": "uint256",
          "name": "_age",
          "type": "uint256"
        },
        {
          "internalType": "bool",
          "name": "_isSmoker",
          "type": "bool"
        },
        {
          "internalType": "string",
          "name": "_paymentOption",
          "type": "string"
        },
        {
          "internalType": "uint256",
          "name": "_payout",
          "type": "uint256"
        }
      ],
      "name": "quote",
      "outputs": [
        {
          "internalType": "uint256",
          "name": "premiumAmount",
          "type": "uint256"
        }
      ],
      "stateMutability": "pure",
      "type": "function"
    },
    {
      "inputs": [
        {
          "internalType": "string",
          "name": "_policyID",
          "type": "string"
        },
        {
          "internalType": "uint256",
          "name": "_age",
          "type": "uint256"
        },
        {
          "internalType": "bool",
          "name": "_isSmoker",
          "type": "bool"
        },
        {
          "internalType": "string",
          "name": "_paymentOption",
          "type": "string"
        },
        {
          "internalType": "uint256",
          "name": "_payout",
          "type": "uint256"
        }
      ],
      "name": "confirmQuote",
      "outputs": [],
      "stateMutability": "nonpayable",
      "type": "function"
    },
    {
      "inputs": [
        {
          "internalType": "bytes32",
          "name": "_policyIDhash",
          "type": "bytes32"
        },
        {
          "internalType": "address[]",
          "name": "_beneficiaries",
          "type": "address[]"
        },
        {
          "internalType": "uint8[]",
          "name": "_beneficiariesShare",
          "type": "uint8[]"
        }
      ],
      "name": "setBeneficiaries",
      "outputs": [],
      "stateMutability": "nonpayable",
      "type": "function"
    },
    {
      "inputs": [
        {
          "internalType": "bytes32",
          "name": "_policyIDhash",
          "type": "bytes32"
        },
        {
          "internalType": "string",
          "name": "_KYCidentifier",
          "type": "string"
        }
      ],
      "name": "confirmKYC",
      "outputs": [],
      "stateMutability": "nonpayable",
      "type": "function"
    },
    {
      "inputs": [
        {
          "internalType": "bytes32",
          "name": "_policyIDhash",
          "type": "bytes32"
        }
      ],
      "name": "confirmBeneficiary",
      "outputs": [],
      "stateMutability": "nonpayable",
      "type": "function"
    },
    {
      "inputs": [
        {
          "internalType": "bytes32",
          "name": "_policyIDhash",
          "type": "bytes32"
        }
      ],
      "name": "firstPaymentAndActivation",
      "outputs": [],
      "stateMutability": "nonpayable",
      "type": "function"
    },
    {
      "inputs": [
        {
          "internalType": "bytes32",
          "name": "_policyIDhash",
          "type": "bytes32"
        }
      ],
      "name": "payPremium",
      "outputs": [],
      "stateMutability": "nonpayable",
      "type": "function"
    },
    {
      "inputs": [
        {
          "internalType": "bytes32",
          "name": "_policyIDhash",
          "type": "bytes32"
        }
      ],
      "name": "cancelPolicy",
      "outputs": [],
      "stateMutability": "nonpayable",
      "type": "function"
    },
    {
      "inputs": [
        {
          "internalType": "bytes32",
          "name": "_policyIDhash",
          "type": "bytes32"
        }
      ],
      "name": "startClaim",
      "outputs": [],
      "stateMutability": "nonpayable",
      "type": "function"
    },
    {
      "inputs": [
        {
          "internalType": "string",
          "name": "_result",
          "type": "string"
        },
        {
          "internalType": "bytes32",
          "name": "_policyIDhash",
          "type": "bytes32"
        }
      ],
      "name": "finalizeClaim",
      "outputs": [],
      "stateMutability": "nonpayable",
      "type": "function"
    },
    {
      "inputs": [],
      "name": "updateAllPolicies",
      "outputs": [],
      "stateMutability": "nonpayable",
      "type": "function"
    },
    {
      "inputs": [
        {
          "internalType": "bytes32",
          "name": "_policyIDhash",
          "type": "bytes32"
        }
      ],
      "name": "withdrawPayoutShare",
      "outputs": [],
      "stateMutability": "nonpayable",
      "type": "function"
    }
  ],
  "bytecode": "0x608060405234801561001057600080fd5b5033600860006101000a81548173ffffffffffffffffffffffffffffffffffffffff021916908373ffffffffffffffffffffffffffffffffffffffff160217905550615ad380620000626000396000f3fe608060405234801561001057600080fd5b50600436106101e55760003560e01c8063a86146d01161010f578063d8aa1c6c116100a2578063e8f8f16a11610071578063e8f8f16a14610e87578063ed7afd8c14610ee6578063f196dd2814610fab578063f39bfb2514611003576101e5565b8063d8aa1c6c14610d5a578063d8e2d2ba14610d88578063dbfe7cc614610db6578063e89c8fce14610e4f576101e5565b8063c28c3508116100de578063c28c350814610c7a578063c5016c6914610cae578063ce606ee014610cf2578063cf55418b14610d26576101e5565b8063a86146d014610b33578063abf410e514610b61578063bfd2d25b14610b95578063c196779f14610bf7576101e5565b80634b8fb8e4116101875780637daed1b0116101565780637daed1b01461095f5780638fd4933b14610a9d5780639fb29ce114610afb578063a7261edc14610b29576101e5565b80634b8fb8e41461061b578063524ca2bf1461077157806355e93f6d146108e357806358c6e9201461091b576101e5565b806317c907c8116101c357806317c907c8146104c657806320743edf146104f45780632ce9ac53146105225780633013ce29146105e7576101e5565b8063031cdada146101ea578063075fe2ad1461036857806309e455d814610457575b600080fd5b6102166004803603602081101561020057600080fd5b8101908080359060200190929190505050611045565b60405180806020018c73ffffffffffffffffffffffffffffffffffffffff1681526020018b81526020018a600981111561024c57fe5b815260200189815260200188815260200187600181111561026957fe5b81526020018681526020018581526020018481526020018060200183810383528e818151815260200191508051906020019080838360005b838110156102bc5780820151818401526020810190506102a1565b50505050905090810190601f1680156102e95780820380516001836020036101000a031916815260200191505b50838103825284818151815260200191508051906020019080838360005b83811015610322578082015181840152602081019050610307565b50505050905090810190601f16801561034f5780820380516001836020036101000a031916815260200191505b509d505050505050505050505050505060405180910390f35b6104416004803603608081101561037e57600080fd5b8101908080359060200190929190803515159060200190929190803590602001906401000000008111156103b157600080fd5b8201836020820111156103c357600080fd5b803590602001918460018302840111640100000000831117156103e557600080fd5b91908080601f016020809104026020016040519081016040528093929190818152602001838380828437600081840152601f19601f82011690508083019250505050505050919291929080359060200190929190505050611209565b6040518082815260200191505060405180910390f35b6104a36004803603604081101561046d57600080fd5b8101908080359060200190929190803573ffffffffffffffffffffffffffffffffffffffff169060200190929190505050611221565b604051808360ff1681526020018260ff1681526020019250505060405180910390f35b6104f2600480360360208110156104dc57600080fd5b81019080803590602001909291905050506112fd565b005b6105206004803603602081101561050a57600080fd5b81019080803590602001909291905050506114df565b005b6105e56004803603604081101561053857600080fd5b810190808035906020019064010000000081111561055557600080fd5b82018360208201111561056757600080fd5b8035906020019184600183028401116401000000008311171561058957600080fd5b91908080601f016020809104026020016040519081016040528093929190818152602001838380828437600081840152601f19601f82011690508083019250505050505050919291929080359060200190929190505050611640565b005b6105ef611774565b604051808273ffffffffffffffffffffffffffffffffffffffff16815260200191505060405180910390f35b61076f6004803603606081101561063157600080fd5b81019080803590602001909291908035906020019064010000000081111561065857600080fd5b82018360208201111561066a57600080fd5b8035906020019184602083028401116401000000008311171561068c57600080fd5b919080806020026020016040519081016040528093929190818152602001838360200280828437600081840152601f19601f820116905080830192505050505050509192919290803590602001906401000000008111156106ec57600080fd5b8201836020820111156106fe57600080fd5b8035906020019184602083028401116401000000008311171561072057600080fd5b919080806020026020016040519081016040528093929190818152602001838360200280828437600081840152601f19601f820116905080830192505050505050509192919290505050611798565b005b6108e1600480360360a081101561078757600080fd5b81019080803590602001906401000000008111156107a457600080fd5b8201836020820111156107b657600080fd5b803590602001918460018302840111640100000000831117156107d857600080fd5b91908080601f016020809104026020016040519081016040528093929190818152602001838380828437600081840152601f19601f820116905080830192505050505050509192919290803590602001909291908035151590602001909291908035906020019064010000000081111561085157600080fd5b82018360208201111561086357600080fd5b8035906020019184600183028401116401000000008311171561088557600080fd5b91908080601f016020809104026020016040519081016040528093929190818152602001838380828437600081840152601f19601f8201169050808301925050505050505091929192908035906020019092919050505061194e565b005b610919600480360360408110156108f957600080fd5b810190808035906020019092919080359060200190929190505050611a7c565b005b61095d6004803603606081101561093157600080fd5b810190808035906020019092919080351515906020019092919080359060200190929190505050611b41565b005b61098b6004803603602081101561097557600080fd5b8101908080359060200190929190505050611c7a565b60405180806020018673ffffffffffffffffffffffffffffffffffffffff16815260200185815260200180602001848152602001838103835288818151815260200191508051906020019080838360005b838110156109f75780820151818401526020810190506109dc565b50505050905090810190601f168015610a245780820380516001836020036101000a031916815260200191505b50838103825285818151815260200191508051906020019080838360005b83811015610a5d578082015181840152602081019050610a42565b50505050905090810190601f168015610a8a5780820380516001836020036101000a031916815260200191505b5097505050505050505060405180910390f35b610ac960048036036020811015610ab357600080fd5b8101908080359060200190929190505050611e77565b604051808681526020018581526020018481526020018381526020018281526020019550505050505060405180910390f35b610b2760048036036020811015610b1157600080fd5b8101908080359060200190929190505050611f1d565b005b610b3161207e565b005b610b5f60048036036020811015610b4957600080fd5b810190808035906020019092919050505061212e565b005b610b69612286565b604051808273ffffffffffffffffffffffffffffffffffffffff16815260200191505060405180910390f35b610be160048036036040811015610bab57600080fd5b81019080803573ffffffffffffffffffffffffffffffffffffffff169060200190929190803590602001909291905050506122ac565b6040518082815260200191505060405180910390f35b610c2360048036036020811015610c0d57600080fd5b81019080803590602001909291905050506122da565b6040518080602001828103825283818151815260200191508051906020019060200280838360005b83811015610c66578082015181840152602081019050610c4b565b505050509050019250505060405180910390f35b610c82612383565b604051808273ffffffffffffffffffffffffffffffffffffffff16815260200191505060405180910390f35b610cf060048036036020811015610cc457600080fd5b81019080803573ffffffffffffffffffffffffffffffffffffffff1690602001909291905050506123a9565b005b610cfa6124e1565b604051808273ffffffffffffffffffffffffffffffffffffffff16815260200191505060405180910390f35b610d2e612507565b604051808273ffffffffffffffffffffffffffffffffffffffff16815260200191505060405180910390f35b610d8660048036036020811015610d7057600080fd5b810190808035906020019092919050505061252d565b005b610db460048036036020811015610d9e57600080fd5b810190808035906020019092919050505061268f565b005b610df860048036036020811015610dcc57600080fd5b81019080803573ffffffffffffffffffffffffffffffffffffffff1690602001909291905050506127ee565b6040518080602001828103825283818151815260200191508051906020019060200280838360005b83811015610e3b578082015181840152602081019050610e20565b505050509050019250505060405180910390f35b610e8560048036036040811015610e6557600080fd5b81019080803590602001909291908035906020019092919050505061288a565b005b610e8f612bc7565b6040518080602001828103825283818151815260200191508051906020019060200280838360005b83811015610ed2578082015181840152602081019050610eb7565b505050509050019250505060405180910390f35b610fa960048036036040811015610efc57600080fd5b810190808035906020019092919080359060200190640100000000811115610f2357600080fd5b820183602082011115610f3557600080fd5b80359060200191846001830284011164010000000083111715610f5757600080fd5b91908080601f016020809104026020016040519081016040528093929190818152602001838380828437600081840152601f19601f820116905080830192505050505050509192919290505050612c1f565b005b610fed60048036036020811015610fc157600080fd5b81019080803573ffffffffffffffffffffffffffffffffffffffff169060200190929190505050612d53565b6040518082815260200191505060405180910390f35b61102f6004803603602081101561101957600080fd5b8101908080359060200190929190505050612d6b565b6040518082815260200191505060405180910390f35b6004602052806000526040600020600091509050806000018054600181600116156101000203166002900480601f0160208091040260200160405190810160405280929190818152602001828054600181600116156101000203166002900480156110f15780601f106110c6576101008083540402835291602001916110f1565b820191906000526020600020905b8154815290600101906020018083116110d457829003601f168201915b5050505050908060010160009054906101000a900473ffffffffffffffffffffffffffffffffffffffff16908060040154908060060160009054906101000a900460ff16908060070154908060080154908060090160009054906101000a900460ff169080600a01549080600b01549080600c01549080600d018054600181600116156101000203166002900480601f0160208091040260200160405190810160405280929190818152602001828054600181600116156101000203166002900480156111ff5780601f106111d4576101008083540402835291602001916111ff565b820191906000526020600020905b8154815290600101906020018083116111e257829003601f168201915b505050505090508b565b600061121785858585612d8c565b9050949350505050565b60008060006004600086815260200190815260200160002060030160008573ffffffffffffffffffffffffffffffffffffffff1673ffffffffffffffffffffffffffffffffffffffff16815260200190815260200160002060009054906101000a900460ff16905060006004600087815260200190815260200160002060050160008673ffffffffffffffffffffffffffffffffffffffff1673ffffffffffffffffffffffffffffffffffffffff16815260200190815260200160002060009054906101000a900460ff16905081819350935050509250929050565b6004600082815260200190815260200160002060010160009054906101000a900473ffffffffffffffffffffffffffffffffffffffff1673ffffffffffffffffffffffffffffffffffffffff163373ffffffffffffffffffffffffffffffffffffffff16146113b7576040517f08c379a000000000000000000000000000000000000000000000000000000000815260040180806020018281038252602d81526020018061596b602d913960400191505060405180910390fd5b600060046000838152602001908152602001600020600d018054600181600116156101000203166002900490501161143a576040517f08c379a00000000000000000000000000000000000000000000000000000000081526004018080602001828103825260278152602001806158926027913960400191505060405180910390fd5b6002600981111561144757fe5b6004600083815260200190815260200160002060060160009054906101000a900460ff16600981111561147657fe5b146114cc576040517f08c379a0000000000000000000000000000000000000000000000000000000008152600401808060200182810382526029815260200180615a156029913960400191505060405180910390fd5b60003390506114db82826130d1565b5050565b60016004600083815260200190815260200160002060030160003373ffffffffffffffffffffffffffffffffffffffff1673ffffffffffffffffffffffffffffffffffffffff16815260200190815260200160002060009054906101000a900460ff1660ff161461159b576040517f08c379a000000000000000000000000000000000000000000000000000000000815260040180806020018281038252603581526020018061582f6035913960400191505060405180910390fd5b600160098111156115a857fe5b6004600083815260200190815260200160002060060160009054906101000a900460ff1660098111156115d757fe5b1461162d576040517f08c379a00000000000000000000000000000000000000000000000000000000081526004018080602001828103825260348152602001806156426034913960400191505060405180910390fd5b600033905061163c828261328b565b5050565b600160009054906101000a900473ffffffffffffffffffffffffffffffffffffffff1673ffffffffffffffffffffffffffffffffffffffff16634e1296876040518163ffffffff1660e01b815260040160206040518083038186803b1580156116a857600080fd5b505afa1580156116bc573d6000803e3d6000fd5b505050506040513d60208110156116d257600080fd5b810190808051906020019092919050505073ffffffffffffffffffffffffffffffffffffffff163373ffffffffffffffffffffffffffffffffffffffff1614611766576040517f08c379a000000000000000000000000000000000000000000000000000000000815260040180806020018281038252603a8152602001806158b9603a913960400191505060405180910390fd5b6117708282613434565b5050565b60008054906101000a900473ffffffffffffffffffffffffffffffffffffffff1681565b6004600084815260200190815260200160002060010160009054906101000a900473ffffffffffffffffffffffffffffffffffffffff1673ffffffffffffffffffffffffffffffffffffffff163373ffffffffffffffffffffffffffffffffffffffff1614611852576040517f08c379a000000000000000000000000000000000000000000000000000000000815260040180806020018281038252602b815260200180615a3e602b913960400191505060405180910390fd5b6000600981111561185f57fe5b6004600085815260200190815260200160002060060160009054906101000a900460ff16600981111561188e57fe5b146118e4576040517f08c379a00000000000000000000000000000000000000000000000000000000081526004018080602001828103825260228152602001806156fe6022913960400191505060405180910390fd5b805182511461193e576040517f08c379a00000000000000000000000000000000000000000000000000000000081526004018080602001828103825260468152602001806159986046913960600191505060405180910390fd5b6119498383836135dd565b505050565b6000856040516020018082805190602001908083835b602083106119875780518252602082019150602081019050602083039250611964565b6001836020036101000a038019825116818451168082178552505050505050905001915050604051602081830303815290604052805190602001209050600060046000838152602001908152602001600020600c015414611a50576040517f08c379a000000000000000000000000000000000000000000000000000000000815260040180806020018281038252601a8152602001807f5468697320706f6c69637920616c72656164792065786973747300000000000081525060200191505060405180910390fd5b60003390506000611a6387878787612d8c565b9050611a728883878785613914565b5050505050505050565b600860009054906101000a900473ffffffffffffffffffffffffffffffffffffffff1673ffffffffffffffffffffffffffffffffffffffff163373ffffffffffffffffffffffffffffffffffffffff1614611b22576040517f08c379a000000000000000000000000000000000000000000000000000000000815260040180806020018281038252602e8152602001806157a4602e913960400191505060405180910390fd5b8060046000848152602001908152602001600020600801819055505050565b600860009054906101000a900473ffffffffffffffffffffffffffffffffffffffff1673ffffffffffffffffffffffffffffffffffffffff163373ffffffffffffffffffffffffffffffffffffffff1614611be7576040517f08c379a000000000000000000000000000000000000000000000000000000000815260040180806020018281038252602e8152602001806157a4602e913960400191505060405180910390fd5b60008215611c2657611c1f6018610e108402026004600087815260200190815260200160002060070154613c1890919063ffffffff16565b9050611c59565b611c566018610e108402026004600087815260200190815260200160002060070154613ca090919063ffffffff16565b90505b80600460008681526020019081526020016000206007018190555050505050565b606060008060606000600460008781526020019081526020016000206000016004600088815260200190815260200160002060010160009054906101000a900473ffffffffffffffffffffffffffffffffffffffff166004600089815260200190815260200160002060060160009054906101000a900460ff166009811115611cff57fe5b600460008a8152602001908152602001600020600d01600460008b815260200190815260200160002060080154848054600181600116156101000203166002900480601f016020809104026020016040519081016040528092919081815260200182805460018160011615610100020316600290048015611dc15780601f10611d9657610100808354040283529160200191611dc1565b820191906000526020600020905b815481529060010190602001808311611da457829003601f168201915b50505050509450818054600181600116156101000203166002900480601f016020809104026020016040519081016040528092919081815260200182805460018160011615610100020316600290048015611e5d5780601f10611e3257610100808354040283529160200191611e5d565b820191906000526020600020905b815481529060010190602001808311611e4057829003601f168201915b505050505091509450945094509450945091939590929450565b600080600080600060046000878152602001908152602001600020600701546004600088815260200190815260200160002060090160009054906101000a900460ff166001811115611ec557fe5b60046000898152602001908152602001600020600a0154600460008a8152602001908152602001600020600b0154600460008b8152602001908152602001600020600c01549450945094509450945091939590929450565b60026004600083815260200190815260200160002060030160003373ffffffffffffffffffffffffffffffffffffffff1673ffffffffffffffffffffffffffffffffffffffff16815260200190815260200160002060009054906101000a900460ff1660ff1614611fd9576040517f08c379a00000000000000000000000000000000000000000000000000000000081526004018080602001828103825260328152602001806157fd6032913960400191505060405180910390fd5b60056009811115611fe657fe5b6004600083815260200190815260200160002060060160009054906101000a900460ff16600981111561201557fe5b1461206b576040517f08c379a000000000000000000000000000000000000000000000000000000000815260040180806020018281038252602981526020018061577b6029913960400191505060405180910390fd5b600033905061207a8282613cea565b5050565b600860009054906101000a900473ffffffffffffffffffffffffffffffffffffffff1673ffffffffffffffffffffffffffffffffffffffff163373ffffffffffffffffffffffffffffffffffffffff1614612124576040517f08c379a000000000000000000000000000000000000000000000000000000000815260040180806020018281038252602e8152602001806157a4602e913960400191505060405180910390fd5b61212c613fe9565b565b6004600082815260200190815260200160002060010160009054906101000a900473ffffffffffffffffffffffffffffffffffffffff1673ffffffffffffffffffffffffffffffffffffffff163373ffffffffffffffffffffffffffffffffffffffff16146121e8576040517f08c379a000000000000000000000000000000000000000000000000000000000815260040180806020018281038252602b8152602001806157d2602b913960400191505060405180910390fd5b600360098111156121f557fe5b6004600083815260200190815260200160002060060160009054906101000a900460ff16600981111561222457fe5b1461227a576040517f08c379a00000000000000000000000000000000000000000000000000000000081526004018080602001828103825260268152602001806159146026913960400191505060405180910390fd5b61228381614793565b50565b600160009054906101000a900473ffffffffffffffffffffffffffffffffffffffff1681565b600660205281600052604060002081815481106122c557fe5b90600052602060002001600091509150505481565b6060806004600084815260200190815260200160002060020180548060200260200160405190810160405280929190818152602001828054801561237357602002820191906000526020600020905b8160009054906101000a900473ffffffffffffffffffffffffffffffffffffffff1673ffffffffffffffffffffffffffffffffffffffff1681526020019060010190808311612329575b5050505050905080915050919050565b600360009054906101000a900473ffffffffffffffffffffffffffffffffffffffff1681565b600860009054906101000a900473ffffffffffffffffffffffffffffffffffffffff1673ffffffffffffffffffffffffffffffffffffffff163373ffffffffffffffffffffffffffffffffffffffff161461244f576040517f08c379a000000000000000000000000000000000000000000000000000000000815260040180806020018281038252602e8152602001806157a4602e913960400191505060405180910390fd5b600073ffffffffffffffffffffffffffffffffffffffff168173ffffffffffffffffffffffffffffffffffffffff1614156124d5576040517f08c379a000000000000000000000000000000000000000000000000000000000815260040180806020018281038252603181526020018061593a6031913960400191505060405180910390fd5b6124de816148b0565b50565b600860009054906101000a900473ffffffffffffffffffffffffffffffffffffffff1681565b600260009054906101000a900473ffffffffffffffffffffffffffffffffffffffff1681565b612535613fe9565b60026004600083815260200190815260200160002060030160003373ffffffffffffffffffffffffffffffffffffffff1673ffffffffffffffffffffffffffffffffffffffff16815260200190815260200160002060009054906101000a900460ff1660ff16146125f1576040517f08c379a000000000000000000000000000000000000000000000000000000000815260040180806020018281038252602e815260200180615864602e913960400191505060405180910390fd5b600360098111156125fe57fe5b6004600083815260200190815260200160002060060160009054906101000a900460ff16600981111561262d57fe5b14612683576040517f08c379a00000000000000000000000000000000000000000000000000000000081526004018080602001828103825260268152602001806159146026913960400191505060405180910390fd5b61268c81614be9565b50565b6004600082815260200190815260200160002060010160009054906101000a900473ffffffffffffffffffffffffffffffffffffffff1673ffffffffffffffffffffffffffffffffffffffff163373ffffffffffffffffffffffffffffffffffffffff1614612749576040517f08c379a00000000000000000000000000000000000000000000000000000000081526004018080602001828103825260378152602001806159de6037913960400191505060405180910390fd5b6003600981111561275657fe5b6004600083815260200190815260200160002060060160009054906101000a900460ff16600981111561278557fe5b146127db576040517f08c379a00000000000000000000000000000000000000000000000000000000081526004018080602001828103825260268152602001806159146026913960400191505060405180910390fd5b60003390506127ea8282614d55565b5050565b606080600660008473ffffffffffffffffffffffffffffffffffffffff1673ffffffffffffffffffffffffffffffffffffffff16815260200190815260200160002080548060200260200160405190810160405280929190818152602001828054801561287a57602002820191906000526020600020905b815481526020019060010190808311612866575b5050505050905080915050919050565b600860009054906101000a900473ffffffffffffffffffffffffffffffffffffffff1673ffffffffffffffffffffffffffffffffffffffff163373ffffffffffffffffffffffffffffffffffffffff1614612930576040517f08c379a000000000000000000000000000000000000000000000000000000000815260040180806020018281038252602e8152602001806157a4602e913960400191505060405180910390fd5b60008114156129725760006004600084815260200190815260200160002060060160006101000a81548160ff0219169083600981111561296c57fe5b02179055505b60018114156129b45760016004600084815260200190815260200160002060060160006101000a81548160ff021916908360098111156129ae57fe5b02179055505b60028114156129f65760026004600084815260200190815260200160002060060160006101000a81548160ff021916908360098111156129f057fe5b02179055505b6003811415612a385760036004600084815260200190815260200160002060060160006101000a81548160ff02191690836009811115612a3257fe5b02179055505b6004811415612a7957600480600084815260200190815260200160002060060160006101000a81548160ff02191690836009811115612a7357fe5b02179055505b6005811415612abb5760056004600084815260200190815260200160002060060160006101000a81548160ff02191690836009811115612ab557fe5b02179055505b6006811415612afd5760066004600084815260200190815260200160002060060160006101000a81548160ff02191690836009811115612af757fe5b02179055505b6007811415612b3f5760076004600084815260200190815260200160002060060160006101000a81548160ff02191690836009811115612b3957fe5b02179055505b6008811415612b815760086004600084815260200190815260200160002060060160006101000a81548160ff02191690836009811115612b7b57fe5b02179055505b6009811415612bc35760096004600084815260200190815260200160002060060160006101000a81548160ff02191690836009811115612bbd57fe5b02179055505b5050565b60606007805480602002602001604051908101604052809291908181526020018280548015612c1557602002820191906000526020600020905b815481526020019060010190808311612c01575b5050505050905090565b600160009054906101000a900473ffffffffffffffffffffffffffffffffffffffff1673ffffffffffffffffffffffffffffffffffffffff166376482ca06040518163ffffffff1660e01b815260040160206040518083038186803b158015612c8757600080fd5b505afa158015612c9b573d6000803e3d6000fd5b505050506040513d6020811015612cb157600080fd5b810190808051906020019092919050505073ffffffffffffffffffffffffffffffffffffffff163373ffffffffffffffffffffffffffffffffffffffff1614612d45576040517f08c379a000000000000000000000000000000000000000000000000000000000815260040180806020018281038252602c8152602001806156d2602c913960400191505060405180910390fd5b612d4f82826151ae565b5050565b60056020528060005260406000206000915090505481565b60078181548110612d7857fe5b906000526020600020016000915090505481565b60006012851015612de8576040517f08c379a000000000000000000000000000000000000000000000000000000000815260040180806020018281038252602d8152602001806156a5602d913960400191505060405180910390fd5b603c851115612e42576040517f08c379a000000000000000000000000000000000000000000000000000000000815260040180806020018281038252602c81526020018061574f602c913960400191505060405180910390fd5b686c6b935b8bbd400000821015612ea4576040517f08c379a000000000000000000000000000000000000000000000000000000000815260040180806020018281038252602f815260200180615676602f913960400191505060405180910390fd5b69043c33c1937564800000821115612f07576040517f08c379a000000000000000000000000000000000000000000000000000000000815260040180806020018281038252602f815260200180615720602f913960400191505060405180910390fd5b60128510158015612f195750601e8511155b15612f2357600590505b601e85118015612f34575060288511155b15612f3e57600a90505b602885118015612f4f575060328511155b15612f5957600f90505b603285118015612f6a5750603c8511155b15612f7457601490505b8315612fa457612fa1600a612f93600f8461528990919063ffffffff16565b61530f90919063ffffffff16565b90505b60405160200180807f796561726c790000000000000000000000000000000000000000000000000000815250600601905060405160208183030381529060405280519060200120836040516020018082805190602001908083835b602083106130225780518252602082019150602081019050602083039250612fff565b6001836020036101000a0380198251168184511680821785525050505050509050019150506040516020818303038152906040528051906020012014156130a05761309d606461308f605f613081600c8661528990919063ffffffff16565b61528990919063ffffffff16565b61530f90919063ffffffff16565b90505b6130c76107d06130b9848461528990919063ffffffff16565b61530f90919063ffffffff16565b9050949350505050565b600060046000848152602001908152602001600020600c01549050600060046000858152602001908152602001600020600a01549050600260009054906101000a900473ffffffffffffffffffffffffffffffffffffffff1673ffffffffffffffffffffffffffffffffffffffff1663ebc033738484846040518463ffffffff1660e01b8152600401808473ffffffffffffffffffffffffffffffffffffffff1681526020018381526020018281526020019350505050600060405180830381600087803b1580156131a257600080fd5b505af11580156131b6573d6000803e3d6000fd5b505050504260046000868152602001908152602001600020600701819055506131ec630966018042613c1890919063ffffffff16565b600460008681526020019081526020016000206008018190555060036004600086815260200190815260200160002060060160006101000a81548160ff0219169083600981111561323957fe5b02179055507f9aac732f0d1e3ce8b148e222a6291c9fc95c430325005eb2d984351c6152de5542858460405180848152602001838152602001828152602001935050505060405180910390a150505050565b60026004600084815260200190815260200160002060030160008373ffffffffffffffffffffffffffffffffffffffff1673ffffffffffffffffffffffffffffffffffffffff16815260200190815260200160002060006101000a81548160ff021916908360ff16021790555061332260016004600085815260200190815260200160002060040154613ca090919063ffffffff16565b60046000848152602001908152602001600020600401819055507f9a72e8908006f4b91910d97c1de80758227e8952cb4ca0097f22af7014d1944d428383604051808481526020018381526020018273ffffffffffffffffffffffffffffffffffffffff168152602001935050505060405180910390a16000600460008481526020019081526020016000206004015414156134305760026004600084815260200190815260200160002060060160006101000a81548160ff021916908360098111156133eb57fe5b02179055507ff2adb7f3c95bbdf8f3f4cd59392a3bc5803bebd88aa0a0115876916f1c3a09904283604051808381526020018281526020019250505060405180910390a15b5050565b60405160200180807f6465636561736564000000000000000000000000000000000000000000000000815250600801905060405160208183030381529060405280519060200120826040516020018082805190602001908083835b602083106134b2578051825260208201915060208101905060208303925061348f565b6001836020036101000a0380198251168184511680821785525050505050509050019150506040516020818303038152906040528051906020012014156135685760056004600083815260200190815260200160002060060160006101000a81548160ff0219169083600981111561352657fe5b0217905550807f76284ae5943aafb4455946bf7d4773be8ad1227fceb673145da8f157ed93c4df426040518082815260200191505060405180910390a26135d9565b60036004600083815260200190815260200160002060060160006101000a81548160ff0219169083600981111561359b57fe5b0217905550807f9224b4a88af5217c4d356598e6d221dce8a017591c89a42dbdc378acea064bb7426040518082815260200191505060405180910390a25b5050565b6000805b83518110156137ad57600660008583815181106135fa57fe5b602002602001015173ffffffffffffffffffffffffffffffffffffffff1673ffffffffffffffffffffffffffffffffffffffff168152602001908152602001600020859080600181540180825580915050600190039060005260206000200160009091909190915055600160046000878152602001908152602001600020600301600086848151811061368957fe5b602002602001015173ffffffffffffffffffffffffffffffffffffffff1673ffffffffffffffffffffffffffffffffffffffff16815260200190815260200160002060006101000a81548160ff021916908360ff1602179055508281815181106136ef57fe5b602002602001015160046000878152602001908152602001600020600501600086848151811061371b57fe5b602002602001015173ffffffffffffffffffffffffffffffffffffffff1673ffffffffffffffffffffffffffffffffffffffff16815260200190815260200160002060006101000a81548160ff021916908360ff16021790555061379e83828151811061378457fe5b602002602001015160ff1683613c1890919063ffffffff16565b915080806001019150506135e1565b5060648114613807576040517f08c379a0000000000000000000000000000000000000000000000000000000008152600401808060200182810382526035815260200180615a696035913960400191505060405180910390fd5b826004600086815260200190815260200160002060020190805190602001906138319291906154df565b508251600460008681526020019081526020016000206004018190555060016004600086815260200190815260200160002060060160006101000a81548160ff0219169083600981111561388157fe5b02179055507fd2dd574672638ce7a8912b5123c9cec953cef9cdb886917ffaf9aabf6381179f4285856040518084815260200183815260200180602001828103825283818151815260200191508051906020019060200280838360005b838110156138f95780820151818401526020810190506138de565b5050505090500194505050505060405180910390a150505050565b6000856040516020018082805190602001908083835b6020831061394d578051825260208201915060208101905060208303925061392a565b6001836020036101000a03801982511681845116808217855250505050505090500191505060405160208183030381529060405280519060200120905080600560003373ffffffffffffffffffffffffffffffffffffffff1673ffffffffffffffffffffffffffffffffffffffff168152602001908152602001600020819055506000600460008381526020019081526020016000209050868160000190805190602001906139fd929190615569565b5060008160090160006101000a81548160ff02191690836001811115613a1f57fe5b021790555060405160200180807f796561726c790000000000000000000000000000000000000000000000000000815250600601905060405160208183030381529060405280519060200120856040516020018082805190602001908083835b60208310613aa25780518252602082019150602081019050602083039250613a7f565b6001836020036101000a038019825116818451168082178552505050505050905001915050604051602081830303815290604052805190602001201415613b0a5760018160090160006101000a81548160ff02191690836001811115613b0457fe5b02179055505b86816000019080519060200190613b22929190615569565b50858160010160006101000a81548173ffffffffffffffffffffffffffffffffffffffff021916908373ffffffffffffffffffffffffffffffffffffffff16021790555060008160060160006101000a81548160ff02191690836009811115613b8757fe5b02179055508381600a01819055508381600b01819055508281600c018190555060078290806001815401808255809150506001900390600052602060002001600090919091909150557f7be901a8ab595216341d86414838df6fb77aba5520092769584a8e281a5da5b04283604051808381526020018281526020019250505060405180910390a150505050505050565b600080828401905083811015613c96576040517f08c379a000000000000000000000000000000000000000000000000000000000815260040180806020018281038252601b8152602001807f536166654d6174683a206164646974696f6e206f766572666c6f77000000000081525060200191505060405180910390fd5b8091505092915050565b6000613ce283836040518060400160405280601e81526020017f536166654d6174683a207375627472616374696f6e206f766572666c6f770000815250615359565b905092915050565b6000613d8b6064613d7d6004600087815260200190815260200160002060050160008673ffffffffffffffffffffffffffffffffffffffff1673ffffffffffffffffffffffffffffffffffffffff16815260200190815260200160002060009054906101000a900460ff1660ff1660046000888152602001908152602001600020600a015461528990919063ffffffff16565b61530f90919063ffffffff16565b9050600260009054906101000a900473ffffffffffffffffffffffffffffffffffffffff1673ffffffffffffffffffffffffffffffffffffffff166340c6c82d83836040518363ffffffff1660e01b8152600401808373ffffffffffffffffffffffffffffffffffffffff16815260200182815260200192505050600060405180830381600087803b158015613e2057600080fd5b505af1158015613e34573d6000803e3d6000fd5b5050505060036004600085815260200190815260200160002060030160008473ffffffffffffffffffffffffffffffffffffffff1673ffffffffffffffffffffffffffffffffffffffff16815260200190815260200160002060006101000a81548160ff021916908360ff160217905550613ece8160046000868152602001908152602001600020600b0154613ca090919063ffffffff16565b60046000858152602001908152602001600020600b01819055507f8fc4fbe14d7b09d43b5e5d92de82f64ed9724fca7aeb47a92453b65dc9466b5442848484604051808581526020018481526020018373ffffffffffffffffffffffffffffffffffffffff16815260200182815260200194505050505060405180910390a1600060046000858152602001908152602001600020600b01541415613fe45760066004600085815260200190815260200160002060060160006101000a81548160ff02191690836009811115613f9f57fe5b02179055507ffe3de8a63f59ebecb7f88083dcfe0fb09936bc2d9cd76954bf4ce9299abbda384284604051808381526020018281526020019250505060405180910390a15b505050565b60005b600780549050811015614790576003600981111561400657fe5b600460006007848154811061401757fe5b9060005260206000200154815260200190815260200160002060060160009054906101000a900460ff16600981111561404c57fe5b14801561408657506000600460006007848154811061406757fe5b9060005260206000200154815260200190815260200160002060080154115b80156140be5750600460006007838154811061409e57fe5b906000526020600020015481526020019081526020016000206008015442115b1561422357600960046000600784815481106140d657fe5b9060005260206000200154815260200190815260200160002060060160006101000a81548160ff0219169083600981111561410d57fe5b0217905550600260009054906101000a900473ffffffffffffffffffffffffffffffffffffffff1673ffffffffffffffffffffffffffffffffffffffff1663d8b87853600460006007858154811061416157fe5b90600052602060002001548152602001908152602001600020600a01546040518263ffffffff1660e01b815260040180828152602001915050600060405180830381600087803b1580156141b457600080fd5b505af11580156141c8573d6000803e3d6000fd5b505050507ff1c4c47baeea2d20cfe857d3b628392efc865e5ffbcd54e44d0e1e3edb8d44d542600783815481106141fb57fe5b9060005260206000200154604051808381526020018281526020019250505060405180910390a15b6003600981111561423057fe5b600460006007848154811061424157fe5b9060005260206000200154815260200190815260200160002060060160009054906101000a900460ff16600981111561427657fe5b1480156142d357506000600181111561428b57fe5b600460006007848154811061429c57fe5b9060005260206000200154815260200190815260200160002060090160009054906101000a900460ff1660018111156142d157fe5b145b801561430c5750600060046000600784815481106142ed57fe5b9060005260206000200154815260200190815260200160002060070154115b801561436e575061436b62278d0061435d62278d00600460006007878154811061433257fe5b9060005260206000200154815260200190815260200160002060070154613c1890919063ffffffff16565b613c1890919063ffffffff16565b42115b156144d3576007600460006007848154811061438657fe5b9060005260206000200154815260200190815260200160002060060160006101000a81548160ff021916908360098111156143bd57fe5b0217905550600260009054906101000a900473ffffffffffffffffffffffffffffffffffffffff1673ffffffffffffffffffffffffffffffffffffffff1663d8b87853600460006007858154811061441157fe5b90600052602060002001548152602001908152602001600020600a01546040518263ffffffff1660e01b815260040180828152602001915050600060405180830381600087803b15801561446457600080fd5b505af1158015614478573d6000803e3d6000fd5b505050507f3023786c279b25cd272b50d40378b0644c548c737d0a38acf4e31cbd533a4dc842600783815481106144ab57fe5b9060005260206000200154604051808381526020018281526020019250505060405180910390a15b600360098111156144e057fe5b60046000600784815481106144f157fe5b9060005260206000200154815260200190815260200160002060060160009054906101000a900460ff16600981111561452657fe5b148015614582575060018081111561453a57fe5b600460006007848154811061454b57fe5b9060005260206000200154815260200190815260200160002060090160009054906101000a900460ff16600181111561458057fe5b145b80156145bb57506000600460006007848154811061459c57fe5b9060005260206000200154815260200190815260200160002060070154115b801561461e575061461b62278d0061460d6301e1338060046000600787815481106145e257fe5b9060005260206000200154815260200190815260200160002060070154613c1890919063ffffffff16565b613c1890919063ffffffff16565b42115b15614783576007600460006007848154811061463657fe5b9060005260206000200154815260200190815260200160002060060160006101000a81548160ff0219169083600981111561466d57fe5b0217905550600260009054906101000a900473ffffffffffffffffffffffffffffffffffffffff1673ffffffffffffffffffffffffffffffffffffffff1663d8b8785360046000600785815481106146c157fe5b90600052602060002001548152602001908152602001600020600a01546040518263ffffffff1660e01b815260040180828152602001915050600060405180830381600087803b15801561471457600080fd5b505af1158015614728573d6000803e3d6000fd5b505050507f3023786c279b25cd272b50d40378b0644c548c737d0a38acf4e31cbd533a4dc8426007838154811061475b57fe5b9060005260206000200154604051808381526020018281526020019250505060405180910390a15b8080600101915050613fec565b50565b60086004600083815260200190815260200160002060060160006101000a81548160ff021916908360098111156147c657fe5b0217905550600260009054906101000a900473ffffffffffffffffffffffffffffffffffffffff1673ffffffffffffffffffffffffffffffffffffffff1663d8b8785360046000848152602001908152602001600020600a01546040518263ffffffff1660e01b815260040180828152602001915050600060405180830381600087803b15801561485657600080fd5b505af115801561486a573d6000803e3d6000fd5b505050507fab00b10759c7923e3e5a4966befba888a4f428aa62ab35db8b21b160d4e80c9f4282604051808381526020018281526020019250505060405180910390a150565b80600160006101000a81548173ffffffffffffffffffffffffffffffffffffffff021916908373ffffffffffffffffffffffffffffffffffffffff160217905550600160009054906101000a900473ffffffffffffffffffffffffffffffffffffffff1673ffffffffffffffffffffffffffffffffffffffff16634dcffde06040518163ffffffff1660e01b815260040160206040518083038186803b15801561495957600080fd5b505afa15801561496d573d6000803e3d6000fd5b505050506040513d602081101561498357600080fd5b81019080805190602001909291905050506000806101000a81548173ffffffffffffffffffffffffffffffffffffffff021916908373ffffffffffffffffffffffffffffffffffffffff160217905550600160009054906101000a900473ffffffffffffffffffffffffffffffffffffffff1673ffffffffffffffffffffffffffffffffffffffff1663db2aebca6040518163ffffffff1660e01b815260040160206040518083038186803b158015614a3b57600080fd5b505afa158015614a4f573d6000803e3d6000fd5b505050506040513d6020811015614a6557600080fd5b8101908080519060200190929190505050600260006101000a81548173ffffffffffffffffffffffffffffffffffffffff021916908373ffffffffffffffffffffffffffffffffffffffff160217905550600160009054906101000a900473ffffffffffffffffffffffffffffffffffffffff1673ffffffffffffffffffffffffffffffffffffffff16634e1296876040518163ffffffff1660e01b815260040160206040518083038186803b158015614b1e57600080fd5b505afa158015614b32573d6000803e3d6000fd5b505050506040513d6020811015614b4857600080fd5b8101908080519060200190929190505050600360006101000a81548173ffffffffffffffffffffffffffffffffffffffff021916908373ffffffffffffffffffffffffffffffffffffffff1602179055507fabce6688c89344ab9c7d3a216cd2b8780277012b336fcd254769bab697cdfce281604051808273ffffffffffffffffffffffffffffffffffffffff16815260200191505060405180910390a150565b600480600083815260200190815260200160002060060160006101000a81548160ff02191690836009811115614c1b57fe5b0217905550600060046000838152602001908152602001600020600d019050600360009054906101000a900473ffffffffffffffffffffffffffffffffffffffff1673ffffffffffffffffffffffffffffffffffffffff1663da77a66d83836040518363ffffffff1660e01b81526004018083815260200180602001828103825283818154600181600116156101000203166002900481526020019150805460018160011615610100020316600290048015614d185780601f10614ced57610100808354040283529160200191614d18565b820191906000526020600020905b815481529060010190602001808311614cfb57829003601f168201915b50509350505050600060405180830381600087803b158015614d3957600080fd5b505af1158015614d4d573d6000803e3d6000fd5b505050505050565b600060046000848152602001908152602001600020600c0154905060006001811115614d7d57fe5b6004600085815260200190815260200160002060090160009054906101000a900460ff166001811115614dac57fe5b1415614f8c57614dde62278d006004600086815260200190815260200160002060070154613c1890919063ffffffff16565b421015614e53576040517f08c379a00000000000000000000000000000000000000000000000000000000081526004018080602001828103825260168152602001807f5072656d69756d206973206e6f7420647565207965740000000000000000000081525060200191505060405180910390fd5b600260009054906101000a900473ffffffffffffffffffffffffffffffffffffffff1673ffffffffffffffffffffffffffffffffffffffff16634c61cf4983836040518363ffffffff1660e01b8152600401808373ffffffffffffffffffffffffffffffffffffffff16815260200182815260200192505050600060405180830381600087803b158015614ee657600080fd5b505af1158015614efa573d6000803e3d6000fd5b50505050614f2a62278d006004600086815260200190815260200160002060070154613c1890919063ffffffff16565b60046000858152602001908152602001600020600701819055507f7c3908895c5e61702c3548b052ab5471a70c7379c816b499b7f6dba389cd15d442848360405180848152602001838152602001828152602001935050505060405180910390a15b600180811115614f9857fe5b6004600085815260200190815260200160002060090160009054906101000a900460ff166001811115614fc757fe5b14156151a957614ffa6301e133806004600086815260200190815260200160002060070154613c1890919063ffffffff16565b42101561506f576040517f08c379a00000000000000000000000000000000000000000000000000000000081526004018080602001828103825260168152602001807f5072656d69756d206973206e6f7420647565207965740000000000000000000081525060200191505060405180910390fd5b600260009054906101000a900473ffffffffffffffffffffffffffffffffffffffff1673ffffffffffffffffffffffffffffffffffffffff16634c61cf4983836040518363ffffffff1660e01b8152600401808373ffffffffffffffffffffffffffffffffffffffff16815260200182815260200192505050600060405180830381600087803b15801561510257600080fd5b505af1158015615116573d6000803e3d6000fd5b505050506151476301e133806004600086815260200190815260200160002060070154613c1890919063ffffffff16565b60046000858152602001908152602001600020600701819055507f7c3908895c5e61702c3548b052ab5471a70c7379c816b499b7f6dba389cd15d442848360405180848152602001838152602001828152602001935050505060405180910390a15b505050565b8060046000848152602001908152602001600020600d0190805190602001906151d8929190615569565b507fe85da71fdad149dfeabb08a5b70453b06cf4863387b28a334a086ad182f4a7f44283836040518084815260200183815260200180602001828103825283818151815260200191508051906020019080838360005b8381101561524957808201518184015260208101905061522e565b50505050905090810190601f1680156152765780820380516001836020036101000a031916815260200191505b5094505050505060405180910390a15050565b60008083141561529c5760009050615309565b60008284029050828482816152ad57fe5b0414615304576040517f08c379a00000000000000000000000000000000000000000000000000000000081526004018080602001828103825260218152602001806158f36021913960400191505060405180910390fd5b809150505b92915050565b600061535183836040518060400160405280601a81526020017f536166654d6174683a206469766973696f6e206279207a65726f000000000000815250615419565b905092915050565b6000838311158290615406576040517f08c379a00000000000000000000000000000000000000000000000000000000081526004018080602001828103825283818151815260200191508051906020019080838360005b838110156153cb5780820151818401526020810190506153b0565b50505050905090810190601f1680156153f85780820380516001836020036101000a031916815260200191505b509250505060405180910390fd5b5060008385039050809150509392505050565b600080831182906154c5576040517f08c379a00000000000000000000000000000000000000000000000000000000081526004018080602001828103825283818151815260200191508051906020019080838360005b8381101561548a57808201518184015260208101905061546f565b50505050905090810190601f1680156154b75780820380516001836020036101000a031916815260200191505b509250505060405180910390fd5b5060008385816154d157fe5b049050809150509392505050565b828054828255906000526020600020908101928215615558579160200282015b828111156155575782518260006101000a81548173ffffffffffffffffffffffffffffffffffffffff021916908373ffffffffffffffffffffffffffffffffffffffff160217905550916020019190600101906154ff565b5b50905061556591906155e9565b5090565b828054600181600116156101000203166002900490600052602060002090601f016020900481019282601f106155aa57805160ff19168380011785556155d8565b828001600101855582156155d8579182015b828111156155d75782518255916020019190600101906155bc565b5b5090506155e59190615624565b5090565b5b8082111561562057600081816101000a81549073ffffffffffffffffffffffffffffffffffffffff0219169055506001016155ea565b5090565b5b8082111561563d576000816000905550600101615625565b509056fe436f6e6669726d6174696f6e2063616e206f6e6c7920626520646f6e652061742074686520416c6c6f636174656420737461676551756f746174696f6e2063616e6e6f74206265206d61646520666f72207061796f75747320756e646572203230303051756f746174696f6e2063616e6e6f74206265206d61646520666f7220706572736f6e7320756e6465722031384f6e6c7920746865204b59432070726f76696465722063616e2063616c6c20746869732066756e6374696f6e506f6c696379206d757374206265206174207468652051756f74656420737461676551756f746174696f6e2063616e6e6f74206265206d61646520666f72207061796f757473206f76657220323030303051756f746174696f6e2063616e6e6f74206265206d61646520666f7220706572736f6e73206f76657220363054686520636c61696d206d75737420626520636f6e6669726d656420627920746865204f7261636c654f6e6c792074686520636f6e7472616374206f776e65722063616e2063616c6c20746869732066756e6374696f6e4f6e6c792074686520706f6c696379686f6c6465722063616e2063616e63656c2074686520706f6c6963794f6e6c79206120636f6e6669726d65642062656e65666963696172792063616e2077697468647261772061207061796f75744f6e6c79207468652062656e65666963696172792063616e20636f6e6669726d2068697320616c6c6f6361746564207374617475734f6e6c79206120636f6e6669726d65642062656e65666963696172792063616e207374617274206120636c61696d54686520706f6c696379206f776e65722773204b5943206d7573742062652076657269666965644f6e6c792074686520636c61696d73206d616e6167656d656e7420636f6e74726163742063616e2063616c6c20746869732066756e6374696f6e536166654d6174683a206d756c7469706c69636174696f6e206f766572666c6f7754686520706f6c696379206d7573742062652061742074686520416374697665207374616765436f6e74726163742052656769737472792061646472657373206d75737420626520612076616c696420616464726573734f6e6c792074686520706f6c696379686f6c6465722063616e2061637469766174652074686520706f6c69637962656e6566696369617269657320616e642062656e65666963696172696573536861726520617272617973206d757374206265206f66207468652073616d65206c656e6774684f6e6c792074686520706f6c696379686f6c6465722063616e2070617920746865207072656d69756d206f662074686520706f6c69637954686520706f6c696379206d7573742062652061742074686520436f6e6669726d65642073746167654f6e6c792074686520706f6c696379686f6c6465722063616e207365742062656e6566696369617269657342656e656669636961726965732720736861726573206f66207061796f757420646f206e6f742061646420757020746f2031303025a264697066735822122072e68c8a8a27d456c0d18313d0d98c389d219f31be86c9414cf31a929f52cd9564736f6c634300060c0033",
  "immutableReferences": {},
  "source": "pragma solidity >=0.4.21 <0.7.0;\r\n\r\nimport \"@openzeppelin/contracts/token/ERC20/IERC20.sol\";\r\nimport \"@openzeppelin/contracts/math/SafeMath.sol\";\r\nimport \"./ContractRegistry.sol\";\r\nimport \"./LiquidityManagement.sol\";\r\nimport \"./ClaimsManagement.sol\";\r\n\r\ncontract PolicyManagement {\r\n    using SafeMath for uint256;\r\n\r\n    // interfaces & contract instantiations\r\n\r\n    IERC20 public paymentToken;\r\n    ContractRegistry public contractRegistry;\r\n    LiquidityManagement public liquidityManagement;\r\n    ClaimsManagement public claimsManagement;\r\n\r\n    // events\r\n\r\n    event ContractRegistryInitiated(address _contractRegistryAddress);\r\n    event QuoteConfirmed(uint256 date, bytes32 _policyIDhash);\r\n    event KYCconfirmed(\r\n        uint256 date,\r\n        bytes32 _policyIDhash,\r\n        string _KYCidentifier\r\n    );\r\n    event BeneficiariesAllocated(\r\n        uint256 date,\r\n        bytes32 _policyIDhash,\r\n        address[] _beneficiaries\r\n    );\r\n    event BeneficiaryConfirmed(\r\n        uint256 date,\r\n        bytes32 _policyIDhash,\r\n        address _beneficiary\r\n    );\r\n    event PolicyFullyConfirmed(uint256 date, bytes32 _policyIDhash);\r\n    event PolicyActivated(\r\n        uint256 date,\r\n        bytes32 _policyIDhash,\r\n        uint256 _premiumAmount\r\n    );\r\n    event PremiumPaid(\r\n        uint256 date,\r\n        bytes32 _policyIDhash,\r\n        uint256 _premiumAmount\r\n    );\r\n    event PolicyCancelled(uint256 date, bytes32 _policyIDhash);\r\n    event PolicyExpired(uint256 date, bytes32 _policyIDhash);\r\n    event PolicyDelinquent(uint256 date, bytes32 _policyIDhash);\r\n    event ClaimConfirmed(uint256 date, bytes32 indexed _policyIDhash);\r\n    event ClaimRejected(uint256 date, bytes32 indexed _policyIDhash);\r\n    event BeneficiaryPayoutWithdrawn(\r\n        uint256 date,\r\n        bytes32 _policyIDhash,\r\n        address _beneficiary,\r\n        uint256 _beneficiaryPayout\r\n    );\r\n    event PolicyFullyPaidOut(uint256 date, bytes32 _policyIDhash);\r\n\r\n    // enums and structs\r\n    enum PolicyStatus {\r\n        Quoted,\r\n        Allocated,\r\n        Confirmed,\r\n        Active,\r\n        ClaimStarted,\r\n        ClaimConfirmedByOracle,\r\n        PaidOut,\r\n        Delinquent,\r\n        Cancelled,\r\n        Expired\r\n    }\r\n\r\n    enum PaymentOptions {Monthly, Yearly}\r\n\r\n    struct Policy {\r\n        string policyID;\r\n        address policyholder;\r\n        address[] beneficiariesArray;\r\n        mapping(address => uint8) beneficiaries; // beneficiary address is linked to a number representing its status (declared / confirmed)\r\n        uint256 numberOfUnconfirmedBeneficiaries;\r\n        mapping(address => uint8) beneficiariesShare;\r\n        PolicyStatus currentPolicyStatus;\r\n        uint256 lastPaymentDate;\r\n        uint256 expiryDate;\r\n        PaymentOptions selectedPaymentOption;\r\n        uint256 payout;\r\n        uint256 remainingPayout;\r\n        uint256 premiumAmount;\r\n        string KYCidentifier;\r\n    }\r\n\r\n    // contract variables in storage\r\n\r\n    mapping(bytes32 => Policy) public policyRegister;\r\n    mapping(address => bytes32) public ownerRegister;\r\n    mapping(address => bytes32[]) public beneficiaryRegister;\r\n    bytes32[] public policiesArray;\r\n    address public contractOwner;\r\n\r\n    // modifiers\r\n\r\n    modifier onlyOwner() {\r\n        require(\r\n            msg.sender == contractOwner,\r\n            \"Only the contract owner can call this function\"\r\n        );\r\n        _;\r\n    }\r\n    modifier onlyKYCprovider() {\r\n        require(\r\n            msg.sender == contractRegistry.KYCproviderAddress(),\r\n            \"Only the KYC provider can call this function\"\r\n        );\r\n        _;\r\n    }\r\n\r\n    // constructor function\r\n\r\n    constructor() public {\r\n        contractOwner = msg.sender;\r\n    }\r\n\r\n    // test functions\r\n\r\n    function changePolicyStatus(bytes32 _policyIDhash, uint256 _policyStatus)\r\n        public\r\n        onlyOwner\r\n    {\r\n        if (_policyStatus == 0) {\r\n            policyRegister[_policyIDhash].currentPolicyStatus = PolicyStatus\r\n                .Quoted;\r\n        }\r\n        if (_policyStatus == 1) {\r\n            policyRegister[_policyIDhash].currentPolicyStatus = PolicyStatus\r\n                .Allocated;\r\n        }\r\n        if (_policyStatus == 2) {\r\n            policyRegister[_policyIDhash].currentPolicyStatus = PolicyStatus\r\n                .Confirmed;\r\n        }\r\n        if (_policyStatus == 3) {\r\n            policyRegister[_policyIDhash].currentPolicyStatus = PolicyStatus\r\n                .Active;\r\n        }\r\n        if (_policyStatus == 4) {\r\n            policyRegister[_policyIDhash].currentPolicyStatus = PolicyStatus\r\n                .ClaimStarted;\r\n        }\r\n        if (_policyStatus == 5) {\r\n            policyRegister[_policyIDhash].currentPolicyStatus = PolicyStatus\r\n                .ClaimConfirmedByOracle;\r\n        }\r\n        if (_policyStatus == 6) {\r\n            policyRegister[_policyIDhash].currentPolicyStatus = PolicyStatus\r\n                .PaidOut;\r\n        }\r\n        if (_policyStatus == 7) {\r\n            policyRegister[_policyIDhash].currentPolicyStatus = PolicyStatus\r\n                .Delinquent;\r\n        }\r\n        if (_policyStatus == 8) {\r\n            policyRegister[_policyIDhash].currentPolicyStatus = PolicyStatus\r\n                .Cancelled;\r\n        }\r\n        if (_policyStatus == 9) {\r\n            policyRegister[_policyIDhash].currentPolicyStatus = PolicyStatus\r\n                .Expired;\r\n        }\r\n    }\r\n\r\n    function modifyLastPaymentDate(\r\n        bytes32 _policyIDhash,\r\n        bool isAdding,\r\n        uint256 _days\r\n    ) public onlyOwner {\r\n        uint256 paymentDateTochange;\r\n\r\n        if (isAdding) {\r\n            paymentDateTochange = policyRegister[_policyIDhash]\r\n                .lastPaymentDate\r\n                .add(_days * 3600 * 24);\r\n        } else {\r\n            paymentDateTochange = policyRegister[_policyIDhash]\r\n                .lastPaymentDate\r\n                .sub(_days * 3600 * 24);\r\n        }\r\n\r\n        policyRegister[_policyIDhash].lastPaymentDate = paymentDateTochange;\r\n    }\r\n\r\n    function modifyExpiryDate(bytes32 _policyIDhash, uint256 _newExpiryDate)\r\n        public\r\n        onlyOwner\r\n    {\r\n        policyRegister[_policyIDhash].expiryDate = _newExpiryDate;\r\n    }\r\n\r\n    // public functions\r\n\r\n    function setContractRegistryAndAddresses(address _contractRegistry)\r\n        public\r\n        onlyOwner\r\n    {\r\n        require(\r\n            _contractRegistry != address(0),\r\n            \"Contract Registry address must be a valid address\"\r\n        );\r\n        _setContractRegistryAndAddresses(_contractRegistry);\r\n    }\r\n\r\n    function getPolicyParameters(bytes32 _policyIDhash)\r\n        public\r\n        view\r\n        returns (\r\n            string memory policyID,\r\n            address policyholder,\r\n            uint256 currentPolicyStatus,\r\n            string memory KYCidentifier,\r\n            uint256 expiryDate\r\n        )\r\n    {\r\n        return (\r\n            policyRegister[_policyIDhash].policyID,\r\n            policyRegister[_policyIDhash].policyholder,\r\n            uint256(policyRegister[_policyIDhash].currentPolicyStatus),\r\n            policyRegister[_policyIDhash].KYCidentifier,\r\n            policyRegister[_policyIDhash].expiryDate\r\n        );\r\n    }\r\n\r\n    function getPolicyFinancials(bytes32 _policyIDhash)\r\n        public\r\n        view\r\n        returns (\r\n            uint256 lastPaymentDate,\r\n            uint256 selectedPaymentOption,\r\n            uint256 payout,\r\n            uint256 remainingPayout,\r\n            uint256 premiumAmount\r\n        )\r\n    {\r\n        return (\r\n            policyRegister[_policyIDhash].lastPaymentDate,\r\n            uint256(policyRegister[_policyIDhash].selectedPaymentOption),\r\n            policyRegister[_policyIDhash].payout,\r\n            policyRegister[_policyIDhash].remainingPayout,\r\n            policyRegister[_policyIDhash].premiumAmount\r\n        );\r\n    }\r\n\r\n    function getPolicyBeneficiariesArray(bytes32 _policyIDhash)\r\n        public\r\n        view\r\n        returns (address[] memory beneficiariesArray)\r\n    {\r\n        address[] memory beneficiariesArray =\r\n            policyRegister[_policyIDhash].beneficiariesArray;\r\n\r\n        return beneficiariesArray;\r\n    }\r\n\r\n    function getBeneficiaryInfo(bytes32 _policyIDhash, address _beneficiary)\r\n        public\r\n        view\r\n        returns (uint8 beneficiaryStatus, uint8 beneficiaryShare)\r\n    {\r\n        uint8 beneficiaryStatus =\r\n            policyRegister[_policyIDhash].beneficiaries[_beneficiary];\r\n        uint8 beneficiaryShare =\r\n            policyRegister[_policyIDhash].beneficiariesShare[_beneficiary];\r\n\r\n        return (beneficiaryStatus, beneficiaryShare);\r\n    }\r\n\r\n    function getBeneficiaryPoliciesArray(address _beneficiary)\r\n        public\r\n        view\r\n        returns (bytes32[] memory beneficiaryPoliciesArray)\r\n    {\r\n        bytes32[] memory beneficiaryPoliciesArray =\r\n            beneficiaryRegister[_beneficiary];\r\n\r\n        return beneficiaryPoliciesArray;\r\n    }\r\n\r\n    function getPoliciesArray() public view returns (bytes32[] memory) {\r\n        return policiesArray;\r\n    }\r\n\r\n    function quote(\r\n        uint256 _age,\r\n        bool _isSmoker,\r\n        string memory _paymentOption,\r\n        uint256 _payout\r\n    ) public pure returns (uint256 premiumAmount) {\r\n        return _quote(_age, _isSmoker, _paymentOption, _payout);\r\n    }\r\n\r\n    function confirmQuote(\r\n        string memory _policyID,\r\n        uint256 _age,\r\n        bool _isSmoker,\r\n        string memory _paymentOption,\r\n        uint256 _payout\r\n    ) public {\r\n        bytes32 policyIDhash;\r\n        policyIDhash = keccak256(abi.encodePacked(_policyID));\r\n        require(\r\n            policyRegister[policyIDhash].premiumAmount == 0,\r\n            \"This policy already exists\"\r\n        );\r\n\r\n        address policyholder = msg.sender;\r\n\r\n        uint256 premiumAmount =\r\n            _quote(_age, _isSmoker, _paymentOption, _payout);\r\n\r\n        _confirmQuote(\r\n            _policyID,\r\n            policyholder,\r\n            _paymentOption,\r\n            _payout,\r\n            premiumAmount\r\n        );\r\n    }\r\n\r\n    function setBeneficiaries(\r\n        bytes32 _policyIDhash,\r\n        address[] memory _beneficiaries,\r\n        uint8[] memory _beneficiariesShare\r\n    ) public {\r\n        require(\r\n            msg.sender == policyRegister[_policyIDhash].policyholder,\r\n            \"Only the policyholder can set beneficiaries\"\r\n        );\r\n        require(\r\n            policyRegister[_policyIDhash].currentPolicyStatus ==\r\n                PolicyStatus.Quoted,\r\n            \"Policy must be at the Quoted stage\"\r\n        );\r\n        require(\r\n            _beneficiaries.length == _beneficiariesShare.length,\r\n            \"beneficiaries and beneficiariesShare arrays must be of the same length\"\r\n        );\r\n        _setBeneficiaries(_policyIDhash, _beneficiaries, _beneficiariesShare);\r\n    }\r\n\r\n    function confirmKYC(bytes32 _policyIDhash, string memory _KYCidentifier)\r\n        public\r\n        onlyKYCprovider\r\n    {\r\n        _confirmKYC(_policyIDhash, _KYCidentifier);\r\n    }\r\n\r\n    function confirmBeneficiary(bytes32 _policyIDhash) public {\r\n        require(\r\n            policyRegister[_policyIDhash].beneficiaries[msg.sender] == 1,\r\n            \"Only the beneficiary can confirm his allocated status\"\r\n        );\r\n        require(\r\n            policyRegister[_policyIDhash].currentPolicyStatus ==\r\n                PolicyStatus.Allocated,\r\n            \"Confirmation can only be done at the Allocated stage\"\r\n        );\r\n\r\n        address _beneficiary = msg.sender;\r\n\r\n        _confirmBeneficiary(_policyIDhash, _beneficiary);\r\n    }\r\n\r\n    function firstPaymentAndActivation(bytes32 _policyIDhash) public {\r\n        require(\r\n            msg.sender == policyRegister[_policyIDhash].policyholder,\r\n            \"Only the policyholder can activate the policy\"\r\n        );\r\n        require(\r\n            bytes(policyRegister[_policyIDhash].KYCidentifier).length > 0,\r\n            \"The policy owner's KYC must be verified\"\r\n        );\r\n        require(\r\n            policyRegister[_policyIDhash].currentPolicyStatus ==\r\n                PolicyStatus.Confirmed,\r\n            \"The policy must be at the Confirmed stage\"\r\n        );\r\n\r\n        address policyholder = msg.sender;\r\n\r\n        _firstPaymentAndActivation(_policyIDhash, policyholder);\r\n    }\r\n\r\n    function payPremium(bytes32 _policyIDhash) public {\r\n        require(\r\n            msg.sender == policyRegister[_policyIDhash].policyholder,\r\n            \"Only the policyholder can pay the premium of the policy\"\r\n        );\r\n        require(\r\n            policyRegister[_policyIDhash].currentPolicyStatus ==\r\n                PolicyStatus.Active,\r\n            \"The policy must be at the Active stage\"\r\n        );\r\n\r\n        address policyholder = msg.sender;\r\n\r\n        _payPremium(_policyIDhash, policyholder);\r\n    }\r\n\r\n    function cancelPolicy(bytes32 _policyIDhash) public {\r\n        require(\r\n            msg.sender == policyRegister[_policyIDhash].policyholder,\r\n            \"Only the policyholder can cancel the policy\"\r\n        );\r\n        require(\r\n            policyRegister[_policyIDhash].currentPolicyStatus ==\r\n                PolicyStatus.Active,\r\n            \"The policy must be at the Active stage\"\r\n        );\r\n        _cancelPolicy(_policyIDhash);\r\n    }\r\n\r\n    function startClaim(bytes32 _policyIDhash) public {\r\n        _updateAllPolicies();\r\n        require(\r\n            policyRegister[_policyIDhash].beneficiaries[msg.sender] == 2,\r\n            \"Only a confirmed beneficiary can start a claim\"\r\n        );\r\n\r\n        require(\r\n            policyRegister[_policyIDhash].currentPolicyStatus ==\r\n                PolicyStatus.Active,\r\n            \"The policy must be at the Active stage\"\r\n        );\r\n\r\n        _startClaim(_policyIDhash);\r\n    }\r\n\r\n    function finalizeClaim(string memory _result, bytes32 _policyIDhash)\r\n        public\r\n    {\r\n        require(\r\n            msg.sender == contractRegistry.claimsManagementContract(),\r\n            \"Only the claims management contract can call this function\"\r\n        );\r\n\r\n        _finalizeClaim(_result, _policyIDhash);\r\n    }\r\n\r\n    function updateAllPolicies() public onlyOwner {\r\n        _updateAllPolicies();\r\n    }\r\n\r\n    function withdrawPayoutShare(bytes32 _policyIDhash) public {\r\n        require(\r\n            policyRegister[_policyIDhash].beneficiaries[msg.sender] == 2,\r\n            \"Only a confirmed beneficiary can withdraw a payout\"\r\n        );\r\n        require(\r\n            policyRegister[_policyIDhash].currentPolicyStatus ==\r\n                PolicyStatus.ClaimConfirmedByOracle,\r\n            \"The claim must be confirmed by the Oracle\"\r\n        );\r\n        address beneficiary = msg.sender;\r\n        _withdrawPayoutShare(_policyIDhash, beneficiary);\r\n    }\r\n\r\n    // private functions\r\n\r\n    function _setContractRegistryAndAddresses(address _contractRegistry)\r\n        private\r\n    {\r\n        contractRegistry = ContractRegistry(_contractRegistry);\r\n        paymentToken = IERC20(contractRegistry.paymentTokenContract());\r\n        liquidityManagement = LiquidityManagement(\r\n            contractRegistry.liquidityManagementContract()\r\n        );\r\n        claimsManagement = ClaimsManagement(\r\n            contractRegistry.claimsManagementContract()\r\n        );\r\n        emit ContractRegistryInitiated(_contractRegistry);\r\n    }\r\n\r\n    function _quote(\r\n        uint256 _age,\r\n        bool _isSmoker,\r\n        string memory _paymentOption,\r\n        uint256 _payout\r\n    ) private pure returns (uint256 _premiumAmount) {\r\n        require(_age >= 18, \"Quotation cannot be made for persons under 18\");\r\n        require(_age <= 60, \"Quotation cannot be made for persons over 60\");\r\n        require(\r\n            _payout >= 2000 * 10**18,\r\n            \"Quotation cannot be made for payouts under 2000\"\r\n        );\r\n        require(\r\n            _payout <= 20000 * 10**18,\r\n            \"Quotation cannot be made for payouts over 20000\"\r\n        );\r\n\r\n        if (_age >= 18 && _age <= 30) {\r\n            _premiumAmount = 5;\r\n        }\r\n\r\n        if (_age > 30 && _age <= 40) {\r\n            _premiumAmount = 10;\r\n        }\r\n\r\n        if (_age > 40 && _age <= 50) {\r\n            _premiumAmount = 15;\r\n        }\r\n\r\n        if (_age > 50 && _age <= 60) {\r\n            _premiumAmount = 20;\r\n        }\r\n\r\n        if (_isSmoker) {\r\n            _premiumAmount = _premiumAmount.mul(15).div(10); // 50% additional charge on smokers\r\n        }\r\n\r\n        if (\r\n            keccak256(abi.encodePacked(_paymentOption)) ==\r\n            keccak256(abi.encodePacked(\"yearly\"))\r\n        ) {\r\n            _premiumAmount = _premiumAmount.mul(12).mul(95).div(100); // 5% discount for choosing yearly payments\r\n        }\r\n\r\n        _premiumAmount = _premiumAmount.mul(_payout).div(2000);\r\n    }\r\n\r\n    function _confirmQuote(\r\n        string memory _policyID,\r\n        address _policyholder,\r\n        string memory _paymentOption,\r\n        uint256 _payout,\r\n        uint256 _premiumAmount\r\n    ) private {\r\n        bytes32 policyIDhash;\r\n\r\n        policyIDhash = keccak256(abi.encodePacked(_policyID));\r\n\r\n        ownerRegister[msg.sender] = policyIDhash;\r\n\r\n        Policy storage policy = policyRegister[policyIDhash];\r\n        policy.policyID = _policyID;\r\n        policy.selectedPaymentOption = PaymentOptions.Monthly;\r\n\r\n        if (\r\n            keccak256(abi.encodePacked(_paymentOption)) ==\r\n            keccak256(abi.encodePacked(\"yearly\"))\r\n        ) {\r\n            policy.selectedPaymentOption = PaymentOptions.Yearly;\r\n        }\r\n\r\n        policy.policyID = _policyID;\r\n        policy.policyholder = _policyholder;\r\n        // beneficiaries are added at next step Quoted --> Allocated\r\n        policy.currentPolicyStatus = PolicyStatus.Quoted;\r\n        // Monthly as default payment option, see above for other options\r\n        policy.payout = _payout;\r\n        policy.remainingPayout = _payout;\r\n        policy.premiumAmount = _premiumAmount;\r\n        // KYCidentifier is added at ulterior step\r\n\r\n        policiesArray.push(policyIDhash);\r\n        emit QuoteConfirmed(now, policyIDhash);\r\n    }\r\n\r\n    function _setBeneficiaries(\r\n        bytes32 _policyIDhash,\r\n        address[] memory _beneficiaries,\r\n        uint8[] memory _beneficiariesShare\r\n    ) private {\r\n        uint256 check = 0;\r\n\r\n        for (uint256 i = 0; i < _beneficiaries.length; i++) {\r\n            beneficiaryRegister[_beneficiaries[i]].push(_policyIDhash);\r\n\r\n            policyRegister[_policyIDhash].beneficiaries[_beneficiaries[i]] = 1; // 1 stands for \"declared\"\r\n            policyRegister[_policyIDhash].beneficiariesShare[\r\n                _beneficiaries[i]\r\n            ] = _beneficiariesShare[i];\r\n            check = check.add(_beneficiariesShare[i]);\r\n        }\r\n\r\n        require(\r\n            check == 100,\r\n            \"Beneficiaries' shares of payout do not add up to 100%\"\r\n        );\r\n\r\n        policyRegister[_policyIDhash].beneficiariesArray = _beneficiaries;\r\n        policyRegister[_policyIDhash]\r\n            .numberOfUnconfirmedBeneficiaries = _beneficiaries.length;\r\n        policyRegister[_policyIDhash].currentPolicyStatus = PolicyStatus\r\n            .Allocated;\r\n\r\n        emit BeneficiariesAllocated(now, _policyIDhash, _beneficiaries);\r\n    }\r\n\r\n    function _confirmKYC(bytes32 _policyIDhash, string memory _KYCidentifier)\r\n        private\r\n    {\r\n        policyRegister[_policyIDhash].KYCidentifier = _KYCidentifier;\r\n        emit KYCconfirmed(now, _policyIDhash, _KYCidentifier);\r\n    }\r\n\r\n    function _confirmBeneficiary(bytes32 _policyIDhash, address _beneficiary)\r\n        private\r\n    {\r\n        policyRegister[_policyIDhash].beneficiaries[_beneficiary] = 2; // 2 stands for \"confirmed\"\r\n        policyRegister[_policyIDhash]\r\n            .numberOfUnconfirmedBeneficiaries = policyRegister[_policyIDhash]\r\n            .numberOfUnconfirmedBeneficiaries\r\n            .sub(1);\r\n\r\n        emit BeneficiaryConfirmed(now, _policyIDhash, _beneficiary);\r\n\r\n        if (\r\n            policyRegister[_policyIDhash].numberOfUnconfirmedBeneficiaries == 0\r\n        ) {\r\n            policyRegister[_policyIDhash].currentPolicyStatus = PolicyStatus\r\n                .Confirmed;\r\n            emit PolicyFullyConfirmed(now, _policyIDhash);\r\n        }\r\n    }\r\n\r\n    function _firstPaymentAndActivation(\r\n        bytes32 _policyIDhash,\r\n        address _policyholder\r\n    ) private {\r\n        uint256 premiumAmount = policyRegister[_policyIDhash].premiumAmount;\r\n        uint256 payout = policyRegister[_policyIDhash].payout;\r\n\r\n        // approval from user towards Liquidity Management contract is necessary first\r\n        liquidityManagement.addNewPolicy(_policyholder, premiumAmount, payout);\r\n\r\n        policyRegister[_policyIDhash].lastPaymentDate = now;\r\n        policyRegister[_policyIDhash].expiryDate = now.add(1825 days); // default policy is valid for five years\r\n        policyRegister[_policyIDhash].currentPolicyStatus = PolicyStatus.Active;\r\n        emit PolicyActivated(now, _policyIDhash, premiumAmount);\r\n    }\r\n\r\n    function _payPremium(bytes32 _policyIDhash, address _policyholder) private {\r\n        uint256 premiumAmount = policyRegister[_policyIDhash].premiumAmount;\r\n\r\n        if (\r\n            policyRegister[_policyIDhash].selectedPaymentOption ==\r\n            PaymentOptions.Monthly\r\n        ) {\r\n            require(\r\n                now >=\r\n                    policyRegister[_policyIDhash].lastPaymentDate.add(30 days),\r\n                \"Premium is not due yet\"\r\n            );\r\n\r\n            // approval from user towards Liquidity Management contract is necessary first\r\n            liquidityManagement.addLiquidityViaPremium(\r\n                _policyholder,\r\n                premiumAmount\r\n            );\r\n            policyRegister[_policyIDhash].lastPaymentDate = policyRegister[\r\n                _policyIDhash\r\n            ]\r\n                .lastPaymentDate\r\n                .add(30 days);\r\n            emit PremiumPaid(now, _policyIDhash, premiumAmount);\r\n        }\r\n\r\n        if (\r\n            policyRegister[_policyIDhash].selectedPaymentOption ==\r\n            PaymentOptions.Yearly\r\n        ) {\r\n            require(\r\n                now >=\r\n                    policyRegister[_policyIDhash].lastPaymentDate.add(365 days),\r\n                \"Premium is not due yet\"\r\n            );\r\n\r\n            // approval from user towards Liquidity Management contract is necessary first\r\n            liquidityManagement.addLiquidityViaPremium(\r\n                _policyholder,\r\n                premiumAmount\r\n            );\r\n            policyRegister[_policyIDhash].lastPaymentDate = policyRegister[\r\n                _policyIDhash\r\n            ]\r\n                .lastPaymentDate\r\n                .add(365 days);\r\n            emit PremiumPaid(now, _policyIDhash, premiumAmount);\r\n        }\r\n    }\r\n\r\n    function _cancelPolicy(bytes32 _policyIDhash) private {\r\n        policyRegister[_policyIDhash].currentPolicyStatus = PolicyStatus\r\n            .Cancelled;\r\n        liquidityManagement.removeLiability(\r\n            policyRegister[_policyIDhash].payout\r\n        );\r\n        emit PolicyCancelled(now, _policyIDhash);\r\n    }\r\n\r\n    function _startClaim(bytes32 _policyIDhash) private {\r\n        policyRegister[_policyIDhash].currentPolicyStatus = PolicyStatus\r\n            .ClaimStarted;\r\n\r\n        string storage _KYCidentifier =\r\n            policyRegister[_policyIDhash].KYCidentifier;\r\n\r\n        claimsManagement.getOracleConfirmation(_policyIDhash, _KYCidentifier);\r\n    }\r\n\r\n    function _finalizeClaim(string memory _result, bytes32 _policyIDhash)\r\n        private\r\n    {\r\n        if (\r\n            keccak256(abi.encodePacked(_result)) ==\r\n            keccak256(abi.encodePacked(\"deceased\"))\r\n        ) {\r\n            policyRegister[_policyIDhash].currentPolicyStatus = PolicyStatus\r\n                .ClaimConfirmedByOracle;\r\n            emit ClaimConfirmed(now, _policyIDhash);\r\n        } else {\r\n            policyRegister[_policyIDhash].currentPolicyStatus = PolicyStatus\r\n                .Active;\r\n            emit ClaimRejected(now, _policyIDhash);\r\n        }\r\n    }\r\n\r\n    function _updateAllPolicies() private {\r\n        for (uint256 k = 0; k < policiesArray.length; k++) {\r\n            if (\r\n                policyRegister[policiesArray[k]].currentPolicyStatus ==\r\n                PolicyStatus.Active &&\r\n                policyRegister[policiesArray[k]].expiryDate > 0 &&\r\n                now > policyRegister[policiesArray[k]].expiryDate\r\n            ) {\r\n                policyRegister[policiesArray[k]]\r\n                    .currentPolicyStatus = PolicyStatus.Expired;\r\n                liquidityManagement.removeLiability(\r\n                    policyRegister[policiesArray[k]].payout\r\n                );\r\n                emit PolicyExpired(now, policiesArray[k]);\r\n            }\r\n            // 30 days grace period for premium payments\r\n            if (\r\n                policyRegister[policiesArray[k]].currentPolicyStatus ==\r\n                PolicyStatus.Active &&\r\n                policyRegister[policiesArray[k]].selectedPaymentOption ==\r\n                PaymentOptions.Monthly &&\r\n                policyRegister[policiesArray[k]].lastPaymentDate > 0 &&\r\n                now >\r\n                policyRegister[policiesArray[k]]\r\n                    .lastPaymentDate\r\n                    .add(30 days)\r\n                    .add(30 days)\r\n            ) {\r\n                policyRegister[policiesArray[k]]\r\n                    .currentPolicyStatus = PolicyStatus.Delinquent;\r\n                liquidityManagement.removeLiability(\r\n                    policyRegister[policiesArray[k]].payout\r\n                );\r\n                emit PolicyDelinquent(now, policiesArray[k]);\r\n            }\r\n            if (\r\n                policyRegister[policiesArray[k]].currentPolicyStatus ==\r\n                PolicyStatus.Active &&\r\n                policyRegister[policiesArray[k]].selectedPaymentOption ==\r\n                PaymentOptions.Yearly &&\r\n                policyRegister[policiesArray[k]].lastPaymentDate > 0 &&\r\n                now >\r\n                policyRegister[policiesArray[k]]\r\n                    .lastPaymentDate\r\n                    .add(365 days)\r\n                    .add(30 days)\r\n            ) {\r\n                policyRegister[policiesArray[k]]\r\n                    .currentPolicyStatus = PolicyStatus.Delinquent;\r\n                liquidityManagement.removeLiability(\r\n                    policyRegister[policiesArray[k]].payout\r\n                );\r\n                emit PolicyDelinquent(now, policiesArray[k]);\r\n            }\r\n        }\r\n    }\r\n\r\n    function _withdrawPayoutShare(bytes32 _policyIDhash, address _beneficiary)\r\n        private\r\n    {\r\n        uint256 beneficiaryPayout =\r\n            policyRegister[_policyIDhash]\r\n                .payout\r\n                .mul(\r\n                policyRegister[_policyIDhash].beneficiariesShare[_beneficiary]\r\n            )\r\n                .div(100);\r\n\r\n        liquidityManagement.withdrawLiquidityViaPayout(\r\n            _beneficiary,\r\n            beneficiaryPayout\r\n        );\r\n\r\n        policyRegister[_policyIDhash].beneficiaries[_beneficiary] = 3; // 3 stands for \"compensated\"\r\n        policyRegister[_policyIDhash].remainingPayout = policyRegister[\r\n            _policyIDhash\r\n        ]\r\n            .remainingPayout\r\n            .sub(beneficiaryPayout);\r\n        emit BeneficiaryPayoutWithdrawn(\r\n            now,\r\n            _policyIDhash,\r\n            _beneficiary,\r\n            beneficiaryPayout\r\n        );\r\n\r\n        if (policyRegister[_policyIDhash].remainingPayout == 0) {\r\n            policyRegister[_policyIDhash].currentPolicyStatus = PolicyStatus\r\n                .PaidOut;\r\n            emit PolicyFullyPaidOut(now, _policyIDhash);\r\n        }\r\n    }\r\n}\r\n",
  "sourcePath": "/home/damas/cherish/contracts/PolicyManagement.sol",
  "compiler": {
    "name": "solc",
    "version": "0.6.12+commit.27d51765.Emscripten.clang"
  },
  "schemaVersion": "3.3.3",
  "updatedAt": "2021-05-22T03:51:13.579Z",
  "devdoc": {
    "kind": "dev",
    "methods": {},
    "version": 1
  },
  "userdoc": {
    "kind": "user",
    "methods": {},
    "version": 1
  }
}